{
  "contracts/Sessions.sol": {
    "Sessions": {
      "abi": [
        {
          "inputs": [],
          "stateMutability": "nonpayable",
          "type": "constructor"
        },
        {
          "inputs": [],
          "name": "ReentrancyGuardReentrantCall",
          "type": "error"
        },
        {
          "anonymous": false,
          "inputs": [
            {
              "indexed": true,
              "internalType": "uint256",
              "name": "videoId",
              "type": "uint256"
            },
            {
              "indexed": true,
              "internalType": "address",
              "name": "user",
              "type": "address"
            },
            {
              "indexed": false,
              "internalType": "string",
              "name": "commentText",
              "type": "string"
            }
          ],
          "name": "CommentAdded",
          "type": "event"
        },
        {
          "anonymous": false,
          "inputs": [
            {
              "indexed": true,
              "internalType": "address",
              "name": "follower",
              "type": "address"
            },
            {
              "indexed": true,
              "internalType": "address",
              "name": "creator",
              "type": "address"
            }
          ],
          "name": "CreatorFollowed",
          "type": "event"
        },
        {
          "anonymous": false,
          "inputs": [
            {
              "indexed": true,
              "internalType": "address",
              "name": "creator",
              "type": "address"
            },
            {
              "indexed": false,
              "internalType": "string",
              "name": "metadataUri",
              "type": "string"
            }
          ],
          "name": "CreatorProfileUpdated",
          "type": "event"
        },
        {
          "anonymous": false,
          "inputs": [
            {
              "indexed": true,
              "internalType": "address",
              "name": "tippedBy",
              "type": "address"
            },
            {
              "indexed": true,
              "internalType": "address",
              "name": "creator",
              "type": "address"
            },
            {
              "indexed": false,
              "internalType": "uint256",
              "name": "amount",
              "type": "uint256"
            }
          ],
          "name": "CreatorTipped",
          "type": "event"
        },
        {
          "anonymous": false,
          "inputs": [
            {
              "indexed": true,
              "internalType": "address",
              "name": "unfollower",
              "type": "address"
            },
            {
              "indexed": true,
              "internalType": "address",
              "name": "creator",
              "type": "address"
            }
          ],
          "name": "CreatorUnfollowed",
          "type": "event"
        },
        {
          "anonymous": false,
          "inputs": [
            {
              "indexed": false,
              "internalType": "uint256",
              "name": "fannitMintLimit",
              "type": "uint256"
            }
          ],
          "name": "FannitMintLimitUpdated",
          "type": "event"
        },
        {
          "anonymous": false,
          "inputs": [
            {
              "indexed": true,
              "internalType": "uint256",
              "name": "fannitVideoId",
              "type": "uint256"
            },
            {
              "indexed": true,
              "internalType": "address",
              "name": "minter",
              "type": "address"
            },
            {
              "indexed": false,
              "internalType": "uint256",
              "name": "price",
              "type": "uint256"
            }
          ],
          "name": "FannitMinted",
          "type": "event"
        },
        {
          "anonymous": false,
          "inputs": [
            {
              "indexed": false,
              "internalType": "uint256",
              "name": "newFee",
              "type": "uint256"
            }
          ],
          "name": "FeeUpdated",
          "type": "event"
        },
        {
          "anonymous": false,
          "inputs": [
            {
              "indexed": false,
              "internalType": "uint256",
              "name": "newMintLimit",
              "type": "uint256"
            }
          ],
          "name": "GlobalMintLimitUpdated",
          "type": "event"
        },
        {
          "anonymous": false,
          "inputs": [
            {
              "indexed": false,
              "internalType": "uint256",
              "name": "newMintPrice",
              "type": "uint256"
            }
          ],
          "name": "MaxMintPriceUpdated",
          "type": "event"
        },
        {
          "anonymous": false,
          "inputs": [
            {
              "indexed": true,
              "internalType": "uint256",
              "name": "videoId",
              "type": "uint256"
            },
            {
              "indexed": false,
              "internalType": "uint256",
              "name": "newMintLimit",
              "type": "uint256"
            }
          ],
          "name": "MintLimitUpdated",
          "type": "event"
        },
        {
          "anonymous": false,
          "inputs": [
            {
              "indexed": true,
              "internalType": "uint256",
              "name": "videoId",
              "type": "uint256"
            },
            {
              "indexed": false,
              "internalType": "uint256",
              "name": "newPrice",
              "type": "uint256"
            }
          ],
          "name": "MintPriceUpdated",
          "type": "event"
        },
        {
          "anonymous": false,
          "inputs": [
            {
              "indexed": true,
              "internalType": "address",
              "name": "prevOwner",
              "type": "address"
            },
            {
              "indexed": true,
              "internalType": "address",
              "name": "newOwner",
              "type": "address"
            }
          ],
          "name": "OwnershipTransferred",
          "type": "event"
        },
        {
          "anonymous": false,
          "inputs": [
            {
              "indexed": false,
              "internalType": "address",
              "name": "newWallet",
              "type": "address"
            }
          ],
          "name": "ProjectWalletUpdated",
          "type": "event"
        },
        {
          "anonymous": false,
          "inputs": [
            {
              "indexed": false,
              "internalType": "uint256",
              "name": "refannitMintLimit",
              "type": "uint256"
            }
          ],
          "name": "RefannitMintLimitUpdated",
          "type": "event"
        },
        {
          "anonymous": false,
          "inputs": [
            {
              "indexed": false,
              "internalType": "uint8",
              "name": "revenueType",
              "type": "uint8"
            },
            {
              "indexed": false,
              "internalType": "uint256",
              "name": "creatorSharePercentage",
              "type": "uint256"
            },
            {
              "indexed": false,
              "internalType": "uint256",
              "name": "platformSharePercentage",
              "type": "uint256"
            },
            {
              "indexed": false,
              "internalType": "uint256",
              "name": "fanSharePercentage",
              "type": "uint256"
            },
            {
              "indexed": false,
              "internalType": "uint256",
              "name": "fan2SharePercentage",
              "type": "uint256"
            },
            {
              "indexed": false,
              "internalType": "uint256",
              "name": "minterSharePercentage",
              "type": "uint256"
            }
          ],
          "name": "RevenueSplitUpdated",
          "type": "event"
        },
        {
          "anonymous": false,
          "inputs": [
            {
              "indexed": true,
              "internalType": "uint256",
              "name": "originalVideoId",
              "type": "uint256"
            },
            {
              "indexed": true,
              "internalType": "uint256",
              "name": "fannitVideoId",
              "type": "uint256"
            },
            {
              "indexed": true,
              "internalType": "address",
              "name": "fan",
              "type": "address"
            }
          ],
          "name": "VideoFannited",
          "type": "event"
        },
        {
          "anonymous": false,
          "inputs": [
            {
              "indexed": true,
              "internalType": "uint256",
              "name": "videoId",
              "type": "uint256"
            },
            {
              "indexed": true,
              "internalType": "address",
              "name": "user",
              "type": "address"
            }
          ],
          "name": "VideoLiked",
          "type": "event"
        },
        {
          "anonymous": false,
          "inputs": [
            {
              "indexed": true,
              "internalType": "uint256",
              "name": "videoId",
              "type": "uint256"
            },
            {
              "indexed": true,
              "internalType": "address",
              "name": "minter",
              "type": "address"
            },
            {
              "indexed": false,
              "internalType": "uint256",
              "name": "price",
              "type": "uint256"
            }
          ],
          "name": "VideoMinted",
          "type": "event"
        },
        {
          "anonymous": false,
          "inputs": [
            {
              "indexed": true,
              "internalType": "uint256",
              "name": "videoId",
              "type": "uint256"
            },
            {
              "indexed": true,
              "internalType": "address",
              "name": "user",
              "type": "address"
            }
          ],
          "name": "VideoUnliked",
          "type": "event"
        },
        {
          "anonymous": false,
          "inputs": [
            {
              "indexed": true,
              "internalType": "uint256",
              "name": "videoId",
              "type": "uint256"
            },
            {
              "indexed": true,
              "internalType": "address",
              "name": "creator",
              "type": "address"
            },
            {
              "indexed": false,
              "internalType": "string",
              "name": "ipfsHash",
              "type": "string"
            },
            {
              "indexed": false,
              "internalType": "uint256",
              "name": "mintLimit",
              "type": "uint256"
            },
            {
              "indexed": false,
              "internalType": "uint256",
              "name": "priceInWei",
              "type": "uint256"
            }
          ],
          "name": "VideoUploaded",
          "type": "event"
        },
        {
          "stateMutability": "payable",
          "type": "fallback"
        },
        {
          "inputs": [],
          "name": "USDC_SCALAR",
          "outputs": [
            {
              "internalType": "uint256",
              "name": "",
              "type": "uint256"
            }
          ],
          "stateMutability": "view",
          "type": "function"
        },
        {
          "inputs": [],
          "name": "acceptOwnership",
          "outputs": [],
          "stateMutability": "nonpayable",
          "type": "function"
        },
        {
          "inputs": [
            {
              "internalType": "address",
              "name": "",
              "type": "address"
            },
            {
              "internalType": "uint256",
              "name": "",
              "type": "uint256"
            }
          ],
          "name": "balances",
          "outputs": [
            {
              "internalType": "uint256",
              "name": "",
              "type": "uint256"
            }
          ],
          "stateMutability": "view",
          "type": "function"
        },
        {
          "inputs": [
            {
              "internalType": "uint256",
              "name": "_videoId",
              "type": "uint256"
            },
            {
              "internalType": "string",
              "name": "_commentText",
              "type": "string"
            }
          ],
          "name": "commentOnVideo",
          "outputs": [],
          "stateMutability": "nonpayable",
          "type": "function"
        },
        {
          "inputs": [
            {
              "internalType": "uint256",
              "name": "",
              "type": "uint256"
            },
            {
              "internalType": "uint256",
              "name": "",
              "type": "uint256"
            }
          ],
          "name": "comments",
          "outputs": [
            {
              "internalType": "address",
              "name": "commenter",
              "type": "address"
            },
            {
              "internalType": "string",
              "name": "text",
              "type": "string"
            },
            {
              "internalType": "uint256",
              "name": "timestamp",
              "type": "uint256"
            }
          ],
          "stateMutability": "view",
          "type": "function"
        },
        {
          "inputs": [
            {
              "internalType": "address",
              "name": "",
              "type": "address"
            }
          ],
          "name": "creators",
          "outputs": [
            {
              "internalType": "string",
              "name": "metadataUri",
              "type": "string"
            },
            {
              "internalType": "uint256",
              "name": "totalVideos",
              "type": "uint256"
            },
            {
              "internalType": "uint256",
              "name": "totalFollowers",
              "type": "uint256"
            },
            {
              "internalType": "uint256",
              "name": "totalTipsReceived",
              "type": "uint256"
            }
          ],
          "stateMutability": "view",
          "type": "function"
        },
        {
          "inputs": [],
          "name": "fannitMintLimit",
          "outputs": [
            {
              "internalType": "uint256",
              "name": "",
              "type": "uint256"
            }
          ],
          "stateMutability": "view",
          "type": "function"
        },
        {
          "inputs": [
            {
              "internalType": "uint256",
              "name": "_originalVideoId",
              "type": "uint256"
            }
          ],
          "name": "fannitVideo",
          "outputs": [],
          "stateMutability": "nonpayable",
          "type": "function"
        },
        {
          "inputs": [
            {
              "internalType": "uint256",
              "name": "",
              "type": "uint256"
            },
            {
              "internalType": "uint256",
              "name": "",
              "type": "uint256"
            }
          ],
          "name": "fannitsOfVideo",
          "outputs": [
            {
              "internalType": "uint256",
              "name": "",
              "type": "uint256"
            }
          ],
          "stateMutability": "view",
          "type": "function"
        },
        {
          "inputs": [
            {
              "internalType": "address",
              "name": "_creator",
              "type": "address"
            }
          ],
          "name": "followCreator",
          "outputs": [],
          "stateMutability": "nonpayable",
          "type": "function"
        },
        {
          "inputs": [
            {
              "internalType": "address",
              "name": "",
              "type": "address"
            },
            {
              "internalType": "address",
              "name": "",
              "type": "address"
            }
          ],
          "name": "following",
          "outputs": [
            {
              "internalType": "bool",
              "name": "",
              "type": "bool"
            }
          ],
          "stateMutability": "view",
          "type": "function"
        },
        {
          "inputs": [],
          "name": "getBalance",
          "outputs": [
            {
              "internalType": "uint256",
              "name": "",
              "type": "uint256"
            }
          ],
          "stateMutability": "view",
          "type": "function"
        },
        {
          "inputs": [
            {
              "internalType": "address",
              "name": "_creator",
              "type": "address"
            }
          ],
          "name": "getCreatorProfile",
          "outputs": [
            {
              "components": [
                {
                  "internalType": "string",
                  "name": "metadataUri",
                  "type": "string"
                },
                {
                  "internalType": "uint256",
                  "name": "totalVideos",
                  "type": "uint256"
                },
                {
                  "internalType": "uint256",
                  "name": "totalFollowers",
                  "type": "uint256"
                },
                {
                  "internalType": "uint256",
                  "name": "totalTipsReceived",
                  "type": "uint256"
                }
              ],
              "internalType": "struct ISessions.Creator",
              "name": "",
              "type": "tuple"
            }
          ],
          "stateMutability": "view",
          "type": "function"
        },
        {
          "inputs": [],
          "name": "getEthPrice",
          "outputs": [
            {
              "internalType": "uint256",
              "name": "",
              "type": "uint256"
            }
          ],
          "stateMutability": "view",
          "type": "function"
        },
        {
          "inputs": [],
          "name": "getFannitMintLimit",
          "outputs": [
            {
              "internalType": "uint256",
              "name": "",
              "type": "uint256"
            }
          ],
          "stateMutability": "view",
          "type": "function"
        },
        {
          "inputs": [
            {
              "internalType": "uint256",
              "name": "_videoId",
              "type": "uint256"
            }
          ],
          "name": "getFannitsOfVideo",
          "outputs": [
            {
              "internalType": "uint256[]",
              "name": "",
              "type": "uint256[]"
            }
          ],
          "stateMutability": "view",
          "type": "function"
        },
        {
          "inputs": [
            {
              "internalType": "uint8",
              "name": "_type",
              "type": "uint8"
            }
          ],
          "name": "getSharedRevenue",
          "outputs": [
            {
              "components": [
                {
                  "internalType": "uint256",
                  "name": "creator",
                  "type": "uint256"
                },
                {
                  "internalType": "uint256",
                  "name": "platform",
                  "type": "uint256"
                },
                {
                  "internalType": "uint256",
                  "name": "fan",
                  "type": "uint256"
                },
                {
                  "internalType": "uint256",
                  "name": "fan2",
                  "type": "uint256"
                },
                {
                  "internalType": "uint256",
                  "name": "minter",
                  "type": "uint256"
                }
              ],
              "internalType": "struct ISessions.RevenueShare",
              "name": "",
              "type": "tuple"
            }
          ],
          "stateMutability": "view",
          "type": "function"
        },
        {
          "inputs": [
            {
              "internalType": "uint256",
              "name": "_videoId",
              "type": "uint256"
            }
          ],
          "name": "getTotalComments",
          "outputs": [
            {
              "internalType": "uint256",
              "name": "",
              "type": "uint256"
            }
          ],
          "stateMutability": "view",
          "type": "function"
        },
        {
          "inputs": [
            {
              "internalType": "address",
              "name": "_creator",
              "type": "address"
            }
          ],
          "name": "getTotalFollowers",
          "outputs": [
            {
              "internalType": "uint256",
              "name": "",
              "type": "uint256"
            }
          ],
          "stateMutability": "view",
          "type": "function"
        },
        {
          "inputs": [],
          "name": "getUsdcFeeInEth",
          "outputs": [
            {
              "internalType": "uint256",
              "name": "",
              "type": "uint256"
            }
          ],
          "stateMutability": "view",
          "type": "function"
        },
        {
          "inputs": [
            {
              "internalType": "uint256",
              "name": "_videoId",
              "type": "uint256"
            }
          ],
          "name": "getVideoComments",
          "outputs": [
            {
              "components": [
                {
                  "internalType": "address",
                  "name": "commenter",
                  "type": "address"
                },
                {
                  "internalType": "string",
                  "name": "text",
                  "type": "string"
                },
                {
                  "internalType": "uint256",
                  "name": "timestamp",
                  "type": "uint256"
                }
              ],
              "internalType": "struct ISessions.Comment[]",
              "name": "",
              "type": "tuple[]"
            }
          ],
          "stateMutability": "view",
          "type": "function"
        },
        {
          "inputs": [
            {
              "internalType": "uint256",
              "name": "_videoId",
              "type": "uint256"
            },
            {
              "internalType": "uint256",
              "name": "offset",
              "type": "uint256"
            },
            {
              "internalType": "uint256",
              "name": "limit",
              "type": "uint256"
            }
          ],
          "name": "getVideoCommentsPaginated",
          "outputs": [
            {
              "components": [
                {
                  "internalType": "address",
                  "name": "commenter",
                  "type": "address"
                },
                {
                  "internalType": "string",
                  "name": "text",
                  "type": "string"
                },
                {
                  "internalType": "uint256",
                  "name": "timestamp",
                  "type": "uint256"
                }
              ],
              "internalType": "struct ISessions.Comment[]",
              "name": "",
              "type": "tuple[]"
            }
          ],
          "stateMutability": "view",
          "type": "function"
        },
        {
          "inputs": [
            {
              "internalType": "uint256",
              "name": "_videoId",
              "type": "uint256"
            },
            {
              "internalType": "address",
              "name": "_user",
              "type": "address"
            }
          ],
          "name": "hasLikedVideo",
          "outputs": [
            {
              "internalType": "bool",
              "name": "",
              "type": "bool"
            }
          ],
          "stateMutability": "view",
          "type": "function"
        },
        {
          "inputs": [
            {
              "internalType": "address",
              "name": "",
              "type": "address"
            },
            {
              "internalType": "uint256",
              "name": "",
              "type": "uint256"
            }
          ],
          "name": "hasfannited",
          "outputs": [
            {
              "internalType": "bool",
              "name": "",
              "type": "bool"
            }
          ],
          "stateMutability": "view",
          "type": "function"
        },
        {
          "inputs": [
            {
              "internalType": "address",
              "name": "_follower",
              "type": "address"
            },
            {
              "internalType": "address",
              "name": "_creator",
              "type": "address"
            }
          ],
          "name": "isFollowing",
          "outputs": [
            {
              "internalType": "bool",
              "name": "",
              "type": "bool"
            }
          ],
          "stateMutability": "view",
          "type": "function"
        },
        {
          "inputs": [
            {
              "internalType": "uint256",
              "name": "_videoId",
              "type": "uint256"
            }
          ],
          "name": "likeVideo",
          "outputs": [],
          "stateMutability": "nonpayable",
          "type": "function"
        },
        {
          "inputs": [
            {
              "internalType": "uint256",
              "name": "",
              "type": "uint256"
            },
            {
              "internalType": "address",
              "name": "",
              "type": "address"
            }
          ],
          "name": "likedBy",
          "outputs": [
            {
              "internalType": "bool",
              "name": "",
              "type": "bool"
            }
          ],
          "stateMutability": "view",
          "type": "function"
        },
        {
          "inputs": [],
          "name": "maxMintPrice",
          "outputs": [
            {
              "internalType": "uint256",
              "name": "",
              "type": "uint256"
            }
          ],
          "stateMutability": "view",
          "type": "function"
        },
        {
          "inputs": [
            {
              "internalType": "uint256",
              "name": "_videoId",
              "type": "uint256"
            }
          ],
          "name": "mintFannit",
          "outputs": [],
          "stateMutability": "payable",
          "type": "function"
        },
        {
          "inputs": [],
          "name": "mintLimit",
          "outputs": [
            {
              "internalType": "uint256",
              "name": "",
              "type": "uint256"
            }
          ],
          "stateMutability": "view",
          "type": "function"
        },
        {
          "inputs": [
            {
              "internalType": "uint256",
              "name": "_videoId",
              "type": "uint256"
            }
          ],
          "name": "mintVideo",
          "outputs": [],
          "stateMutability": "payable",
          "type": "function"
        },
        {
          "inputs": [],
          "name": "owner",
          "outputs": [
            {
              "internalType": "address",
              "name": "",
              "type": "address"
            }
          ],
          "stateMutability": "view",
          "type": "function"
        },
        {
          "inputs": [],
          "name": "pendingOwner",
          "outputs": [
            {
              "internalType": "address",
              "name": "",
              "type": "address"
            }
          ],
          "stateMutability": "view",
          "type": "function"
        },
        {
          "inputs": [],
          "name": "projectWallet",
          "outputs": [
            {
              "internalType": "address",
              "name": "",
              "type": "address"
            }
          ],
          "stateMutability": "view",
          "type": "function"
        },
        {
          "inputs": [],
          "name": "refannitMintLimit",
          "outputs": [
            {
              "internalType": "uint256",
              "name": "",
              "type": "uint256"
            }
          ],
          "stateMutability": "view",
          "type": "function"
        },
        {
          "inputs": [
            {
              "internalType": "uint256",
              "name": "_limit",
              "type": "uint256"
            }
          ],
          "name": "setFannitMintLimit",
          "outputs": [],
          "stateMutability": "nonpayable",
          "type": "function"
        },
        {
          "inputs": [
            {
              "internalType": "uint256",
              "name": "_newFee",
              "type": "uint256"
            }
          ],
          "name": "setFee",
          "outputs": [],
          "stateMutability": "nonpayable",
          "type": "function"
        },
        {
          "inputs": [
            {
              "internalType": "address",
              "name": "_projectWallet",
              "type": "address"
            }
          ],
          "name": "setProjectWallet",
          "outputs": [],
          "stateMutability": "nonpayable",
          "type": "function"
        },
        {
          "inputs": [
            {
              "internalType": "uint256",
              "name": "_limit",
              "type": "uint256"
            }
          ],
          "name": "setRefannitMintLimit",
          "outputs": [],
          "stateMutability": "nonpayable",
          "type": "function"
        },
        {
          "inputs": [
            {
              "internalType": "uint8",
              "name": "_type",
              "type": "uint8"
            },
            {
              "internalType": "uint256",
              "name": "_creator",
              "type": "uint256"
            },
            {
              "internalType": "uint256",
              "name": "_platform",
              "type": "uint256"
            },
            {
              "internalType": "uint256",
              "name": "_fan",
              "type": "uint256"
            },
            {
              "internalType": "uint256",
              "name": "_fan2",
              "type": "uint256"
            },
            {
              "internalType": "uint256",
              "name": "_minter",
              "type": "uint256"
            }
          ],
          "name": "setRevenueSplit",
          "outputs": [],
          "stateMutability": "nonpayable",
          "type": "function"
        },
        {
          "inputs": [
            {
              "internalType": "address",
              "name": "_creator",
              "type": "address"
            }
          ],
          "name": "tipCreator",
          "outputs": [],
          "stateMutability": "payable",
          "type": "function"
        },
        {
          "inputs": [
            {
              "internalType": "address",
              "name": "_newOwner",
              "type": "address"
            }
          ],
          "name": "transferOwnership",
          "outputs": [],
          "stateMutability": "nonpayable",
          "type": "function"
        },
        {
          "inputs": [
            {
              "internalType": "address",
              "name": "_creator",
              "type": "address"
            }
          ],
          "name": "unfollowCreator",
          "outputs": [],
          "stateMutability": "nonpayable",
          "type": "function"
        },
        {
          "inputs": [
            {
              "internalType": "uint256",
              "name": "_videoId",
              "type": "uint256"
            }
          ],
          "name": "unlikeVideo",
          "outputs": [],
          "stateMutability": "nonpayable",
          "type": "function"
        },
        {
          "inputs": [
            {
              "internalType": "uint256",
              "name": "_newMintLimit",
              "type": "uint256"
            }
          ],
          "name": "updateGlobalMintLimit",
          "outputs": [],
          "stateMutability": "nonpayable",
          "type": "function"
        },
        {
          "inputs": [
            {
              "internalType": "uint256",
              "name": "_newMaxMintPrice",
              "type": "uint256"
            }
          ],
          "name": "updateMaximumMintPrice",
          "outputs": [],
          "stateMutability": "nonpayable",
          "type": "function"
        },
        {
          "inputs": [
            {
              "internalType": "uint256",
              "name": "_videoId",
              "type": "uint256"
            },
            {
              "internalType": "uint256",
              "name": "_newMintLimit",
              "type": "uint256"
            }
          ],
          "name": "updateMintLimit",
          "outputs": [],
          "stateMutability": "nonpayable",
          "type": "function"
        },
        {
          "inputs": [
            {
              "internalType": "uint256",
              "name": "_videoId",
              "type": "uint256"
            },
            {
              "internalType": "uint256",
              "name": "_newPrice",
              "type": "uint256"
            }
          ],
          "name": "updateMintPrice",
          "outputs": [],
          "stateMutability": "nonpayable",
          "type": "function"
        },
        {
          "inputs": [
            {
              "internalType": "string",
              "name": "_metadataUri",
              "type": "string"
            }
          ],
          "name": "updateProfile",
          "outputs": [],
          "stateMutability": "nonpayable",
          "type": "function"
        },
        {
          "inputs": [
            {
              "internalType": "string",
              "name": "_ipfsHash",
              "type": "string"
            },
            {
              "internalType": "uint256",
              "name": "_mintLimit",
              "type": "uint256"
            },
            {
              "internalType": "uint256",
              "name": "_priceInWei",
              "type": "uint256"
            }
          ],
          "name": "uploadVideo",
          "outputs": [],
          "stateMutability": "payable",
          "type": "function"
        },
        {
          "inputs": [],
          "name": "usdcFee",
          "outputs": [
            {
              "internalType": "uint256",
              "name": "",
              "type": "uint256"
            }
          ],
          "stateMutability": "view",
          "type": "function"
        },
        {
          "inputs": [
            {
              "internalType": "bytes32",
              "name": "",
              "type": "bytes32"
            }
          ],
          "name": "videoIdByHash",
          "outputs": [
            {
              "internalType": "uint256",
              "name": "",
              "type": "uint256"
            }
          ],
          "stateMutability": "view",
          "type": "function"
        },
        {
          "inputs": [
            {
              "internalType": "uint256",
              "name": "",
              "type": "uint256"
            }
          ],
          "name": "videos",
          "outputs": [
            {
              "internalType": "address",
              "name": "creator",
              "type": "address"
            },
            {
              "internalType": "string",
              "name": "ipfsHash",
              "type": "string"
            },
            {
              "internalType": "uint256",
              "name": "totalMints",
              "type": "uint256"
            },
            {
              "internalType": "uint256",
              "name": "mintLimit",
              "type": "uint256"
            },
            {
              "internalType": "uint256",
              "name": "price",
              "type": "uint256"
            },
            {
              "internalType": "uint256",
              "name": "likes",
              "type": "uint256"
            },
            {
              "internalType": "bool",
              "name": "isFannit",
              "type": "bool"
            },
            {
              "internalType": "uint256",
              "name": "originalVideoId",
              "type": "uint256"
            },
            {
              "internalType": "uint256",
              "name": "parentVideoId",
              "type": "uint256"
            },
            {
              "internalType": "address",
              "name": "fan",
              "type": "address"
            },
            {
              "internalType": "address",
              "name": "fan2",
              "type": "address"
            }
          ],
          "stateMutability": "view",
          "type": "function"
        },
        {
          "inputs": [],
          "name": "videosCount",
          "outputs": [
            {
              "internalType": "uint256",
              "name": "",
              "type": "uint256"
            }
          ],
          "stateMutability": "view",
          "type": "function"
        },
        {
          "inputs": [],
          "name": "withdraw",
          "outputs": [],
          "stateMutability": "nonpayable",
          "type": "function"
        },
        {
          "stateMutability": "payable",
          "type": "receive"
        }
      ],
      "evm": {
        "bytecode": {
          "linkReferences": {},
          "object": "60006004819055670de0b6b3a7640000600555620f423f600655600a60078190556008819055603c6080819052601e60a081905260c084905260e084905261010083905260098290558255600b839055600c839055600d82905561012081905260146101408190526101608390526101808490526101a0839052600e91909155600f8190556010829055601192909255601281905561026060405260326101c08190526101e0839052610200829052610220829052610240829052601355908055601581905560168190556017553480156100d957600080fd5b50600160008190558054336001600160a01b03199182168117909255600380549091169091179055610110606463042c1d8061013e565b601855601980546001600160a01b031916734adc67696ba383f43dd60a9e78f2c97fbbfc7cb1179055610160565b60008261015b57634e487b7160e01b600052601260045260246000fd5b500490565b6140748061016f6000396000f3fe6080604052600436106103255760003560e01c80637ce2a824116101ae578063cbf1304d116100eb578063e6f477ef1161008f578063ef08523b1161006c578063ef08523b14610a6b578063f1f2c58d14610a81578063f2fde38b14610a96578063fc6c776f14610ab657005b8063e6f477ef14610a0b578063e8ed165314610a2b578063ec9ca25814610a4b57005b8063d5caafa1116100c8578063d5caafa114610967578063daf6160c14610994578063e30c3978146109b4578063e6821bf5146109d457005b8063cbf1304d146108c7578063ce9ae001146108ff578063d2825af31461093a57005b80639b40e6ec11610152578063beb08ab91161012f578063beb08ab914610839578063c0a1996314610859578063c99fda3414610894578063cbdf753b146108a757005b80639b40e6ec146107b35780639e39e58d146107ec578063a5b6f9411461081957005b8063933166e11161018b578063933166e1146106c2578063958a9b72146106f2578063996517cf1461075457806399ec3a421461076a57005b80637ce2a824146106575780638a7804471461066a5780638da5cb5b1461068a57005b806327260d5c1161027c578063587520fa1161022057806367c9b017116101fd57806367c9b017146105fa5780636976c1921461060f57806369fe0e2d1461062257806379ba50971461064257005b8063587520fa146105a457806364db36d4146105d157806365c4e4aa146105e757005b80633ccfd60b116102595780633ccfd60b1461050657806346a094d21461051b5780634d90bc371461054b57806355e6a8061461056b57005b806327260d5c146104b05780632c8739d6146104d057806332cb9eea146104f057005b806311abd324116102e3578063150f885e116102c0578063150f885e1461042357806318196191146104435780631c0081a31461046357806325d9c71b1461049057005b806311abd324146103da57806312065fe0146103fa578063136f5cdd1461040d57005b80629299e3146103275780630327b6551461034757806308796fda1461037057806308d5c32714610385578063098970971461039a5780630e8437e0146103ba575b005b34801561033357600080fd5b50610325610342366004613860565b610ae5565b34801561035357600080fd5b5061035d60075481565b6040519081526020015b60405180910390f35b34801561037c57600080fd5b5061035d606481565b34801561039157600080fd5b5061035d610bcc565b3480156103a657600080fd5b506103256103b536600461389d565b610bdb565b3480156103c657600080fd5b5061035d6103d53660046138b6565b610c9d565b3480156103e657600080fd5b506103256103f536600461389d565b610cce565b34801561040657600080fd5b504761035d565b34801561041957600080fd5b5061035d60185481565b34801561042f57600080fd5b5061032561043e3660046138b6565b610de6565b34801561044f57600080fd5b5061032561045e3660046138ef565b610eea565b34801561046f57600080fd5b5061048361047e36600461389d565b610fe6565b604051610367919061390a565b34801561049c57600080fd5b506103256104ab36600461389d565b611048565b3480156104bc57600080fd5b506103256104cb36600461389d565b61106e565b3480156104dc57600080fd5b506103256104eb36600461395e565b611186565b3480156104fc57600080fd5b5061035d60055481565b34801561051257600080fd5b5061032561140e565b34801561052757600080fd5b5061053b6105363660046139a8565b61147a565b6040519015158152602001610367565b34801561055757600080fd5b506103256105663660046138ef565b6114a7565b34801561057757600080fd5b5061035d6105863660046138ef565b6001600160a01b03166000908152601b602052604090206002015490565b3480156105b057600080fd5b5061035d6105bf36600461389d565b6000908152601e602052604090205490565b3480156105dd57600080fd5b5061035d60085481565b6103256105f53660046138ef565b6115ed565b34801561060657600080fd5b5061035d611742565b61032561061d3660046139d4565b611873565b34801561062e57600080fd5b5061032561063d36600461389d565b6118fe565b34801561064e57600080fd5b506103256119a2565b61032561066536600461389d565b611a27565b34801561067657600080fd5b506103256106853660046138ef565b611b57565b34801561069657600080fd5b506001546106aa906001600160a01b031681565b6040516001600160a01b039091168152602001610367565b3480156106ce57600080fd5b506106e26106dd3660046138ef565b611c17565b6040516103679493929190613a72565b3480156106fe57600080fd5b5061071261070d366004613aa1565b611cc7565b6040516103679190600060a082019050825182526020830151602083015260408301516040830152606083015160608301526080830151608083015292915050565b34801561076057600080fd5b5061035d60065481565b34801561077657600080fd5b5061053b610785366004613abc565b6001600160a01b039182166000908152601c6020908152604080832093909416825291909152205460ff1690565b3480156107bf57600080fd5b5061053b6107ce366004613ae6565b60208080526000928352604080842090915290825290205460ff1681565b3480156107f857600080fd5b5061080c6108073660046138ef565b611df8565b6040516103679190613b10565b34801561082557600080fd5b5061032561083436600461389d565b611efc565b34801561084557600080fd5b506003546106aa906001600160a01b031681565b34801561086557600080fd5b5061053b6108743660046139a8565b601d60209081526000928352604080842090915290825290205460ff1681565b6103256108a236600461389d565b611fac565b3480156108b357600080fd5b506103256108c236600461389d565b612093565b3480156108d357600080fd5b5061035d6108e2366004613ae6565b602260209081526000928352604080842090915290825290205481565b34801561090b57600080fd5b5061053b61091a366004613abc565b601c60209081526000928352604080842090915290825290205460ff1681565b34801561094657600080fd5b5061095a610955366004613b56565b612112565b6040516103679190613b82565b34801561097357600080fd5b5061035d61098236600461389d565b60216020526000908152604090205481565b3480156109a057600080fd5b5061095a6109af36600461389d565b612408565b3480156109c057600080fd5b506002546106aa906001600160a01b031681565b3480156109e057600080fd5b506109f46109ef36600461389d565b61252c565b6040516103679b9a99989796959493929190613c14565b348015610a1757600080fd5b50610325610a2636600461389d565b612627565b348015610a3757600080fd5b50610325610a46366004613c8c565b6126a6565b348015610a5757600080fd5b50610325610a663660046138b6565b61279f565b348015610a7757600080fd5b5061035d60045481565b348015610a8d57600080fd5b5060075461035d565b348015610aa257600080fd5b50610325610ab13660046138ef565b6128c3565b348015610ac257600080fd5b50610ad6610ad13660046138b6565b612957565b60405161036793929190613cd3565b336000908152601b602052604090208054610aff90613d07565b9050600003610b6b57604080516080810182528281526000602080830182905282840182905260608301829052338252601b90529190912081518190610b459082613d88565b506020820151600182015560408201516002820155606090910151600390910155610b88565b336000908152601b6020526040902080610b858382613d88565b50505b336001600160a01b03167fb07b7c8b0281bfa225d936eb4b081f263727dcaa3a2160038b8a947d75df5cb282604051610bc19190613e47565b60405180910390a250565b6000610bd6612a2d565b905090565b6001546001600160a01b03163314610c0e5760405162461bcd60e51b8152600401610c0590613e5a565b60405180910390fd5b600081118015610c2057506006548114155b610c615760405162461bcd60e51b8152602060048201526012602482015271125b9d985b1a59081b5a5b9d081b1a5b5a5d60721b6044820152606401610c05565b60068190556040518181527ff56cd1c2276dd17bcff78ff95f3dcc99cb9595b770bc12da977b9c095c9bf96b906020015b60405180910390a150565b601f6020528160005260406000208181548110610cb957600080fd5b90600052602060002001600091509150505481565b6000818152601a602052604090205481906001600160a01b0316610d045760405162461bcd60e51b8152600401610c0590613e82565b610d0c612a62565b6000828152601d6020908152604080832033845290915290205460ff16610d6b5760405162461bcd60e51b815260206004820152601360248201527243616e6e6f7420756e6c696b6520766964656f60681b6044820152606401610c05565b6000828152601a60205260408120600501805491610d8883613ec5565b90915550506000828152601d60209081526040808320338085529252808320805460ff1916905551909184917fe1ea13f5a6d14e33425b04b4cd2185c1919991c8b880eecaa279f4906475d6f99190a3610de26001600055565b5050565b6000828152601a602052604090205482906001600160a01b03163314610e1e5760405162461bcd60e51b8152600401610c0590613e5a565b6000838152601a6020526040902060060154839060ff1615610e745760405162461bcd60e51b815260206004820152600f60248201526e139bdd08185b881bdc9a59da5b985b608a1b6044820152606401610c05565b60008311610e945760405162461bcd60e51b8152600401610c0590613edc565b6000848152601a6020526040908190206003018490555184907f864790bdf9878a0378c6fc2b0ce53bf74ca13b901bc97a1cb94aa88f1600e48290610edc9086815260200190565b60405180910390a250505050565b610ef2612a62565b336000908152601c602090815260408083206001600160a01b038516845290915290205460ff16610f5d5760405162461bcd60e51b81526020600482015260156024820152742737ba103337b63637bbb4b7339031b932b0ba37b960591b6044820152606401610c05565b336000908152601c602090815260408083206001600160a01b03851684528252808320805460ff19169055601b9091528120600201805491610f9e83613ec5565b90915550506040516001600160a01b0382169033907f673e2dc2dff10ec8a44c707c34be5b2833e3b75618cb3bf22e1e31c1d6a1066890600090a3610fe36001600055565b50565b6000818152601f602090815260409182902080548351818402810184019094528084526060939283018282801561103c57602002820191906000526020600020905b815481526020019060010190808311611028575b50505050509050919050565b611050612a62565b61105a8133612a8c565b6110648133612c26565b610fe36001600055565b6000818152601a602052604090205481906001600160a01b03166110a45760405162461bcd60e51b8152600401610c0590613e82565b6110ac612a62565b6000828152601d6020908152604080832033845290915290205460ff161561110c5760405162461bcd60e51b81526020600482015260136024820152721d9a59195bc8185b1c9958591e481b1a5ad959606a1b6044820152606401610c05565b6000828152601a6020526040812060050180549161112983613f03565b90915550506000828152601d60209081526040808320338085529252808320805460ff1916600117905551909184917f252555045b2bb75bbf4e656932c7fc2d63e8e7d9acc300a6b55d6575a2c8d4289190a3610de26001600055565b6001546001600160a01b031633146111b05760405162461bcd60e51b8152600401610c0590613e5a565b8082846111bd8789613f1c565b6111c79190613f1c565b6111d19190613f1c565b6111db9190613f1c565b60641461122a5760405162461bcd60e51b815260206004820152601b60248201527f50657263656e7461676573206d7573742073756d20746f2031303000000000006044820152606401610c05565b60038660ff161061126c5760405162461bcd60e51b815260206004820152600c60248201526b496e76616c6964207479706560a01b6044820152606401610c05565b8560ff16600003611311576040805160a0808201835287825260208083018890528284018790526060808401879052608093840186905260098a9055600a899055600b889055600c879055600d869055845160ff8c1681529182018a90528185018990528101879052918201859052810183905290517f99194602f58965f9e0983b85141213934a0d9274814df284574442e175ae43709181900360c00190a16113ad565b8560ff16600103611361576040805160a0810182528681526020810186905290810184905260608101839052608001819052600e859055600f8490556010839055601182905560128190556113ad565b8560ff166002036113ad576040805160a0810182528681526020810186905290810184905260608101839052608001819052601385905560148490556015839055601682905560178190555b6040805160ff8816815260208101869052908101869052606081018490526080810183905260a081018290527f99194602f58965f9e0983b85141213934a0d9274814df284574442e175ae43709060c00160405180910390a1505050505050565b6001546001600160a01b031633146114385760405162461bcd60e51b8152600401610c0590613e5a565b6003546040805180820190915260118152701dda5d1a191c985dd85b0819985a5b1959607a1b6020820152611478916001600160a01b0316904790612ed0565b565b6000828152601d602090815260408083206001600160a01b038516845290915290205460ff165b92915050565b6114af612a62565b6001600160a01b03811633036114fc5760405162461bcd60e51b815260206004820152601260248201527121b0b73737ba103337b63637bb9039b2b63360711b6044820152606401610c05565b336000908152601c602090815260408083206001600160a01b038516845290915290205460ff16156115645760405162461bcd60e51b8152602060048201526011602482015270416c726561647920666f6c6c6f77696e6760781b6044820152606401610c05565b336000908152601c602090815260408083206001600160a01b03851684528252808320805460ff19166001179055601b90915281206002018054916115a883613f03565b90915550506040516001600160a01b0382169033907f1e4f76f27ac4380b0e6c2d1a24f025857826721375cb34acd4ac2cccd831eead90600090a3610fe36001600055565b6115f5612a62565b6000341161163a5760405162461bcd60e51b8152602060048201526012602482015271125b9d985b1a59081d1a5c08185b5bdd5b9d60721b6044820152606401610c05565b6001600160a01b0381166116905760405162461bcd60e51b815260206004820152601760248201527f496e76616c69642063726561746f7220616464726573730000000000000000006044820152606401610c05565b6116c88134604051806040016040528060158152602001742330b4b632b2103a37903a34b81031b932b0ba37b960591b815250612ed0565b6001600160a01b0381166000908152601b6020526040812060030180543492906116f3908490613f1c565b90915550506040513481526001600160a01b0382169033907fa32d9d0d87d6c17bab78e0fe62ab9560e6f09ec4a903287bac5dd223e358c1869060200160405180910390a3610fe36001600055565b6000806000601960009054906101000a90046001600160a01b03166001600160a01b031663feaf968c6040518163ffffffff1660e01b815260040160a060405180830381865afa15801561179a573d6000803e3d6000fd5b505050506040513d601f19601f820116820180604052508101906117be9190613f49565b50935050925050610e1081426117d49190613f9b565b1061180d5760405162461bcd60e51b81526020600482015260096024820152684f6c6420707269636560b81b6044820152606401610c05565b6000821361185d5760405162461bcd60e51b815260206004820152601960248201527f496e76616c69642070726963652066726f6d206f7261636c65000000000000006044820152606401610c05565b61186c826402540be400613fae565b9250505090565b61187b612a62565b6000611885612a2d565b9050803410156118d75760405162461bcd60e51b815260206004820152601760248201527f496e73756666696369656e742075706c6f6164206665650000000000000000006044820152606401610c05565b6118e2848484612f5a565b6118ee848484336130fb565b506118f96001600055565b505050565b6001546001600160a01b031633146119285760405162461bcd60e51b8152600401610c0590613e5a565b620f424081111561196d5760405162461bcd60e51b815260206004820152600f60248201526e08ccaca40d2e640e8dede40d0d2ced608b1b6044820152606401610c05565b60188190556040518181527f8c4d35e54a3f2ef1134138fd8ea3daee6a3c89e10d2665996babdf70261e2c7690602001610c92565b6002546001600160a01b031633146119cc5760405162461bcd60e51b8152600401610c0590613e5a565b600180546001600160a01b0319808216339081179093556002805490911690556040516001600160a01b03909116919082907f8be0079c531659141344cd1fd0a4f28419497f9722a3daafe3b4186f6b6457e090600090a350565b611a2f612a62565b6000818152601a602052604090205481906001600160a01b0316611a655760405162461bcd60e51b8152600401610c0590613e82565b6000828152601a60205260409020600681015460ff1615611ac85760405162461bcd60e51b815260206004820152601a60248201527f557365206d696e7446616e6e697420666f722066616e6e6974730000000000006044820152606401610c05565b6000611ad5846000613327565b905080611b125760405162461bcd60e51b815260206004820152600b60248201526a135a5b9d0819985a5b195960aa1b6044820152606401610c05565b604051348152339085907f6ca565cbe12d6a229e5001591809c6900e82e4dc3d5abc5d7f48e1a9c2073e9d906020015b60405180910390a3505050610fe36001600055565b6001546001600160a01b03163314611b815760405162461bcd60e51b8152600401610c0590613e5a565b6001600160a01b038116611bc95760405162461bcd60e51b815260206004820152600f60248201526e496e76616c6964206164647265737360881b6044820152606401610c05565b600380546001600160a01b0319166001600160a01b0383169081179091556040519081527fec859decd72bbc1028a5d9cff18865d253e0a9c46133f5de383c3cd73ab89b6590602001610c92565b601b60205260009081526040902080548190611c3290613d07565b80601f0160208091040260200160405190810160405280929190818152602001828054611c5e90613d07565b8015611cab5780601f10611c8057610100808354040283529160200191611cab565b820191906000526020600020905b815481529060010190602001808311611c8e57829003601f168201915b5050505050908060010154908060020154908060030154905084565b611cf96040518060a0016040528060008152602001600081526020016000815260200160008152602001600081525090565b60038260ff1610611d3b5760405162461bcd60e51b815260206004820152600c60248201526b496e76616c6964207479706560a01b6044820152606401610c05565b8160ff16600003611d7c5750506040805160a0810182526009548152600a546020820152600b5491810191909152600c546060820152600d54608082015290565b8160ff16600103611dbd5750506040805160a081018252600e548152600f546020820152601054918101919091526011546060820152601254608082015290565b50506040805160a08101825260135481526014546020820152601554918101919091526016546060820152601754608082015290565b919050565b611e236040518060800160405280606081526020016000815260200160008152602001600081525090565b6001600160a01b0382166000908152601b602052604090819020815160808101909252805482908290611e5590613d07565b80601f0160208091040260200160405190810160405280929190818152602001828054611e8190613d07565b8015611ece5780601f10611ea357610100808354040283529160200191611ece565b820191906000526020600020905b815481529060010190602001808311611eb157829003601f168201915b5050505050815260200160018201548152602001600282015481526020016003820154815250509050919050565b6001546001600160a01b03163314611f265760405162461bcd60e51b8152600401610c0590613e5a565b600081118015611f3857506005548114155b611f775760405162461bcd60e51b815260206004820152601060248201526f496e76616c6964204d696e742066656560801b6044820152606401610c05565b60058190556040518181527f732603a291622cec912f16c1f255237a3c66fdaaebc8c61e72c21600547f61ee90602001610c92565b611fb4612a62565b6000818152601a602052604090205481906001600160a01b0316611fea5760405162461bcd60e51b8152600401610c0590613e82565b6000611ff583613608565b905060006120038483613327565b9050806120405760405162461bcd60e51b815260206004820152600b60248201526a135a5b9d0819985a5b195960aa1b6044820152606401610c05565b33600081815260208080526040808320888452825291829020805460ff19166001179055905134815286917f42c41140a2bdff8665cac94de0aeb7ac38e33ad117c48ff3e21a908f0dc8d07d9101611b42565b6001546001600160a01b031633146120bd5760405162461bcd60e51b8152600401610c0590613e5a565b600081116120dd5760405162461bcd60e51b8152600401610c0590613edc565b60078190556040518181527f2798e3e1182686cc8c0b7a83111d6b75177944986ce1ee977b9d8fe6fd8b173090602001610c92565b6000838152601e6020526040902080546060919080851061223f5781805480602002602001604051908101604052809291908181526020016000905b8282101561223257600084815260209081902060408051606081019091526003850290910180546001600160a01b03168252600181018054929391929184019161219790613d07565b80601f01602080910402602001604051908101604052809291908181526020018280546121c390613d07565b80156122105780601f106121e557610100808354040283529160200191612210565b820191906000526020600020905b8154815290600101906020018083116121f357829003601f168201915b505050505081526020016002820154815250508152602001906001019061214e565b5050505092505050612401565b600061224b8587613f1c565b9050818111156122585750805b60006122648783613f9b565b905060008167ffffffffffffffff811115612281576122816137bb565b6040519080825280602002602001820160405280156122df57816020015b6122cc604051806060016040528060006001600160a01b0316815260200160608152602001600081525090565b81526020019060019003908161229f5790505b50905060005b828110156123f957856122f8828b613f1c565b8154811061230857612308613fc5565b6000918252602091829020604080516060810190915260039092020180546001600160a01b03168252600181018054929391929184019161234890613d07565b80601f016020809104026020016040519081016040528092919081815260200182805461237490613d07565b80156123c15780601f10612396576101008083540402835291602001916123c1565b820191906000526020600020905b8154815290600101906020018083116123a457829003601f168201915b505050505081526020016002820154815250508282815181106123e6576123e6613fc5565b60209081029190910101526001016122e5565b509450505050505b9392505050565b6060601e6000838152602001908152602001600020805480602002602001604051908101604052809291908181526020016000905b8282101561252157600084815260209081902060408051606081019091526003850290910180546001600160a01b03168252600181018054929391929184019161248690613d07565b80601f01602080910402602001604051908101604052809291908181526020018280546124b290613d07565b80156124ff5780601f106124d4576101008083540402835291602001916124ff565b820191906000526020600020905b8154815290600101906020018083116124e257829003601f168201915b505050505081526020016002820154815250508152602001906001019061243d565b505050509050919050565b601a60205260009081526040902080546001820180546001600160a01b03909216929161255890613d07565b80601f016020809104026020016040519081016040528092919081815260200182805461258490613d07565b80156125d15780601f106125a6576101008083540402835291602001916125d1565b820191906000526020600020905b8154815290600101906020018083116125b457829003601f168201915b50505060028401546003850154600486015460058701546006880154600789015460088a015460098b0154600a909b0154999a9699959850939650919460ff909116939192916001600160a01b0391821691168b565b6001546001600160a01b031633146126515760405162461bcd60e51b8152600401610c0590613e5a565b600081116126715760405162461bcd60e51b8152600401610c0590613edc565b60088190556040518181527fc505b986f5db5ef526ead4a4af7cc6a60cc9f75b3bdeb19be8ee74fcea14f34990602001610c92565b6000828152601a602052604090205482906001600160a01b03166126dc5760405162461bcd60e51b8152600401610c0590613e82565b60408051606081018252338152602080820185815242838501526000878152601e835293842080546001808201835591865292909420835160039093020180546001600160a01b0319166001600160a01b0390931692909217825551919283929082019061274a9082613d88565b50604082015181600201555050336001600160a01b0316847fcc2d7dd2085ae6644799a42c0174adf9afc10a43f26db5eac3ddd1f96d1d64be856040516127919190613e47565b60405180910390a350505050565b6000828152601a602052604090205482906001600160a01b031633146127d75760405162461bcd60e51b8152600401610c0590613e5a565b6000838152601a6020526040902060060154839060ff161561282d5760405162461bcd60e51b815260206004820152600f60248201526e139bdd08185b881bdc9a59da5b985b608a1b6044820152606401610c05565b60008311801561283f57506005548311155b61287b5760405162461bcd60e51b815260206004820152600d60248201526c496e76616c696420707269636560981b6044820152606401610c05565b6000848152601a6020526040908190206004018490555184907f2e1c9e000c6e8dda4d03536adb13b7cb6034ccff90d17f01de381e4d5097b52590610edc9086815260200190565b6001546001600160a01b031633146128ed5760405162461bcd60e51b8152600401610c0590613e5a565b6001600160a01b0381166129355760405162461bcd60e51b815260206004820152600f60248201526e496e76616c6964206164647265737360881b6044820152606401610c05565b600280546001600160a01b0319166001600160a01b0392909216919091179055565b601e602052816000526040600020818154811061297357600080fd5b6000918252602090912060039091020180546001820180546001600160a01b0390921694509192506129a490613d07565b80601f01602080910402602001604051908101604052809291908181526020018280546129d090613d07565b8015612a1d5780601f106129f257610100808354040283529160200191612a1d565b820191906000526020600020905b815481529060010190602001808311612a0057829003601f168201915b5050505050908060020154905083565b600080612a38611742565b90506000816018546c0c9f2c9cd04674edea40000000612a589190613fae565b6124019190613fdb565b600260005403612a8557604051633ee5aeb560e01b815260040160405180910390fd5b6002600055565b6000828152601a60205260409020546001600160a01b0316612ae95760405162461bcd60e51b815260206004820152601660248201527513dc9a59da5b985b08191bd95cdb89dd08195e1a5cdd60521b6044820152606401610c05565b6000828152601a602052604090206006015460ff1615612b445760405162461bcd60e51b815260206004820152601660248201527510d85b9b9bdd0819985b9b9a5d08184819985b9b9a5d60521b6044820152606401610c05565b6001600160a01b03811660009081526020808052604080832085845290915290205460ff1615612bb65760405162461bcd60e51b815260206004820152601b60248201527f416c72656164792066616e6e69746564207468697320766964656f00000000006044820152606401610c05565b6001600160a01b0381166000908152602260209081526040808320858452909152902054610de25760405162461bcd60e51b815260206004820181905260248201527f4d757374206f776e206f726967696e616c206d696e7420746f2066616e6e69746044820152606401610c05565b6000828152601a60205260408120600454909190612c45906001613f1c565b60408051610160810190915283546001600160a01b031681526001840180549293509091602083019190612c7890613d07565b80601f0160208091040260200160405190810160405280929190818152602001828054612ca490613d07565b8015612cf15780601f10612cc657610100808354040283529160200191612cf1565b820191906000526020600020905b815481529060010190602001808311612cd457829003601f168201915b50505091835250506000602082018190526007546040830152600485015460608301526080820152600160a0820152600684015460c09091019060ff16612d385785612d3e565b83600701545b8152602081018690526001600160a01b0385166040820152600684015460609091019060ff16612d6f576000612d7e565b60098401546001600160a01b03165b6001600160a01b039081169091526000838152601a60209081526040909120835181546001600160a01b03191693169290921782558201516001820190612dc59082613d88565b506040828101516002830155606083015160038301556080830151600483015560a0830151600583015560c083015160068301805491151560ff1992831617905560e0840151600784015561010084015160088401556101208401516009840180546001600160a01b039283166001600160a01b03199182161790915561014090950151600a909401805494821694909516939093179093556000878152601f6020908152828220805460018181018355918452828420018790559388168083528180528383208a84529091528282208054909516909317909355519091839187917f8421731d7369d08928a27f198cd9451536c0fb52a9abcfde821c14c7166af31691a450505050565b81600003612edd57505050565b6000836001600160a01b03168360405160006040518083038185875af1925050503d8060008114612f2a576040519150601f19603f3d011682016040523d82523d6000602084013e612f2f565b606091505b50509050808290612f535760405162461bcd60e51b8152600401610c059190613e47565b5050505050565b60008211612fa05760405162461bcd60e51b8152602060048201526013602482015272496e76616c6964204d696e74204c696d69742160681b6044820152606401610c05565b600654821115612fe85760405162461bcd60e51b815260206004820152601360248201527209ad2dce840d8d2dad2e840e8dede40d0d2ced606b1b6044820152606401610c05565b6000811161302e5760405162461bcd60e51b81526020600482015260136024820152724d696e7420707269636520746f6f206c6f772160681b6044820152606401610c05565b6005548111156130765760405162461bcd60e51b815260206004820152601360248201527209ad2dce840e0e4d2c6ca40e8dede40d0d2ced606b1b6044820152606401610c05565b6000836040516020016130899190613ffd565b60408051601f19818403018152918152815160209283012060008181526021909352912054909150156130f55760405162461bcd60e51b8152602060048201526014602482015273566964656f20616c72656164792065786973747360601b6044820152606401610c05565b50505050565b6004805490600061310b83613f03565b909155505060045460408051610160810182526001600160a01b03848116825260208083018981526000848601819052606085018a90526080850189905260a0850181905260c0850181905260e08501879052610100850187905261012085018190526101408501819052868152601a909252939020825181546001600160a01b0319169216919091178155915190919060018201906131ab9082613d88565b506040828101516002830155606083015160038301556080830151600483015560a0830151600583015560c083015160068301805460ff191691151591909117905560e0830151600783015561010083015160088301556101208301516009830180546001600160a01b03199081166001600160a01b039384161790915561014090940151600a909301805490941692169190911790915551600090613255908790602001613ffd565b60408051601f1981840301815291815281516020928301206000818152602184528281208690556001600160a01b0387168152601b909352912080549192509061329e90613d07565b1590506132d9576001600160a01b0383166000908152601b6020526040812060019081018054919290916132d3908490613f1c565b90915550505b826001600160a01b0316827f9251c0179a4c52974f73725b6306be29cf241f0f6bfd43f3a8d01a79a5ddfa5388888860405161331793929190614019565b60405180910390a3505050505050565b6000828152601a60205260408120600681015460ff848116151591161515146133855760405162461bcd60e51b815260206004820152601060248201526f57726f6e6720766964656f207479706560801b6044820152606401610c05565b80600301548160020154106133c75760405162461bcd60e51b815260206004820152600860248201526714dbdb19081bdd5d60c21b6044820152606401610c05565b6040805160a080820183526009548252600a54602080840191909152600b5483850152600c54606080850191909152600d5460808086019190915285518085018752600e548152600f54818501526010548188015260115481840152601254818301528651948501875260135485526014549385019390935260155495840195909552601654908301526017549382019390935260009283928392839290838060ff8c16810361348e5750835160808501518a5491995097506001600160a01b03166134d9565b8b60ff166001036134b157835160808501516040860151919a50985096506134d9565b8b60ff166002036134d957826000015198508260800151975082604001519650826060015195505b60646134e58984613fae565b6134ef9190613fdb565b6134f99083613f9b565b34101561353e5760405162461bcd60e51b8152602060048201526013602482015272496e73756666696369656e742066756e64732160681b6044820152606401610c05565b8954613554906001600160a01b0316838b613770565b861561357357600a8a0154613573906001600160a01b03168388613770565b86156135925760098a0154613592906001600160a01b03168389613770565b60028a0180549060006135a483613f03565b919050555060226000336001600160a01b03166001600160a01b0316815260200190815260200160002060008e815260200190815260200160002060008154809291906135f090613f03565b9091555060019e9d5050505050505050505050505050565b6000818152601a602090815260408083208151610160810190925280546001600160a01b0316825260018101805485948401919061364590613d07565b80601f016020809104026020016040519081016040528092919081815260200182805461367190613d07565b80156136be5780601f10613693576101008083540402835291602001916136be565b820191906000526020600020905b8154815290600101906020018083116136a157829003601f168201915b505050918352505060028201546020820152600382015460408201526004820154606082015260058201546080820152600682015460ff16151560a0820152600782015460c080830191909152600883015460e083015260098301546001600160a01b03908116610100840152600a909301549092166101209091015281015190915061374e5750600092915050565b8060e00151816101000151036137675750600192915050565b50600292915050565b6000606461377e8385613fae565b6137889190613fdb565b90506130f584826040518060400160405280600e81526020016d14185e5b595b9d0819985a5b195960921b815250612ed0565b634e487b7160e01b600052604160045260246000fd5b600082601f8301126137e257600080fd5b813567ffffffffffffffff8111156137fc576137fc6137bb565b604051601f8201601f19908116603f0116810167ffffffffffffffff8111828210171561382b5761382b6137bb565b60405281815283820160200185101561384357600080fd5b816020850160208301376000918101602001919091529392505050565b60006020828403121561387257600080fd5b813567ffffffffffffffff81111561388957600080fd5b613895848285016137d1565b949350505050565b6000602082840312156138af57600080fd5b5035919050565b600080604083850312156138c957600080fd5b50508035926020909101359150565b80356001600160a01b0381168114611df357600080fd5b60006020828403121561390157600080fd5b612401826138d8565b602080825282518282018190526000918401906040840190835b81811015613942578351835260209384019390920191600101613924565b509095945050505050565b803560ff81168114611df357600080fd5b60008060008060008060c0878903121561397757600080fd5b6139808761394d565b9860208801359850604088013597606081013597506080810135965060a00135945092505050565b600080604083850312156139bb57600080fd5b823591506139cb602084016138d8565b90509250929050565b6000806000606084860312156139e957600080fd5b833567ffffffffffffffff811115613a0057600080fd5b613a0c868287016137d1565b9660208601359650604090950135949350505050565b60005b83811015613a3d578181015183820152602001613a25565b50506000910152565b60008151808452613a5e816020860160208601613a22565b601f01601f19169290920160200192915050565b608081526000613a856080830187613a46565b6020830195909552506040810192909252606090910152919050565b600060208284031215613ab357600080fd5b6124018261394d565b60008060408385031215613acf57600080fd5b613ad8836138d8565b91506139cb602084016138d8565b60008060408385031215613af957600080fd5b613b02836138d8565b946020939093013593505050565b602081526000825160806020840152613b2c60a0840182613a46565b90506020840151604084015260408401516060840152606084015160808401528091505092915050565b600080600060608486031215613b6b57600080fd5b505081359360208301359350604090920135919050565b6000602082016020835280845180835260408501915060408160051b86010192506020860160005b82811015613c0857868503603f19018452815180516001600160a01b03168652602080820151606091880182905290613be590880182613a46565b604092830151979092019690965294506020938401939190910190600101613baa565b50929695505050505050565b6001600160a01b038c16815261016060208201819052600090613c399083018d613a46565b604083019b909b52506060810198909852608088019690965260a087019490945291151560c086015260e08501526101008401526001600160a01b03908116610120840152166101409091015292915050565b60008060408385031215613c9f57600080fd5b82359150602083013567ffffffffffffffff811115613cbd57600080fd5b613cc9858286016137d1565b9150509250929050565b6001600160a01b0384168152606060208201819052600090613cf790830185613a46565b9050826040830152949350505050565b600181811c90821680613d1b57607f821691505b602082108103613d3b57634e487b7160e01b600052602260045260246000fd5b50919050565b601f8211156118f957806000526020600020601f840160051c81016020851015613d685750805b601f840160051c820191505b81811015612f535760008155600101613d74565b815167ffffffffffffffff811115613da257613da26137bb565b613db681613db08454613d07565b84613d41565b6020601f821160018114613dea5760008315613dd25750848201515b600019600385901b1c1916600184901b178455612f53565b600084815260208120601f198516915b82811015613e1a5787850151825560209485019460019092019101613dfa565b5084821015613e385786840151600019600387901b60f8161c191681555b50505050600190811b01905550565b6020815260006124016020830184613a46565b6020808252600e908201526d139bdd08185d5d1a1bdc9a5e995960921b604082015260600190565b602080825260139082015272159a59195bc8191bd95cdb89dd08195e1a5cdd606a1b604082015260600190565b634e487b7160e01b600052601160045260246000fd5b600081613ed457613ed4613eaf565b506000190190565b6020808252600d908201526c125b9d985b1a59081b1a5b5a5d609a1b604082015260600190565b600060018201613f1557613f15613eaf565b5060010190565b808201808211156114a1576114a1613eaf565b805169ffffffffffffffffffff81168114611df357600080fd5b600080600080600060a08688031215613f6157600080fd5b613f6a86613f2f565b60208701516040880151606089015192975090955093509150613f8f60808701613f2f565b90509295509295909350565b818103818111156114a1576114a1613eaf565b80820281158282048414176114a1576114a1613eaf565b634e487b7160e01b600052603260045260246000fd5b600082613ff857634e487b7160e01b600052601260045260246000fd5b500490565b6000825161400f818460208701613a22565b9190910192915050565b60608152600061402c6060830186613a46565b6020830194909452506040015291905056fea2646970667358221220860feb891f23739780445fea7657ccc95d76eaaf5d7a0583eadc1e30455b0c0c64736f6c634300081c0033",
          "opcodes": "PUSH1 0x0 PUSH1 0x4 DUP2 SWAP1 SSTORE PUSH8 0xDE0B6B3A7640000 PUSH1 0x5 SSTORE PUSH3 0xF423F PUSH1 0x6 SSTORE PUSH1 0xA PUSH1 0x7 DUP2 SWAP1 SSTORE PUSH1 0x8 DUP2 SWAP1 SSTORE PUSH1 0x3C PUSH1 0x80 DUP2 SWAP1 MSTORE PUSH1 0x1E PUSH1 0xA0 DUP2 SWAP1 MSTORE PUSH1 0xC0 DUP5 SWAP1 MSTORE PUSH1 0xE0 DUP5 SWAP1 MSTORE PUSH2 0x100 DUP4 SWAP1 MSTORE PUSH1 0x9 DUP3 SWAP1 SSTORE DUP3 SSTORE PUSH1 0xB DUP4 SWAP1 SSTORE PUSH1 0xC DUP4 SWAP1 SSTORE PUSH1 0xD DUP3 SWAP1 SSTORE PUSH2 0x120 DUP2 SWAP1 MSTORE PUSH1 0x14 PUSH2 0x140 DUP2 SWAP1 MSTORE PUSH2 0x160 DUP4 SWAP1 MSTORE PUSH2 0x180 DUP5 SWAP1 MSTORE PUSH2 0x1A0 DUP4 SWAP1 MSTORE PUSH1 0xE SWAP2 SWAP1 SWAP2 SSTORE PUSH1 0xF DUP2 SWAP1 SSTORE PUSH1 0x10 DUP3 SWAP1 SSTORE PUSH1 0x11 SWAP3 SWAP1 SWAP3 SSTORE PUSH1 0x12 DUP2 SWAP1 SSTORE PUSH2 0x260 PUSH1 0x40 MSTORE PUSH1 0x32 PUSH2 0x1C0 DUP2 SWAP1 MSTORE PUSH2 0x1E0 DUP4 SWAP1 MSTORE PUSH2 0x200 DUP3 SWAP1 MSTORE PUSH2 0x220 DUP3 SWAP1 MSTORE PUSH2 0x240 DUP3 SWAP1 MSTORE PUSH1 0x13 SSTORE SWAP1 DUP1 SSTORE PUSH1 0x15 DUP2 SWAP1 SSTORE PUSH1 0x16 DUP2 SWAP1 SSTORE PUSH1 0x17 SSTORE CALLVALUE DUP1 ISZERO PUSH2 0xD9 JUMPI PUSH1 0x0 DUP1 REVERT JUMPDEST POP PUSH1 0x1 PUSH1 0x0 DUP2 SWAP1 SSTORE DUP1 SLOAD CALLER PUSH1 0x1 PUSH1 0x1 PUSH1 0xA0 SHL SUB NOT SWAP2 DUP3 AND DUP2 OR SWAP1 SWAP3 SSTORE PUSH1 0x3 DUP1 SLOAD SWAP1 SWAP2 AND SWAP1 SWAP2 OR SWAP1 SSTORE PUSH2 0x110 PUSH1 0x64 PUSH4 0x42C1D80 PUSH2 0x13E JUMP JUMPDEST PUSH1 0x18 SSTORE PUSH1 0x19 DUP1 SLOAD PUSH1 0x1 PUSH1 0x1 PUSH1 0xA0 SHL SUB NOT AND PUSH20 0x4ADC67696BA383F43DD60A9E78F2C97FBBFC7CB1 OR SWAP1 SSTORE PUSH2 0x160 JUMP JUMPDEST PUSH1 0x0 DUP3 PUSH2 0x15B JUMPI PUSH4 0x4E487B71 PUSH1 0xE0 SHL PUSH1 0x0 MSTORE PUSH1 0x12 PUSH1 0x4 MSTORE PUSH1 0x24 PUSH1 0x0 REVERT JUMPDEST POP DIV SWAP1 JUMP JUMPDEST PUSH2 0x4074 DUP1 PUSH2 0x16F PUSH1 0x0 CODECOPY PUSH1 0x0 RETURN INVALID PUSH1 0x80 PUSH1 0x40 MSTORE PUSH1 0x4 CALLDATASIZE LT PUSH2 0x325 JUMPI PUSH1 0x0 CALLDATALOAD PUSH1 0xE0 SHR DUP1 PUSH4 0x7CE2A824 GT PUSH2 0x1AE JUMPI DUP1 PUSH4 0xCBF1304D GT PUSH2 0xEB JUMPI DUP1 PUSH4 0xE6F477EF GT PUSH2 0x8F JUMPI DUP1 PUSH4 0xEF08523B GT PUSH2 0x6C JUMPI DUP1 PUSH4 0xEF08523B EQ PUSH2 0xA6B JUMPI DUP1 PUSH4 0xF1F2C58D EQ PUSH2 0xA81 JUMPI DUP1 PUSH4 0xF2FDE38B EQ PUSH2 0xA96 JUMPI DUP1 PUSH4 0xFC6C776F EQ PUSH2 0xAB6 JUMPI STOP JUMPDEST DUP1 PUSH4 0xE6F477EF EQ PUSH2 0xA0B JUMPI DUP1 PUSH4 0xE8ED1653 EQ PUSH2 0xA2B JUMPI DUP1 PUSH4 0xEC9CA258 EQ PUSH2 0xA4B JUMPI STOP JUMPDEST DUP1 PUSH4 0xD5CAAFA1 GT PUSH2 0xC8 JUMPI DUP1 PUSH4 0xD5CAAFA1 EQ PUSH2 0x967 JUMPI DUP1 PUSH4 0xDAF6160C EQ PUSH2 0x994 JUMPI DUP1 PUSH4 0xE30C3978 EQ PUSH2 0x9B4 JUMPI DUP1 PUSH4 0xE6821BF5 EQ PUSH2 0x9D4 JUMPI STOP JUMPDEST DUP1 PUSH4 0xCBF1304D EQ PUSH2 0x8C7 JUMPI DUP1 PUSH4 0xCE9AE001 EQ PUSH2 0x8FF JUMPI DUP1 PUSH4 0xD2825AF3 EQ PUSH2 0x93A JUMPI STOP JUMPDEST DUP1 PUSH4 0x9B40E6EC GT PUSH2 0x152 JUMPI DUP1 PUSH4 0xBEB08AB9 GT PUSH2 0x12F JUMPI DUP1 PUSH4 0xBEB08AB9 EQ PUSH2 0x839 JUMPI DUP1 PUSH4 0xC0A19963 EQ PUSH2 0x859 JUMPI DUP1 PUSH4 0xC99FDA34 EQ PUSH2 0x894 JUMPI DUP1 PUSH4 0xCBDF753B EQ PUSH2 0x8A7 JUMPI STOP JUMPDEST DUP1 PUSH4 0x9B40E6EC EQ PUSH2 0x7B3 JUMPI DUP1 PUSH4 0x9E39E58D EQ PUSH2 0x7EC JUMPI DUP1 PUSH4 0xA5B6F941 EQ PUSH2 0x819 JUMPI STOP JUMPDEST DUP1 PUSH4 0x933166E1 GT PUSH2 0x18B JUMPI DUP1 PUSH4 0x933166E1 EQ PUSH2 0x6C2 JUMPI DUP1 PUSH4 0x958A9B72 EQ PUSH2 0x6F2 JUMPI DUP1 PUSH4 0x996517CF EQ PUSH2 0x754 JUMPI DUP1 PUSH4 0x99EC3A42 EQ PUSH2 0x76A JUMPI STOP JUMPDEST DUP1 PUSH4 0x7CE2A824 EQ PUSH2 0x657 JUMPI DUP1 PUSH4 0x8A780447 EQ PUSH2 0x66A JUMPI DUP1 PUSH4 0x8DA5CB5B EQ PUSH2 0x68A JUMPI STOP JUMPDEST DUP1 PUSH4 0x27260D5C GT PUSH2 0x27C JUMPI DUP1 PUSH4 0x587520FA GT PUSH2 0x220 JUMPI DUP1 PUSH4 0x67C9B017 GT PUSH2 0x1FD JUMPI DUP1 PUSH4 0x67C9B017 EQ PUSH2 0x5FA JUMPI DUP1 PUSH4 0x6976C192 EQ PUSH2 0x60F JUMPI DUP1 PUSH4 0x69FE0E2D EQ PUSH2 0x622 JUMPI DUP1 PUSH4 0x79BA5097 EQ PUSH2 0x642 JUMPI STOP JUMPDEST DUP1 PUSH4 0x587520FA EQ PUSH2 0x5A4 JUMPI DUP1 PUSH4 0x64DB36D4 EQ PUSH2 0x5D1 JUMPI DUP1 PUSH4 0x65C4E4AA EQ PUSH2 0x5E7 JUMPI STOP JUMPDEST DUP1 PUSH4 0x3CCFD60B GT PUSH2 0x259 JUMPI DUP1 PUSH4 0x3CCFD60B EQ PUSH2 0x506 JUMPI DUP1 PUSH4 0x46A094D2 EQ PUSH2 0x51B JUMPI DUP1 PUSH4 0x4D90BC37 EQ PUSH2 0x54B JUMPI DUP1 PUSH4 0x55E6A806 EQ PUSH2 0x56B JUMPI STOP JUMPDEST DUP1 PUSH4 0x27260D5C EQ PUSH2 0x4B0 JUMPI DUP1 PUSH4 0x2C8739D6 EQ PUSH2 0x4D0 JUMPI DUP1 PUSH4 0x32CB9EEA EQ PUSH2 0x4F0 JUMPI STOP JUMPDEST DUP1 PUSH4 0x11ABD324 GT PUSH2 0x2E3 JUMPI DUP1 PUSH4 0x150F885E GT PUSH2 0x2C0 JUMPI DUP1 PUSH4 0x150F885E EQ PUSH2 0x423 JUMPI DUP1 PUSH4 0x18196191 EQ PUSH2 0x443 JUMPI DUP1 PUSH4 0x1C0081A3 EQ PUSH2 0x463 JUMPI DUP1 PUSH4 0x25D9C71B EQ PUSH2 0x490 JUMPI STOP JUMPDEST DUP1 PUSH4 0x11ABD324 EQ PUSH2 0x3DA JUMPI DUP1 PUSH4 0x12065FE0 EQ PUSH2 0x3FA JUMPI DUP1 PUSH4 0x136F5CDD EQ PUSH2 0x40D JUMPI STOP JUMPDEST DUP1 PUSH3 0x9299E3 EQ PUSH2 0x327 JUMPI DUP1 PUSH4 0x327B655 EQ PUSH2 0x347 JUMPI DUP1 PUSH4 0x8796FDA EQ PUSH2 0x370 JUMPI DUP1 PUSH4 0x8D5C327 EQ PUSH2 0x385 JUMPI DUP1 PUSH4 0x9897097 EQ PUSH2 0x39A JUMPI DUP1 PUSH4 0xE8437E0 EQ PUSH2 0x3BA JUMPI JUMPDEST STOP JUMPDEST CALLVALUE DUP1 ISZERO PUSH2 0x333 JUMPI PUSH1 0x0 DUP1 REVERT JUMPDEST POP PUSH2 0x325 PUSH2 0x342 CALLDATASIZE PUSH1 0x4 PUSH2 0x3860 JUMP JUMPDEST PUSH2 0xAE5 JUMP JUMPDEST CALLVALUE DUP1 ISZERO PUSH2 0x353 JUMPI PUSH1 0x0 DUP1 REVERT JUMPDEST POP PUSH2 0x35D PUSH1 0x7 SLOAD DUP2 JUMP JUMPDEST PUSH1 0x40 MLOAD SWAP1 DUP2 MSTORE PUSH1 0x20 ADD JUMPDEST PUSH1 0x40 MLOAD DUP1 SWAP2 SUB SWAP1 RETURN JUMPDEST CALLVALUE DUP1 ISZERO PUSH2 0x37C JUMPI PUSH1 0x0 DUP1 REVERT JUMPDEST POP PUSH2 0x35D PUSH1 0x64 DUP2 JUMP JUMPDEST CALLVALUE DUP1 ISZERO PUSH2 0x391 JUMPI PUSH1 0x0 DUP1 REVERT JUMPDEST POP PUSH2 0x35D PUSH2 0xBCC JUMP JUMPDEST CALLVALUE DUP1 ISZERO PUSH2 0x3A6 JUMPI PUSH1 0x0 DUP1 REVERT JUMPDEST POP PUSH2 0x325 PUSH2 0x3B5 CALLDATASIZE PUSH1 0x4 PUSH2 0x389D JUMP JUMPDEST PUSH2 0xBDB JUMP JUMPDEST CALLVALUE DUP1 ISZERO PUSH2 0x3C6 JUMPI PUSH1 0x0 DUP1 REVERT JUMPDEST POP PUSH2 0x35D PUSH2 0x3D5 CALLDATASIZE PUSH1 0x4 PUSH2 0x38B6 JUMP JUMPDEST PUSH2 0xC9D JUMP JUMPDEST CALLVALUE DUP1 ISZERO PUSH2 0x3E6 JUMPI PUSH1 0x0 DUP1 REVERT JUMPDEST POP PUSH2 0x325 PUSH2 0x3F5 CALLDATASIZE PUSH1 0x4 PUSH2 0x389D JUMP JUMPDEST PUSH2 0xCCE JUMP JUMPDEST CALLVALUE DUP1 ISZERO PUSH2 0x406 JUMPI PUSH1 0x0 DUP1 REVERT JUMPDEST POP SELFBALANCE PUSH2 0x35D JUMP JUMPDEST CALLVALUE DUP1 ISZERO PUSH2 0x419 JUMPI PUSH1 0x0 DUP1 REVERT JUMPDEST POP PUSH2 0x35D PUSH1 0x18 SLOAD DUP2 JUMP JUMPDEST CALLVALUE DUP1 ISZERO PUSH2 0x42F JUMPI PUSH1 0x0 DUP1 REVERT JUMPDEST POP PUSH2 0x325 PUSH2 0x43E CALLDATASIZE PUSH1 0x4 PUSH2 0x38B6 JUMP JUMPDEST PUSH2 0xDE6 JUMP JUMPDEST CALLVALUE DUP1 ISZERO PUSH2 0x44F JUMPI PUSH1 0x0 DUP1 REVERT JUMPDEST POP PUSH2 0x325 PUSH2 0x45E CALLDATASIZE PUSH1 0x4 PUSH2 0x38EF JUMP JUMPDEST PUSH2 0xEEA JUMP JUMPDEST CALLVALUE DUP1 ISZERO PUSH2 0x46F JUMPI PUSH1 0x0 DUP1 REVERT JUMPDEST POP PUSH2 0x483 PUSH2 0x47E CALLDATASIZE PUSH1 0x4 PUSH2 0x389D JUMP JUMPDEST PUSH2 0xFE6 JUMP JUMPDEST PUSH1 0x40 MLOAD PUSH2 0x367 SWAP2 SWAP1 PUSH2 0x390A JUMP JUMPDEST CALLVALUE DUP1 ISZERO PUSH2 0x49C JUMPI PUSH1 0x0 DUP1 REVERT JUMPDEST POP PUSH2 0x325 PUSH2 0x4AB CALLDATASIZE PUSH1 0x4 PUSH2 0x389D JUMP JUMPDEST PUSH2 0x1048 JUMP JUMPDEST CALLVALUE DUP1 ISZERO PUSH2 0x4BC JUMPI PUSH1 0x0 DUP1 REVERT JUMPDEST POP PUSH2 0x325 PUSH2 0x4CB CALLDATASIZE PUSH1 0x4 PUSH2 0x389D JUMP JUMPDEST PUSH2 0x106E JUMP JUMPDEST CALLVALUE DUP1 ISZERO PUSH2 0x4DC JUMPI PUSH1 0x0 DUP1 REVERT JUMPDEST POP PUSH2 0x325 PUSH2 0x4EB CALLDATASIZE PUSH1 0x4 PUSH2 0x395E JUMP JUMPDEST PUSH2 0x1186 JUMP JUMPDEST CALLVALUE DUP1 ISZERO PUSH2 0x4FC JUMPI PUSH1 0x0 DUP1 REVERT JUMPDEST POP PUSH2 0x35D PUSH1 0x5 SLOAD DUP2 JUMP JUMPDEST CALLVALUE DUP1 ISZERO PUSH2 0x512 JUMPI PUSH1 0x0 DUP1 REVERT JUMPDEST POP PUSH2 0x325 PUSH2 0x140E JUMP JUMPDEST CALLVALUE DUP1 ISZERO PUSH2 0x527 JUMPI PUSH1 0x0 DUP1 REVERT JUMPDEST POP PUSH2 0x53B PUSH2 0x536 CALLDATASIZE PUSH1 0x4 PUSH2 0x39A8 JUMP JUMPDEST PUSH2 0x147A JUMP JUMPDEST PUSH1 0x40 MLOAD SWAP1 ISZERO ISZERO DUP2 MSTORE PUSH1 0x20 ADD PUSH2 0x367 JUMP JUMPDEST CALLVALUE DUP1 ISZERO PUSH2 0x557 JUMPI PUSH1 0x0 DUP1 REVERT JUMPDEST POP PUSH2 0x325 PUSH2 0x566 CALLDATASIZE PUSH1 0x4 PUSH2 0x38EF JUMP JUMPDEST PUSH2 0x14A7 JUMP JUMPDEST CALLVALUE DUP1 ISZERO PUSH2 0x577 JUMPI PUSH1 0x0 DUP1 REVERT JUMPDEST POP PUSH2 0x35D PUSH2 0x586 CALLDATASIZE PUSH1 0x4 PUSH2 0x38EF JUMP JUMPDEST PUSH1 0x1 PUSH1 0x1 PUSH1 0xA0 SHL SUB AND PUSH1 0x0 SWAP1 DUP2 MSTORE PUSH1 0x1B PUSH1 0x20 MSTORE PUSH1 0x40 SWAP1 KECCAK256 PUSH1 0x2 ADD SLOAD SWAP1 JUMP JUMPDEST CALLVALUE DUP1 ISZERO PUSH2 0x5B0 JUMPI PUSH1 0x0 DUP1 REVERT JUMPDEST POP PUSH2 0x35D PUSH2 0x5BF CALLDATASIZE PUSH1 0x4 PUSH2 0x389D JUMP JUMPDEST PUSH1 0x0 SWAP1 DUP2 MSTORE PUSH1 0x1E PUSH1 0x20 MSTORE PUSH1 0x40 SWAP1 KECCAK256 SLOAD SWAP1 JUMP JUMPDEST CALLVALUE DUP1 ISZERO PUSH2 0x5DD JUMPI PUSH1 0x0 DUP1 REVERT JUMPDEST POP PUSH2 0x35D PUSH1 0x8 SLOAD DUP2 JUMP JUMPDEST PUSH2 0x325 PUSH2 0x5F5 CALLDATASIZE PUSH1 0x4 PUSH2 0x38EF JUMP JUMPDEST PUSH2 0x15ED JUMP JUMPDEST CALLVALUE DUP1 ISZERO PUSH2 0x606 JUMPI PUSH1 0x0 DUP1 REVERT JUMPDEST POP PUSH2 0x35D PUSH2 0x1742 JUMP JUMPDEST PUSH2 0x325 PUSH2 0x61D CALLDATASIZE PUSH1 0x4 PUSH2 0x39D4 JUMP JUMPDEST PUSH2 0x1873 JUMP JUMPDEST CALLVALUE DUP1 ISZERO PUSH2 0x62E JUMPI PUSH1 0x0 DUP1 REVERT JUMPDEST POP PUSH2 0x325 PUSH2 0x63D CALLDATASIZE PUSH1 0x4 PUSH2 0x389D JUMP JUMPDEST PUSH2 0x18FE JUMP JUMPDEST CALLVALUE DUP1 ISZERO PUSH2 0x64E JUMPI PUSH1 0x0 DUP1 REVERT JUMPDEST POP PUSH2 0x325 PUSH2 0x19A2 JUMP JUMPDEST PUSH2 0x325 PUSH2 0x665 CALLDATASIZE PUSH1 0x4 PUSH2 0x389D JUMP JUMPDEST PUSH2 0x1A27 JUMP JUMPDEST CALLVALUE DUP1 ISZERO PUSH2 0x676 JUMPI PUSH1 0x0 DUP1 REVERT JUMPDEST POP PUSH2 0x325 PUSH2 0x685 CALLDATASIZE PUSH1 0x4 PUSH2 0x38EF JUMP JUMPDEST PUSH2 0x1B57 JUMP JUMPDEST CALLVALUE DUP1 ISZERO PUSH2 0x696 JUMPI PUSH1 0x0 DUP1 REVERT JUMPDEST POP PUSH1 0x1 SLOAD PUSH2 0x6AA SWAP1 PUSH1 0x1 PUSH1 0x1 PUSH1 0xA0 SHL SUB AND DUP2 JUMP JUMPDEST PUSH1 0x40 MLOAD PUSH1 0x1 PUSH1 0x1 PUSH1 0xA0 SHL SUB SWAP1 SWAP2 AND DUP2 MSTORE PUSH1 0x20 ADD PUSH2 0x367 JUMP JUMPDEST CALLVALUE DUP1 ISZERO PUSH2 0x6CE JUMPI PUSH1 0x0 DUP1 REVERT JUMPDEST POP PUSH2 0x6E2 PUSH2 0x6DD CALLDATASIZE PUSH1 0x4 PUSH2 0x38EF JUMP JUMPDEST PUSH2 0x1C17 JUMP JUMPDEST PUSH1 0x40 MLOAD PUSH2 0x367 SWAP5 SWAP4 SWAP3 SWAP2 SWAP1 PUSH2 0x3A72 JUMP JUMPDEST CALLVALUE DUP1 ISZERO PUSH2 0x6FE JUMPI PUSH1 0x0 DUP1 REVERT JUMPDEST POP PUSH2 0x712 PUSH2 0x70D CALLDATASIZE PUSH1 0x4 PUSH2 0x3AA1 JUMP JUMPDEST PUSH2 0x1CC7 JUMP JUMPDEST PUSH1 0x40 MLOAD PUSH2 0x367 SWAP2 SWAP1 PUSH1 0x0 PUSH1 0xA0 DUP3 ADD SWAP1 POP DUP3 MLOAD DUP3 MSTORE PUSH1 0x20 DUP4 ADD MLOAD PUSH1 0x20 DUP4 ADD MSTORE PUSH1 0x40 DUP4 ADD MLOAD PUSH1 0x40 DUP4 ADD MSTORE PUSH1 0x60 DUP4 ADD MLOAD PUSH1 0x60 DUP4 ADD MSTORE PUSH1 0x80 DUP4 ADD MLOAD PUSH1 0x80 DUP4 ADD MSTORE SWAP3 SWAP2 POP POP JUMP JUMPDEST CALLVALUE DUP1 ISZERO PUSH2 0x760 JUMPI PUSH1 0x0 DUP1 REVERT JUMPDEST POP PUSH2 0x35D PUSH1 0x6 SLOAD DUP2 JUMP JUMPDEST CALLVALUE DUP1 ISZERO PUSH2 0x776 JUMPI PUSH1 0x0 DUP1 REVERT JUMPDEST POP PUSH2 0x53B PUSH2 0x785 CALLDATASIZE PUSH1 0x4 PUSH2 0x3ABC JUMP JUMPDEST PUSH1 0x1 PUSH1 0x1 PUSH1 0xA0 SHL SUB SWAP2 DUP3 AND PUSH1 0x0 SWAP1 DUP2 MSTORE PUSH1 0x1C PUSH1 0x20 SWAP1 DUP2 MSTORE PUSH1 0x40 DUP1 DUP4 KECCAK256 SWAP4 SWAP1 SWAP5 AND DUP3 MSTORE SWAP2 SWAP1 SWAP2 MSTORE KECCAK256 SLOAD PUSH1 0xFF AND SWAP1 JUMP JUMPDEST CALLVALUE DUP1 ISZERO PUSH2 0x7BF JUMPI PUSH1 0x0 DUP1 REVERT JUMPDEST POP PUSH2 0x53B PUSH2 0x7CE CALLDATASIZE PUSH1 0x4 PUSH2 0x3AE6 JUMP JUMPDEST PUSH1 0x20 DUP1 DUP1 MSTORE PUSH1 0x0 SWAP3 DUP4 MSTORE PUSH1 0x40 DUP1 DUP5 KECCAK256 SWAP1 SWAP2 MSTORE SWAP1 DUP3 MSTORE SWAP1 KECCAK256 SLOAD PUSH1 0xFF AND DUP2 JUMP JUMPDEST CALLVALUE DUP1 ISZERO PUSH2 0x7F8 JUMPI PUSH1 0x0 DUP1 REVERT JUMPDEST POP PUSH2 0x80C PUSH2 0x807 CALLDATASIZE PUSH1 0x4 PUSH2 0x38EF JUMP JUMPDEST PUSH2 0x1DF8 JUMP JUMPDEST PUSH1 0x40 MLOAD PUSH2 0x367 SWAP2 SWAP1 PUSH2 0x3B10 JUMP JUMPDEST CALLVALUE DUP1 ISZERO PUSH2 0x825 JUMPI PUSH1 0x0 DUP1 REVERT JUMPDEST POP PUSH2 0x325 PUSH2 0x834 CALLDATASIZE PUSH1 0x4 PUSH2 0x389D JUMP JUMPDEST PUSH2 0x1EFC JUMP JUMPDEST CALLVALUE DUP1 ISZERO PUSH2 0x845 JUMPI PUSH1 0x0 DUP1 REVERT JUMPDEST POP PUSH1 0x3 SLOAD PUSH2 0x6AA SWAP1 PUSH1 0x1 PUSH1 0x1 PUSH1 0xA0 SHL SUB AND DUP2 JUMP JUMPDEST CALLVALUE DUP1 ISZERO PUSH2 0x865 JUMPI PUSH1 0x0 DUP1 REVERT JUMPDEST POP PUSH2 0x53B PUSH2 0x874 CALLDATASIZE PUSH1 0x4 PUSH2 0x39A8 JUMP JUMPDEST PUSH1 0x1D PUSH1 0x20 SWAP1 DUP2 MSTORE PUSH1 0x0 SWAP3 DUP4 MSTORE PUSH1 0x40 DUP1 DUP5 KECCAK256 SWAP1 SWAP2 MSTORE SWAP1 DUP3 MSTORE SWAP1 KECCAK256 SLOAD PUSH1 0xFF AND DUP2 JUMP JUMPDEST PUSH2 0x325 PUSH2 0x8A2 CALLDATASIZE PUSH1 0x4 PUSH2 0x389D JUMP JUMPDEST PUSH2 0x1FAC JUMP JUMPDEST CALLVALUE DUP1 ISZERO PUSH2 0x8B3 JUMPI PUSH1 0x0 DUP1 REVERT JUMPDEST POP PUSH2 0x325 PUSH2 0x8C2 CALLDATASIZE PUSH1 0x4 PUSH2 0x389D JUMP JUMPDEST PUSH2 0x2093 JUMP JUMPDEST CALLVALUE DUP1 ISZERO PUSH2 0x8D3 JUMPI PUSH1 0x0 DUP1 REVERT JUMPDEST POP PUSH2 0x35D PUSH2 0x8E2 CALLDATASIZE PUSH1 0x4 PUSH2 0x3AE6 JUMP JUMPDEST PUSH1 0x22 PUSH1 0x20 SWAP1 DUP2 MSTORE PUSH1 0x0 SWAP3 DUP4 MSTORE PUSH1 0x40 DUP1 DUP5 KECCAK256 SWAP1 SWAP2 MSTORE SWAP1 DUP3 MSTORE SWAP1 KECCAK256 SLOAD DUP2 JUMP JUMPDEST CALLVALUE DUP1 ISZERO PUSH2 0x90B JUMPI PUSH1 0x0 DUP1 REVERT JUMPDEST POP PUSH2 0x53B PUSH2 0x91A CALLDATASIZE PUSH1 0x4 PUSH2 0x3ABC JUMP JUMPDEST PUSH1 0x1C PUSH1 0x20 SWAP1 DUP2 MSTORE PUSH1 0x0 SWAP3 DUP4 MSTORE PUSH1 0x40 DUP1 DUP5 KECCAK256 SWAP1 SWAP2 MSTORE SWAP1 DUP3 MSTORE SWAP1 KECCAK256 SLOAD PUSH1 0xFF AND DUP2 JUMP JUMPDEST CALLVALUE DUP1 ISZERO PUSH2 0x946 JUMPI PUSH1 0x0 DUP1 REVERT JUMPDEST POP PUSH2 0x95A PUSH2 0x955 CALLDATASIZE PUSH1 0x4 PUSH2 0x3B56 JUMP JUMPDEST PUSH2 0x2112 JUMP JUMPDEST PUSH1 0x40 MLOAD PUSH2 0x367 SWAP2 SWAP1 PUSH2 0x3B82 JUMP JUMPDEST CALLVALUE DUP1 ISZERO PUSH2 0x973 JUMPI PUSH1 0x0 DUP1 REVERT JUMPDEST POP PUSH2 0x35D PUSH2 0x982 CALLDATASIZE PUSH1 0x4 PUSH2 0x389D JUMP JUMPDEST PUSH1 0x21 PUSH1 0x20 MSTORE PUSH1 0x0 SWAP1 DUP2 MSTORE PUSH1 0x40 SWAP1 KECCAK256 SLOAD DUP2 JUMP JUMPDEST CALLVALUE DUP1 ISZERO PUSH2 0x9A0 JUMPI PUSH1 0x0 DUP1 REVERT JUMPDEST POP PUSH2 0x95A PUSH2 0x9AF CALLDATASIZE PUSH1 0x4 PUSH2 0x389D JUMP JUMPDEST PUSH2 0x2408 JUMP JUMPDEST CALLVALUE DUP1 ISZERO PUSH2 0x9C0 JUMPI PUSH1 0x0 DUP1 REVERT JUMPDEST POP PUSH1 0x2 SLOAD PUSH2 0x6AA SWAP1 PUSH1 0x1 PUSH1 0x1 PUSH1 0xA0 SHL SUB AND DUP2 JUMP JUMPDEST CALLVALUE DUP1 ISZERO PUSH2 0x9E0 JUMPI PUSH1 0x0 DUP1 REVERT JUMPDEST POP PUSH2 0x9F4 PUSH2 0x9EF CALLDATASIZE PUSH1 0x4 PUSH2 0x389D JUMP JUMPDEST PUSH2 0x252C JUMP JUMPDEST PUSH1 0x40 MLOAD PUSH2 0x367 SWAP12 SWAP11 SWAP10 SWAP9 SWAP8 SWAP7 SWAP6 SWAP5 SWAP4 SWAP3 SWAP2 SWAP1 PUSH2 0x3C14 JUMP JUMPDEST CALLVALUE DUP1 ISZERO PUSH2 0xA17 JUMPI PUSH1 0x0 DUP1 REVERT JUMPDEST POP PUSH2 0x325 PUSH2 0xA26 CALLDATASIZE PUSH1 0x4 PUSH2 0x389D JUMP JUMPDEST PUSH2 0x2627 JUMP JUMPDEST CALLVALUE DUP1 ISZERO PUSH2 0xA37 JUMPI PUSH1 0x0 DUP1 REVERT JUMPDEST POP PUSH2 0x325 PUSH2 0xA46 CALLDATASIZE PUSH1 0x4 PUSH2 0x3C8C JUMP JUMPDEST PUSH2 0x26A6 JUMP JUMPDEST CALLVALUE DUP1 ISZERO PUSH2 0xA57 JUMPI PUSH1 0x0 DUP1 REVERT JUMPDEST POP PUSH2 0x325 PUSH2 0xA66 CALLDATASIZE PUSH1 0x4 PUSH2 0x38B6 JUMP JUMPDEST PUSH2 0x279F JUMP JUMPDEST CALLVALUE DUP1 ISZERO PUSH2 0xA77 JUMPI PUSH1 0x0 DUP1 REVERT JUMPDEST POP PUSH2 0x35D PUSH1 0x4 SLOAD DUP2 JUMP JUMPDEST CALLVALUE DUP1 ISZERO PUSH2 0xA8D JUMPI PUSH1 0x0 DUP1 REVERT JUMPDEST POP PUSH1 0x7 SLOAD PUSH2 0x35D JUMP JUMPDEST CALLVALUE DUP1 ISZERO PUSH2 0xAA2 JUMPI PUSH1 0x0 DUP1 REVERT JUMPDEST POP PUSH2 0x325 PUSH2 0xAB1 CALLDATASIZE PUSH1 0x4 PUSH2 0x38EF JUMP JUMPDEST PUSH2 0x28C3 JUMP JUMPDEST CALLVALUE DUP1 ISZERO PUSH2 0xAC2 JUMPI PUSH1 0x0 DUP1 REVERT JUMPDEST POP PUSH2 0xAD6 PUSH2 0xAD1 CALLDATASIZE PUSH1 0x4 PUSH2 0x38B6 JUMP JUMPDEST PUSH2 0x2957 JUMP JUMPDEST PUSH1 0x40 MLOAD PUSH2 0x367 SWAP4 SWAP3 SWAP2 SWAP1 PUSH2 0x3CD3 JUMP JUMPDEST CALLER PUSH1 0x0 SWAP1 DUP2 MSTORE PUSH1 0x1B PUSH1 0x20 MSTORE PUSH1 0x40 SWAP1 KECCAK256 DUP1 SLOAD PUSH2 0xAFF SWAP1 PUSH2 0x3D07 JUMP JUMPDEST SWAP1 POP PUSH1 0x0 SUB PUSH2 0xB6B JUMPI PUSH1 0x40 DUP1 MLOAD PUSH1 0x80 DUP2 ADD DUP3 MSTORE DUP3 DUP2 MSTORE PUSH1 0x0 PUSH1 0x20 DUP1 DUP4 ADD DUP3 SWAP1 MSTORE DUP3 DUP5 ADD DUP3 SWAP1 MSTORE PUSH1 0x60 DUP4 ADD DUP3 SWAP1 MSTORE CALLER DUP3 MSTORE PUSH1 0x1B SWAP1 MSTORE SWAP2 SWAP1 SWAP2 KECCAK256 DUP2 MLOAD DUP2 SWAP1 PUSH2 0xB45 SWAP1 DUP3 PUSH2 0x3D88 JUMP JUMPDEST POP PUSH1 0x20 DUP3 ADD MLOAD PUSH1 0x1 DUP3 ADD SSTORE PUSH1 0x40 DUP3 ADD MLOAD PUSH1 0x2 DUP3 ADD SSTORE PUSH1 0x60 SWAP1 SWAP2 ADD MLOAD PUSH1 0x3 SWAP1 SWAP2 ADD SSTORE PUSH2 0xB88 JUMP JUMPDEST CALLER PUSH1 0x0 SWAP1 DUP2 MSTORE PUSH1 0x1B PUSH1 0x20 MSTORE PUSH1 0x40 SWAP1 KECCAK256 DUP1 PUSH2 0xB85 DUP4 DUP3 PUSH2 0x3D88 JUMP JUMPDEST POP POP JUMPDEST CALLER PUSH1 0x1 PUSH1 0x1 PUSH1 0xA0 SHL SUB AND PUSH32 0xB07B7C8B0281BFA225D936EB4B081F263727DCAA3A2160038B8A947D75DF5CB2 DUP3 PUSH1 0x40 MLOAD PUSH2 0xBC1 SWAP2 SWAP1 PUSH2 0x3E47 JUMP JUMPDEST PUSH1 0x40 MLOAD DUP1 SWAP2 SUB SWAP1 LOG2 POP JUMP JUMPDEST PUSH1 0x0 PUSH2 0xBD6 PUSH2 0x2A2D JUMP JUMPDEST SWAP1 POP SWAP1 JUMP JUMPDEST PUSH1 0x1 SLOAD PUSH1 0x1 PUSH1 0x1 PUSH1 0xA0 SHL SUB AND CALLER EQ PUSH2 0xC0E JUMPI PUSH1 0x40 MLOAD PUSH3 0x461BCD PUSH1 0xE5 SHL DUP2 MSTORE PUSH1 0x4 ADD PUSH2 0xC05 SWAP1 PUSH2 0x3E5A JUMP JUMPDEST PUSH1 0x40 MLOAD DUP1 SWAP2 SUB SWAP1 REVERT JUMPDEST PUSH1 0x0 DUP2 GT DUP1 ISZERO PUSH2 0xC20 JUMPI POP PUSH1 0x6 SLOAD DUP2 EQ ISZERO JUMPDEST PUSH2 0xC61 JUMPI PUSH1 0x40 MLOAD PUSH3 0x461BCD PUSH1 0xE5 SHL DUP2 MSTORE PUSH1 0x20 PUSH1 0x4 DUP3 ADD MSTORE PUSH1 0x12 PUSH1 0x24 DUP3 ADD MSTORE PUSH18 0x125B9D985B1A59081B5A5B9D081B1A5B5A5D PUSH1 0x72 SHL PUSH1 0x44 DUP3 ADD MSTORE PUSH1 0x64 ADD PUSH2 0xC05 JUMP JUMPDEST PUSH1 0x6 DUP2 SWAP1 SSTORE PUSH1 0x40 MLOAD DUP2 DUP2 MSTORE PUSH32 0xF56CD1C2276DD17BCFF78FF95F3DCC99CB9595B770BC12DA977B9C095C9BF96B SWAP1 PUSH1 0x20 ADD JUMPDEST PUSH1 0x40 MLOAD DUP1 SWAP2 SUB SWAP1 LOG1 POP JUMP JUMPDEST PUSH1 0x1F PUSH1 0x20 MSTORE DUP2 PUSH1 0x0 MSTORE PUSH1 0x40 PUSH1 0x0 KECCAK256 DUP2 DUP2 SLOAD DUP2 LT PUSH2 0xCB9 JUMPI PUSH1 0x0 DUP1 REVERT JUMPDEST SWAP1 PUSH1 0x0 MSTORE PUSH1 0x20 PUSH1 0x0 KECCAK256 ADD PUSH1 0x0 SWAP2 POP SWAP2 POP POP SLOAD DUP2 JUMP JUMPDEST PUSH1 0x0 DUP2 DUP2 MSTORE PUSH1 0x1A PUSH1 0x20 MSTORE PUSH1 0x40 SWAP1 KECCAK256 SLOAD DUP2 SWAP1 PUSH1 0x1 PUSH1 0x1 PUSH1 0xA0 SHL SUB AND PUSH2 0xD04 JUMPI PUSH1 0x40 MLOAD PUSH3 0x461BCD PUSH1 0xE5 SHL DUP2 MSTORE PUSH1 0x4 ADD PUSH2 0xC05 SWAP1 PUSH2 0x3E82 JUMP JUMPDEST PUSH2 0xD0C PUSH2 0x2A62 JUMP JUMPDEST PUSH1 0x0 DUP3 DUP2 MSTORE PUSH1 0x1D PUSH1 0x20 SWAP1 DUP2 MSTORE PUSH1 0x40 DUP1 DUP4 KECCAK256 CALLER DUP5 MSTORE SWAP1 SWAP2 MSTORE SWAP1 KECCAK256 SLOAD PUSH1 0xFF AND PUSH2 0xD6B JUMPI PUSH1 0x40 MLOAD PUSH3 0x461BCD PUSH1 0xE5 SHL DUP2 MSTORE PUSH1 0x20 PUSH1 0x4 DUP3 ADD MSTORE PUSH1 0x13 PUSH1 0x24 DUP3 ADD MSTORE PUSH19 0x43616E6E6F7420756E6C696B6520766964656F PUSH1 0x68 SHL PUSH1 0x44 DUP3 ADD MSTORE PUSH1 0x64 ADD PUSH2 0xC05 JUMP JUMPDEST PUSH1 0x0 DUP3 DUP2 MSTORE PUSH1 0x1A PUSH1 0x20 MSTORE PUSH1 0x40 DUP2 KECCAK256 PUSH1 0x5 ADD DUP1 SLOAD SWAP2 PUSH2 0xD88 DUP4 PUSH2 0x3EC5 JUMP JUMPDEST SWAP1 SWAP2 SSTORE POP POP PUSH1 0x0 DUP3 DUP2 MSTORE PUSH1 0x1D PUSH1 0x20 SWAP1 DUP2 MSTORE PUSH1 0x40 DUP1 DUP4 KECCAK256 CALLER DUP1 DUP6 MSTORE SWAP3 MSTORE DUP1 DUP4 KECCAK256 DUP1 SLOAD PUSH1 0xFF NOT AND SWAP1 SSTORE MLOAD SWAP1 SWAP2 DUP5 SWAP2 PUSH32 0xE1EA13F5A6D14E33425B04B4CD2185C1919991C8B880EECAA279F4906475D6F9 SWAP2 SWAP1 LOG3 PUSH2 0xDE2 PUSH1 0x1 PUSH1 0x0 SSTORE JUMP JUMPDEST POP POP JUMP JUMPDEST PUSH1 0x0 DUP3 DUP2 MSTORE PUSH1 0x1A PUSH1 0x20 MSTORE PUSH1 0x40 SWAP1 KECCAK256 SLOAD DUP3 SWAP1 PUSH1 0x1 PUSH1 0x1 PUSH1 0xA0 SHL SUB AND CALLER EQ PUSH2 0xE1E JUMPI PUSH1 0x40 MLOAD PUSH3 0x461BCD PUSH1 0xE5 SHL DUP2 MSTORE PUSH1 0x4 ADD PUSH2 0xC05 SWAP1 PUSH2 0x3E5A JUMP JUMPDEST PUSH1 0x0 DUP4 DUP2 MSTORE PUSH1 0x1A PUSH1 0x20 MSTORE PUSH1 0x40 SWAP1 KECCAK256 PUSH1 0x6 ADD SLOAD DUP4 SWAP1 PUSH1 0xFF AND ISZERO PUSH2 0xE74 JUMPI PUSH1 0x40 MLOAD PUSH3 0x461BCD PUSH1 0xE5 SHL DUP2 MSTORE PUSH1 0x20 PUSH1 0x4 DUP3 ADD MSTORE PUSH1 0xF PUSH1 0x24 DUP3 ADD MSTORE PUSH15 0x139BDD08185B881BDC9A59DA5B985B PUSH1 0x8A SHL PUSH1 0x44 DUP3 ADD MSTORE PUSH1 0x64 ADD PUSH2 0xC05 JUMP JUMPDEST PUSH1 0x0 DUP4 GT PUSH2 0xE94 JUMPI PUSH1 0x40 MLOAD PUSH3 0x461BCD PUSH1 0xE5 SHL DUP2 MSTORE PUSH1 0x4 ADD PUSH2 0xC05 SWAP1 PUSH2 0x3EDC JUMP JUMPDEST PUSH1 0x0 DUP5 DUP2 MSTORE PUSH1 0x1A PUSH1 0x20 MSTORE PUSH1 0x40 SWAP1 DUP2 SWAP1 KECCAK256 PUSH1 0x3 ADD DUP5 SWAP1 SSTORE MLOAD DUP5 SWAP1 PUSH32 0x864790BDF9878A0378C6FC2B0CE53BF74CA13B901BC97A1CB94AA88F1600E482 SWAP1 PUSH2 0xEDC SWAP1 DUP7 DUP2 MSTORE PUSH1 0x20 ADD SWAP1 JUMP JUMPDEST PUSH1 0x40 MLOAD DUP1 SWAP2 SUB SWAP1 LOG2 POP POP POP POP JUMP JUMPDEST PUSH2 0xEF2 PUSH2 0x2A62 JUMP JUMPDEST CALLER PUSH1 0x0 SWAP1 DUP2 MSTORE PUSH1 0x1C PUSH1 0x20 SWAP1 DUP2 MSTORE PUSH1 0x40 DUP1 DUP4 KECCAK256 PUSH1 0x1 PUSH1 0x1 PUSH1 0xA0 SHL SUB DUP6 AND DUP5 MSTORE SWAP1 SWAP2 MSTORE SWAP1 KECCAK256 SLOAD PUSH1 0xFF AND PUSH2 0xF5D JUMPI PUSH1 0x40 MLOAD PUSH3 0x461BCD PUSH1 0xE5 SHL DUP2 MSTORE PUSH1 0x20 PUSH1 0x4 DUP3 ADD MSTORE PUSH1 0x15 PUSH1 0x24 DUP3 ADD MSTORE PUSH21 0x2737BA103337B63637BBB4B7339031B932B0BA37B9 PUSH1 0x59 SHL PUSH1 0x44 DUP3 ADD MSTORE PUSH1 0x64 ADD PUSH2 0xC05 JUMP JUMPDEST CALLER PUSH1 0x0 SWAP1 DUP2 MSTORE PUSH1 0x1C PUSH1 0x20 SWAP1 DUP2 MSTORE PUSH1 0x40 DUP1 DUP4 KECCAK256 PUSH1 0x1 PUSH1 0x1 PUSH1 0xA0 SHL SUB DUP6 AND DUP5 MSTORE DUP3 MSTORE DUP1 DUP4 KECCAK256 DUP1 SLOAD PUSH1 0xFF NOT AND SWAP1 SSTORE PUSH1 0x1B SWAP1 SWAP2 MSTORE DUP2 KECCAK256 PUSH1 0x2 ADD DUP1 SLOAD SWAP2 PUSH2 0xF9E DUP4 PUSH2 0x3EC5 JUMP JUMPDEST SWAP1 SWAP2 SSTORE POP POP PUSH1 0x40 MLOAD PUSH1 0x1 PUSH1 0x1 PUSH1 0xA0 SHL SUB DUP3 AND SWAP1 CALLER SWAP1 PUSH32 0x673E2DC2DFF10EC8A44C707C34BE5B2833E3B75618CB3BF22E1E31C1D6A10668 SWAP1 PUSH1 0x0 SWAP1 LOG3 PUSH2 0xFE3 PUSH1 0x1 PUSH1 0x0 SSTORE JUMP JUMPDEST POP JUMP JUMPDEST PUSH1 0x0 DUP2 DUP2 MSTORE PUSH1 0x1F PUSH1 0x20 SWAP1 DUP2 MSTORE PUSH1 0x40 SWAP2 DUP3 SWAP1 KECCAK256 DUP1 SLOAD DUP4 MLOAD DUP2 DUP5 MUL DUP2 ADD DUP5 ADD SWAP1 SWAP5 MSTORE DUP1 DUP5 MSTORE PUSH1 0x60 SWAP4 SWAP3 DUP4 ADD DUP3 DUP3 DUP1 ISZERO PUSH2 0x103C JUMPI PUSH1 0x20 MUL DUP3 ADD SWAP2 SWAP1 PUSH1 0x0 MSTORE PUSH1 0x20 PUSH1 0x0 KECCAK256 SWAP1 JUMPDEST DUP2 SLOAD DUP2 MSTORE PUSH1 0x20 ADD SWAP1 PUSH1 0x1 ADD SWAP1 DUP1 DUP4 GT PUSH2 0x1028 JUMPI JUMPDEST POP POP POP POP POP SWAP1 POP SWAP2 SWAP1 POP JUMP JUMPDEST PUSH2 0x1050 PUSH2 0x2A62 JUMP JUMPDEST PUSH2 0x105A DUP2 CALLER PUSH2 0x2A8C JUMP JUMPDEST PUSH2 0x1064 DUP2 CALLER PUSH2 0x2C26 JUMP JUMPDEST PUSH2 0xFE3 PUSH1 0x1 PUSH1 0x0 SSTORE JUMP JUMPDEST PUSH1 0x0 DUP2 DUP2 MSTORE PUSH1 0x1A PUSH1 0x20 MSTORE PUSH1 0x40 SWAP1 KECCAK256 SLOAD DUP2 SWAP1 PUSH1 0x1 PUSH1 0x1 PUSH1 0xA0 SHL SUB AND PUSH2 0x10A4 JUMPI PUSH1 0x40 MLOAD PUSH3 0x461BCD PUSH1 0xE5 SHL DUP2 MSTORE PUSH1 0x4 ADD PUSH2 0xC05 SWAP1 PUSH2 0x3E82 JUMP JUMPDEST PUSH2 0x10AC PUSH2 0x2A62 JUMP JUMPDEST PUSH1 0x0 DUP3 DUP2 MSTORE PUSH1 0x1D PUSH1 0x20 SWAP1 DUP2 MSTORE PUSH1 0x40 DUP1 DUP4 KECCAK256 CALLER DUP5 MSTORE SWAP1 SWAP2 MSTORE SWAP1 KECCAK256 SLOAD PUSH1 0xFF AND ISZERO PUSH2 0x110C JUMPI PUSH1 0x40 MLOAD PUSH3 0x461BCD PUSH1 0xE5 SHL DUP2 MSTORE PUSH1 0x20 PUSH1 0x4 DUP3 ADD MSTORE PUSH1 0x13 PUSH1 0x24 DUP3 ADD MSTORE PUSH19 0x1D9A59195BC8185B1C9958591E481B1A5AD959 PUSH1 0x6A SHL PUSH1 0x44 DUP3 ADD MSTORE PUSH1 0x64 ADD PUSH2 0xC05 JUMP JUMPDEST PUSH1 0x0 DUP3 DUP2 MSTORE PUSH1 0x1A PUSH1 0x20 MSTORE PUSH1 0x40 DUP2 KECCAK256 PUSH1 0x5 ADD DUP1 SLOAD SWAP2 PUSH2 0x1129 DUP4 PUSH2 0x3F03 JUMP JUMPDEST SWAP1 SWAP2 SSTORE POP POP PUSH1 0x0 DUP3 DUP2 MSTORE PUSH1 0x1D PUSH1 0x20 SWAP1 DUP2 MSTORE PUSH1 0x40 DUP1 DUP4 KECCAK256 CALLER DUP1 DUP6 MSTORE SWAP3 MSTORE DUP1 DUP4 KECCAK256 DUP1 SLOAD PUSH1 0xFF NOT AND PUSH1 0x1 OR SWAP1 SSTORE MLOAD SWAP1 SWAP2 DUP5 SWAP2 PUSH32 0x252555045B2BB75BBF4E656932C7FC2D63E8E7D9ACC300A6B55D6575A2C8D428 SWAP2 SWAP1 LOG3 PUSH2 0xDE2 PUSH1 0x1 PUSH1 0x0 SSTORE JUMP JUMPDEST PUSH1 0x1 SLOAD PUSH1 0x1 PUSH1 0x1 PUSH1 0xA0 SHL SUB AND CALLER EQ PUSH2 0x11B0 JUMPI PUSH1 0x40 MLOAD PUSH3 0x461BCD PUSH1 0xE5 SHL DUP2 MSTORE PUSH1 0x4 ADD PUSH2 0xC05 SWAP1 PUSH2 0x3E5A JUMP JUMPDEST DUP1 DUP3 DUP5 PUSH2 0x11BD DUP8 DUP10 PUSH2 0x3F1C JUMP JUMPDEST PUSH2 0x11C7 SWAP2 SWAP1 PUSH2 0x3F1C JUMP JUMPDEST PUSH2 0x11D1 SWAP2 SWAP1 PUSH2 0x3F1C JUMP JUMPDEST PUSH2 0x11DB SWAP2 SWAP1 PUSH2 0x3F1C JUMP JUMPDEST PUSH1 0x64 EQ PUSH2 0x122A JUMPI PUSH1 0x40 MLOAD PUSH3 0x461BCD PUSH1 0xE5 SHL DUP2 MSTORE PUSH1 0x20 PUSH1 0x4 DUP3 ADD MSTORE PUSH1 0x1B PUSH1 0x24 DUP3 ADD MSTORE PUSH32 0x50657263656E7461676573206D7573742073756D20746F203130300000000000 PUSH1 0x44 DUP3 ADD MSTORE PUSH1 0x64 ADD PUSH2 0xC05 JUMP JUMPDEST PUSH1 0x3 DUP7 PUSH1 0xFF AND LT PUSH2 0x126C JUMPI PUSH1 0x40 MLOAD PUSH3 0x461BCD PUSH1 0xE5 SHL DUP2 MSTORE PUSH1 0x20 PUSH1 0x4 DUP3 ADD MSTORE PUSH1 0xC PUSH1 0x24 DUP3 ADD MSTORE PUSH12 0x496E76616C69642074797065 PUSH1 0xA0 SHL PUSH1 0x44 DUP3 ADD MSTORE PUSH1 0x64 ADD PUSH2 0xC05 JUMP JUMPDEST DUP6 PUSH1 0xFF AND PUSH1 0x0 SUB PUSH2 0x1311 JUMPI PUSH1 0x40 DUP1 MLOAD PUSH1 0xA0 DUP1 DUP3 ADD DUP4 MSTORE DUP8 DUP3 MSTORE PUSH1 0x20 DUP1 DUP4 ADD DUP9 SWAP1 MSTORE DUP3 DUP5 ADD DUP8 SWAP1 MSTORE PUSH1 0x60 DUP1 DUP5 ADD DUP8 SWAP1 MSTORE PUSH1 0x80 SWAP4 DUP5 ADD DUP7 SWAP1 MSTORE PUSH1 0x9 DUP11 SWAP1 SSTORE PUSH1 0xA DUP10 SWAP1 SSTORE PUSH1 0xB DUP9 SWAP1 SSTORE PUSH1 0xC DUP8 SWAP1 SSTORE PUSH1 0xD DUP7 SWAP1 SSTORE DUP5 MLOAD PUSH1 0xFF DUP13 AND DUP2 MSTORE SWAP2 DUP3 ADD DUP11 SWAP1 MSTORE DUP2 DUP6 ADD DUP10 SWAP1 MSTORE DUP2 ADD DUP8 SWAP1 MSTORE SWAP2 DUP3 ADD DUP6 SWAP1 MSTORE DUP2 ADD DUP4 SWAP1 MSTORE SWAP1 MLOAD PUSH32 0x99194602F58965F9E0983B85141213934A0D9274814DF284574442E175AE4370 SWAP2 DUP2 SWAP1 SUB PUSH1 0xC0 ADD SWAP1 LOG1 PUSH2 0x13AD JUMP JUMPDEST DUP6 PUSH1 0xFF AND PUSH1 0x1 SUB PUSH2 0x1361 JUMPI PUSH1 0x40 DUP1 MLOAD PUSH1 0xA0 DUP2 ADD DUP3 MSTORE DUP7 DUP2 MSTORE PUSH1 0x20 DUP2 ADD DUP7 SWAP1 MSTORE SWAP1 DUP2 ADD DUP5 SWAP1 MSTORE PUSH1 0x60 DUP2 ADD DUP4 SWAP1 MSTORE PUSH1 0x80 ADD DUP2 SWAP1 MSTORE PUSH1 0xE DUP6 SWAP1 SSTORE PUSH1 0xF DUP5 SWAP1 SSTORE PUSH1 0x10 DUP4 SWAP1 SSTORE PUSH1 0x11 DUP3 SWAP1 SSTORE PUSH1 0x12 DUP2 SWAP1 SSTORE PUSH2 0x13AD JUMP JUMPDEST DUP6 PUSH1 0xFF AND PUSH1 0x2 SUB PUSH2 0x13AD JUMPI PUSH1 0x40 DUP1 MLOAD PUSH1 0xA0 DUP2 ADD DUP3 MSTORE DUP7 DUP2 MSTORE PUSH1 0x20 DUP2 ADD DUP7 SWAP1 MSTORE SWAP1 DUP2 ADD DUP5 SWAP1 MSTORE PUSH1 0x60 DUP2 ADD DUP4 SWAP1 MSTORE PUSH1 0x80 ADD DUP2 SWAP1 MSTORE PUSH1 0x13 DUP6 SWAP1 SSTORE PUSH1 0x14 DUP5 SWAP1 SSTORE PUSH1 0x15 DUP4 SWAP1 SSTORE PUSH1 0x16 DUP3 SWAP1 SSTORE PUSH1 0x17 DUP2 SWAP1 SSTORE JUMPDEST PUSH1 0x40 DUP1 MLOAD PUSH1 0xFF DUP9 AND DUP2 MSTORE PUSH1 0x20 DUP2 ADD DUP7 SWAP1 MSTORE SWAP1 DUP2 ADD DUP7 SWAP1 MSTORE PUSH1 0x60 DUP2 ADD DUP5 SWAP1 MSTORE PUSH1 0x80 DUP2 ADD DUP4 SWAP1 MSTORE PUSH1 0xA0 DUP2 ADD DUP3 SWAP1 MSTORE PUSH32 0x99194602F58965F9E0983B85141213934A0D9274814DF284574442E175AE4370 SWAP1 PUSH1 0xC0 ADD PUSH1 0x40 MLOAD DUP1 SWAP2 SUB SWAP1 LOG1 POP POP POP POP POP POP JUMP JUMPDEST PUSH1 0x1 SLOAD PUSH1 0x1 PUSH1 0x1 PUSH1 0xA0 SHL SUB AND CALLER EQ PUSH2 0x1438 JUMPI PUSH1 0x40 MLOAD PUSH3 0x461BCD PUSH1 0xE5 SHL DUP2 MSTORE PUSH1 0x4 ADD PUSH2 0xC05 SWAP1 PUSH2 0x3E5A JUMP JUMPDEST PUSH1 0x3 SLOAD PUSH1 0x40 DUP1 MLOAD DUP1 DUP3 ADD SWAP1 SWAP2 MSTORE PUSH1 0x11 DUP2 MSTORE PUSH17 0x1DDA5D1A191C985DD85B0819985A5B1959 PUSH1 0x7A SHL PUSH1 0x20 DUP3 ADD MSTORE PUSH2 0x1478 SWAP2 PUSH1 0x1 PUSH1 0x1 PUSH1 0xA0 SHL SUB AND SWAP1 SELFBALANCE SWAP1 PUSH2 0x2ED0 JUMP JUMPDEST JUMP JUMPDEST PUSH1 0x0 DUP3 DUP2 MSTORE PUSH1 0x1D PUSH1 0x20 SWAP1 DUP2 MSTORE PUSH1 0x40 DUP1 DUP4 KECCAK256 PUSH1 0x1 PUSH1 0x1 PUSH1 0xA0 SHL SUB DUP6 AND DUP5 MSTORE SWAP1 SWAP2 MSTORE SWAP1 KECCAK256 SLOAD PUSH1 0xFF AND JUMPDEST SWAP3 SWAP2 POP POP JUMP JUMPDEST PUSH2 0x14AF PUSH2 0x2A62 JUMP JUMPDEST PUSH1 0x1 PUSH1 0x1 PUSH1 0xA0 SHL SUB DUP2 AND CALLER SUB PUSH2 0x14FC JUMPI PUSH1 0x40 MLOAD PUSH3 0x461BCD PUSH1 0xE5 SHL DUP2 MSTORE PUSH1 0x20 PUSH1 0x4 DUP3 ADD MSTORE PUSH1 0x12 PUSH1 0x24 DUP3 ADD MSTORE PUSH18 0x21B0B73737BA103337B63637BB9039B2B633 PUSH1 0x71 SHL PUSH1 0x44 DUP3 ADD MSTORE PUSH1 0x64 ADD PUSH2 0xC05 JUMP JUMPDEST CALLER PUSH1 0x0 SWAP1 DUP2 MSTORE PUSH1 0x1C PUSH1 0x20 SWAP1 DUP2 MSTORE PUSH1 0x40 DUP1 DUP4 KECCAK256 PUSH1 0x1 PUSH1 0x1 PUSH1 0xA0 SHL SUB DUP6 AND DUP5 MSTORE SWAP1 SWAP2 MSTORE SWAP1 KECCAK256 SLOAD PUSH1 0xFF AND ISZERO PUSH2 0x1564 JUMPI PUSH1 0x40 MLOAD PUSH3 0x461BCD PUSH1 0xE5 SHL DUP2 MSTORE PUSH1 0x20 PUSH1 0x4 DUP3 ADD MSTORE PUSH1 0x11 PUSH1 0x24 DUP3 ADD MSTORE PUSH17 0x416C726561647920666F6C6C6F77696E67 PUSH1 0x78 SHL PUSH1 0x44 DUP3 ADD MSTORE PUSH1 0x64 ADD PUSH2 0xC05 JUMP JUMPDEST CALLER PUSH1 0x0 SWAP1 DUP2 MSTORE PUSH1 0x1C PUSH1 0x20 SWAP1 DUP2 MSTORE PUSH1 0x40 DUP1 DUP4 KECCAK256 PUSH1 0x1 PUSH1 0x1 PUSH1 0xA0 SHL SUB DUP6 AND DUP5 MSTORE DUP3 MSTORE DUP1 DUP4 KECCAK256 DUP1 SLOAD PUSH1 0xFF NOT AND PUSH1 0x1 OR SWAP1 SSTORE PUSH1 0x1B SWAP1 SWAP2 MSTORE DUP2 KECCAK256 PUSH1 0x2 ADD DUP1 SLOAD SWAP2 PUSH2 0x15A8 DUP4 PUSH2 0x3F03 JUMP JUMPDEST SWAP1 SWAP2 SSTORE POP POP PUSH1 0x40 MLOAD PUSH1 0x1 PUSH1 0x1 PUSH1 0xA0 SHL SUB DUP3 AND SWAP1 CALLER SWAP1 PUSH32 0x1E4F76F27AC4380B0E6C2D1A24F025857826721375CB34ACD4AC2CCCD831EEAD SWAP1 PUSH1 0x0 SWAP1 LOG3 PUSH2 0xFE3 PUSH1 0x1 PUSH1 0x0 SSTORE JUMP JUMPDEST PUSH2 0x15F5 PUSH2 0x2A62 JUMP JUMPDEST PUSH1 0x0 CALLVALUE GT PUSH2 0x163A JUMPI PUSH1 0x40 MLOAD PUSH3 0x461BCD PUSH1 0xE5 SHL DUP2 MSTORE PUSH1 0x20 PUSH1 0x4 DUP3 ADD MSTORE PUSH1 0x12 PUSH1 0x24 DUP3 ADD MSTORE PUSH18 0x125B9D985B1A59081D1A5C08185B5BDD5B9D PUSH1 0x72 SHL PUSH1 0x44 DUP3 ADD MSTORE PUSH1 0x64 ADD PUSH2 0xC05 JUMP JUMPDEST PUSH1 0x1 PUSH1 0x1 PUSH1 0xA0 SHL SUB DUP2 AND PUSH2 0x1690 JUMPI PUSH1 0x40 MLOAD PUSH3 0x461BCD PUSH1 0xE5 SHL DUP2 MSTORE PUSH1 0x20 PUSH1 0x4 DUP3 ADD MSTORE PUSH1 0x17 PUSH1 0x24 DUP3 ADD MSTORE PUSH32 0x496E76616C69642063726561746F722061646472657373000000000000000000 PUSH1 0x44 DUP3 ADD MSTORE PUSH1 0x64 ADD PUSH2 0xC05 JUMP JUMPDEST PUSH2 0x16C8 DUP2 CALLVALUE PUSH1 0x40 MLOAD DUP1 PUSH1 0x40 ADD PUSH1 0x40 MSTORE DUP1 PUSH1 0x15 DUP2 MSTORE PUSH1 0x20 ADD PUSH21 0x2330B4B632B2103A37903A34B81031B932B0BA37B9 PUSH1 0x59 SHL DUP2 MSTORE POP PUSH2 0x2ED0 JUMP JUMPDEST PUSH1 0x1 PUSH1 0x1 PUSH1 0xA0 SHL SUB DUP2 AND PUSH1 0x0 SWAP1 DUP2 MSTORE PUSH1 0x1B PUSH1 0x20 MSTORE PUSH1 0x40 DUP2 KECCAK256 PUSH1 0x3 ADD DUP1 SLOAD CALLVALUE SWAP3 SWAP1 PUSH2 0x16F3 SWAP1 DUP5 SWAP1 PUSH2 0x3F1C JUMP JUMPDEST SWAP1 SWAP2 SSTORE POP POP PUSH1 0x40 MLOAD CALLVALUE DUP2 MSTORE PUSH1 0x1 PUSH1 0x1 PUSH1 0xA0 SHL SUB DUP3 AND SWAP1 CALLER SWAP1 PUSH32 0xA32D9D0D87D6C17BAB78E0FE62AB9560E6F09EC4A903287BAC5DD223E358C186 SWAP1 PUSH1 0x20 ADD PUSH1 0x40 MLOAD DUP1 SWAP2 SUB SWAP1 LOG3 PUSH2 0xFE3 PUSH1 0x1 PUSH1 0x0 SSTORE JUMP JUMPDEST PUSH1 0x0 DUP1 PUSH1 0x0 PUSH1 0x19 PUSH1 0x0 SWAP1 SLOAD SWAP1 PUSH2 0x100 EXP SWAP1 DIV PUSH1 0x1 PUSH1 0x1 PUSH1 0xA0 SHL SUB AND PUSH1 0x1 PUSH1 0x1 PUSH1 0xA0 SHL SUB AND PUSH4 0xFEAF968C PUSH1 0x40 MLOAD DUP2 PUSH4 0xFFFFFFFF AND PUSH1 0xE0 SHL DUP2 MSTORE PUSH1 0x4 ADD PUSH1 0xA0 PUSH1 0x40 MLOAD DUP1 DUP4 SUB DUP2 DUP7 GAS STATICCALL ISZERO DUP1 ISZERO PUSH2 0x179A JUMPI RETURNDATASIZE PUSH1 0x0 DUP1 RETURNDATACOPY RETURNDATASIZE PUSH1 0x0 REVERT JUMPDEST POP POP POP POP PUSH1 0x40 MLOAD RETURNDATASIZE PUSH1 0x1F NOT PUSH1 0x1F DUP3 ADD AND DUP3 ADD DUP1 PUSH1 0x40 MSTORE POP DUP2 ADD SWAP1 PUSH2 0x17BE SWAP2 SWAP1 PUSH2 0x3F49 JUMP JUMPDEST POP SWAP4 POP POP SWAP3 POP POP PUSH2 0xE10 DUP2 TIMESTAMP PUSH2 0x17D4 SWAP2 SWAP1 PUSH2 0x3F9B JUMP JUMPDEST LT PUSH2 0x180D JUMPI PUSH1 0x40 MLOAD PUSH3 0x461BCD PUSH1 0xE5 SHL DUP2 MSTORE PUSH1 0x20 PUSH1 0x4 DUP3 ADD MSTORE PUSH1 0x9 PUSH1 0x24 DUP3 ADD MSTORE PUSH9 0x4F6C64207072696365 PUSH1 0xB8 SHL PUSH1 0x44 DUP3 ADD MSTORE PUSH1 0x64 ADD PUSH2 0xC05 JUMP JUMPDEST PUSH1 0x0 DUP3 SGT PUSH2 0x185D JUMPI PUSH1 0x40 MLOAD PUSH3 0x461BCD PUSH1 0xE5 SHL DUP2 MSTORE PUSH1 0x20 PUSH1 0x4 DUP3 ADD MSTORE PUSH1 0x19 PUSH1 0x24 DUP3 ADD MSTORE PUSH32 0x496E76616C69642070726963652066726F6D206F7261636C6500000000000000 PUSH1 0x44 DUP3 ADD MSTORE PUSH1 0x64 ADD PUSH2 0xC05 JUMP JUMPDEST PUSH2 0x186C DUP3 PUSH5 0x2540BE400 PUSH2 0x3FAE JUMP JUMPDEST SWAP3 POP POP POP SWAP1 JUMP JUMPDEST PUSH2 0x187B PUSH2 0x2A62 JUMP JUMPDEST PUSH1 0x0 PUSH2 0x1885 PUSH2 0x2A2D JUMP JUMPDEST SWAP1 POP DUP1 CALLVALUE LT ISZERO PUSH2 0x18D7 JUMPI PUSH1 0x40 MLOAD PUSH3 0x461BCD PUSH1 0xE5 SHL DUP2 MSTORE PUSH1 0x20 PUSH1 0x4 DUP3 ADD MSTORE PUSH1 0x17 PUSH1 0x24 DUP3 ADD MSTORE PUSH32 0x496E73756666696369656E742075706C6F616420666565000000000000000000 PUSH1 0x44 DUP3 ADD MSTORE PUSH1 0x64 ADD PUSH2 0xC05 JUMP JUMPDEST PUSH2 0x18E2 DUP5 DUP5 DUP5 PUSH2 0x2F5A JUMP JUMPDEST PUSH2 0x18EE DUP5 DUP5 DUP5 CALLER PUSH2 0x30FB JUMP JUMPDEST POP PUSH2 0x18F9 PUSH1 0x1 PUSH1 0x0 SSTORE JUMP JUMPDEST POP POP POP JUMP JUMPDEST PUSH1 0x1 SLOAD PUSH1 0x1 PUSH1 0x1 PUSH1 0xA0 SHL SUB AND CALLER EQ PUSH2 0x1928 JUMPI PUSH1 0x40 MLOAD PUSH3 0x461BCD PUSH1 0xE5 SHL DUP2 MSTORE PUSH1 0x4 ADD PUSH2 0xC05 SWAP1 PUSH2 0x3E5A JUMP JUMPDEST PUSH3 0xF4240 DUP2 GT ISZERO PUSH2 0x196D JUMPI PUSH1 0x40 MLOAD PUSH3 0x461BCD PUSH1 0xE5 SHL DUP2 MSTORE PUSH1 0x20 PUSH1 0x4 DUP3 ADD MSTORE PUSH1 0xF PUSH1 0x24 DUP3 ADD MSTORE PUSH15 0x8CCACA40D2E640E8DEDE40D0D2CED PUSH1 0x8B SHL PUSH1 0x44 DUP3 ADD MSTORE PUSH1 0x64 ADD PUSH2 0xC05 JUMP JUMPDEST PUSH1 0x18 DUP2 SWAP1 SSTORE PUSH1 0x40 MLOAD DUP2 DUP2 MSTORE PUSH32 0x8C4D35E54A3F2EF1134138FD8EA3DAEE6A3C89E10D2665996BABDF70261E2C76 SWAP1 PUSH1 0x20 ADD PUSH2 0xC92 JUMP JUMPDEST PUSH1 0x2 SLOAD PUSH1 0x1 PUSH1 0x1 PUSH1 0xA0 SHL SUB AND CALLER EQ PUSH2 0x19CC JUMPI PUSH1 0x40 MLOAD PUSH3 0x461BCD PUSH1 0xE5 SHL DUP2 MSTORE PUSH1 0x4 ADD PUSH2 0xC05 SWAP1 PUSH2 0x3E5A JUMP JUMPDEST PUSH1 0x1 DUP1 SLOAD PUSH1 0x1 PUSH1 0x1 PUSH1 0xA0 SHL SUB NOT DUP1 DUP3 AND CALLER SWAP1 DUP2 OR SWAP1 SWAP4 SSTORE PUSH1 0x2 DUP1 SLOAD SWAP1 SWAP2 AND SWAP1 SSTORE PUSH1 0x40 MLOAD PUSH1 0x1 PUSH1 0x1 PUSH1 0xA0 SHL SUB SWAP1 SWAP2 AND SWAP2 SWAP1 DUP3 SWAP1 PUSH32 0x8BE0079C531659141344CD1FD0A4F28419497F9722A3DAAFE3B4186F6B6457E0 SWAP1 PUSH1 0x0 SWAP1 LOG3 POP JUMP JUMPDEST PUSH2 0x1A2F PUSH2 0x2A62 JUMP JUMPDEST PUSH1 0x0 DUP2 DUP2 MSTORE PUSH1 0x1A PUSH1 0x20 MSTORE PUSH1 0x40 SWAP1 KECCAK256 SLOAD DUP2 SWAP1 PUSH1 0x1 PUSH1 0x1 PUSH1 0xA0 SHL SUB AND PUSH2 0x1A65 JUMPI PUSH1 0x40 MLOAD PUSH3 0x461BCD PUSH1 0xE5 SHL DUP2 MSTORE PUSH1 0x4 ADD PUSH2 0xC05 SWAP1 PUSH2 0x3E82 JUMP JUMPDEST PUSH1 0x0 DUP3 DUP2 MSTORE PUSH1 0x1A PUSH1 0x20 MSTORE PUSH1 0x40 SWAP1 KECCAK256 PUSH1 0x6 DUP2 ADD SLOAD PUSH1 0xFF AND ISZERO PUSH2 0x1AC8 JUMPI PUSH1 0x40 MLOAD PUSH3 0x461BCD PUSH1 0xE5 SHL DUP2 MSTORE PUSH1 0x20 PUSH1 0x4 DUP3 ADD MSTORE PUSH1 0x1A PUSH1 0x24 DUP3 ADD MSTORE PUSH32 0x557365206D696E7446616E6E697420666F722066616E6E697473000000000000 PUSH1 0x44 DUP3 ADD MSTORE PUSH1 0x64 ADD PUSH2 0xC05 JUMP JUMPDEST PUSH1 0x0 PUSH2 0x1AD5 DUP5 PUSH1 0x0 PUSH2 0x3327 JUMP JUMPDEST SWAP1 POP DUP1 PUSH2 0x1B12 JUMPI PUSH1 0x40 MLOAD PUSH3 0x461BCD PUSH1 0xE5 SHL DUP2 MSTORE PUSH1 0x20 PUSH1 0x4 DUP3 ADD MSTORE PUSH1 0xB PUSH1 0x24 DUP3 ADD MSTORE PUSH11 0x135A5B9D0819985A5B1959 PUSH1 0xAA SHL PUSH1 0x44 DUP3 ADD MSTORE PUSH1 0x64 ADD PUSH2 0xC05 JUMP JUMPDEST PUSH1 0x40 MLOAD CALLVALUE DUP2 MSTORE CALLER SWAP1 DUP6 SWAP1 PUSH32 0x6CA565CBE12D6A229E5001591809C6900E82E4DC3D5ABC5D7F48E1A9C2073E9D SWAP1 PUSH1 0x20 ADD JUMPDEST PUSH1 0x40 MLOAD DUP1 SWAP2 SUB SWAP1 LOG3 POP POP POP PUSH2 0xFE3 PUSH1 0x1 PUSH1 0x0 SSTORE JUMP JUMPDEST PUSH1 0x1 SLOAD PUSH1 0x1 PUSH1 0x1 PUSH1 0xA0 SHL SUB AND CALLER EQ PUSH2 0x1B81 JUMPI PUSH1 0x40 MLOAD PUSH3 0x461BCD PUSH1 0xE5 SHL DUP2 MSTORE PUSH1 0x4 ADD PUSH2 0xC05 SWAP1 PUSH2 0x3E5A JUMP JUMPDEST PUSH1 0x1 PUSH1 0x1 PUSH1 0xA0 SHL SUB DUP2 AND PUSH2 0x1BC9 JUMPI PUSH1 0x40 MLOAD PUSH3 0x461BCD PUSH1 0xE5 SHL DUP2 MSTORE PUSH1 0x20 PUSH1 0x4 DUP3 ADD MSTORE PUSH1 0xF PUSH1 0x24 DUP3 ADD MSTORE PUSH15 0x496E76616C69642061646472657373 PUSH1 0x88 SHL PUSH1 0x44 DUP3 ADD MSTORE PUSH1 0x64 ADD PUSH2 0xC05 JUMP JUMPDEST PUSH1 0x3 DUP1 SLOAD PUSH1 0x1 PUSH1 0x1 PUSH1 0xA0 SHL SUB NOT AND PUSH1 0x1 PUSH1 0x1 PUSH1 0xA0 SHL SUB DUP4 AND SWAP1 DUP2 OR SWAP1 SWAP2 SSTORE PUSH1 0x40 MLOAD SWAP1 DUP2 MSTORE PUSH32 0xEC859DECD72BBC1028A5D9CFF18865D253E0A9C46133F5DE383C3CD73AB89B65 SWAP1 PUSH1 0x20 ADD PUSH2 0xC92 JUMP JUMPDEST PUSH1 0x1B PUSH1 0x20 MSTORE PUSH1 0x0 SWAP1 DUP2 MSTORE PUSH1 0x40 SWAP1 KECCAK256 DUP1 SLOAD DUP2 SWAP1 PUSH2 0x1C32 SWAP1 PUSH2 0x3D07 JUMP JUMPDEST DUP1 PUSH1 0x1F ADD PUSH1 0x20 DUP1 SWAP2 DIV MUL PUSH1 0x20 ADD PUSH1 0x40 MLOAD SWAP1 DUP2 ADD PUSH1 0x40 MSTORE DUP1 SWAP3 SWAP2 SWAP1 DUP2 DUP2 MSTORE PUSH1 0x20 ADD DUP3 DUP1 SLOAD PUSH2 0x1C5E SWAP1 PUSH2 0x3D07 JUMP JUMPDEST DUP1 ISZERO PUSH2 0x1CAB JUMPI DUP1 PUSH1 0x1F LT PUSH2 0x1C80 JUMPI PUSH2 0x100 DUP1 DUP4 SLOAD DIV MUL DUP4 MSTORE SWAP2 PUSH1 0x20 ADD SWAP2 PUSH2 0x1CAB JUMP JUMPDEST DUP3 ADD SWAP2 SWAP1 PUSH1 0x0 MSTORE PUSH1 0x20 PUSH1 0x0 KECCAK256 SWAP1 JUMPDEST DUP2 SLOAD DUP2 MSTORE SWAP1 PUSH1 0x1 ADD SWAP1 PUSH1 0x20 ADD DUP1 DUP4 GT PUSH2 0x1C8E JUMPI DUP3 SWAP1 SUB PUSH1 0x1F AND DUP3 ADD SWAP2 JUMPDEST POP POP POP POP POP SWAP1 DUP1 PUSH1 0x1 ADD SLOAD SWAP1 DUP1 PUSH1 0x2 ADD SLOAD SWAP1 DUP1 PUSH1 0x3 ADD SLOAD SWAP1 POP DUP5 JUMP JUMPDEST PUSH2 0x1CF9 PUSH1 0x40 MLOAD DUP1 PUSH1 0xA0 ADD PUSH1 0x40 MSTORE DUP1 PUSH1 0x0 DUP2 MSTORE PUSH1 0x20 ADD PUSH1 0x0 DUP2 MSTORE PUSH1 0x20 ADD PUSH1 0x0 DUP2 MSTORE PUSH1 0x20 ADD PUSH1 0x0 DUP2 MSTORE PUSH1 0x20 ADD PUSH1 0x0 DUP2 MSTORE POP SWAP1 JUMP JUMPDEST PUSH1 0x3 DUP3 PUSH1 0xFF AND LT PUSH2 0x1D3B JUMPI PUSH1 0x40 MLOAD PUSH3 0x461BCD PUSH1 0xE5 SHL DUP2 MSTORE PUSH1 0x20 PUSH1 0x4 DUP3 ADD MSTORE PUSH1 0xC PUSH1 0x24 DUP3 ADD MSTORE PUSH12 0x496E76616C69642074797065 PUSH1 0xA0 SHL PUSH1 0x44 DUP3 ADD MSTORE PUSH1 0x64 ADD PUSH2 0xC05 JUMP JUMPDEST DUP2 PUSH1 0xFF AND PUSH1 0x0 SUB PUSH2 0x1D7C JUMPI POP POP PUSH1 0x40 DUP1 MLOAD PUSH1 0xA0 DUP2 ADD DUP3 MSTORE PUSH1 0x9 SLOAD DUP2 MSTORE PUSH1 0xA SLOAD PUSH1 0x20 DUP3 ADD MSTORE PUSH1 0xB SLOAD SWAP2 DUP2 ADD SWAP2 SWAP1 SWAP2 MSTORE PUSH1 0xC SLOAD PUSH1 0x60 DUP3 ADD MSTORE PUSH1 0xD SLOAD PUSH1 0x80 DUP3 ADD MSTORE SWAP1 JUMP JUMPDEST DUP2 PUSH1 0xFF AND PUSH1 0x1 SUB PUSH2 0x1DBD JUMPI POP POP PUSH1 0x40 DUP1 MLOAD PUSH1 0xA0 DUP2 ADD DUP3 MSTORE PUSH1 0xE SLOAD DUP2 MSTORE PUSH1 0xF SLOAD PUSH1 0x20 DUP3 ADD MSTORE PUSH1 0x10 SLOAD SWAP2 DUP2 ADD SWAP2 SWAP1 SWAP2 MSTORE PUSH1 0x11 SLOAD PUSH1 0x60 DUP3 ADD MSTORE PUSH1 0x12 SLOAD PUSH1 0x80 DUP3 ADD MSTORE SWAP1 JUMP JUMPDEST POP POP PUSH1 0x40 DUP1 MLOAD PUSH1 0xA0 DUP2 ADD DUP3 MSTORE PUSH1 0x13 SLOAD DUP2 MSTORE PUSH1 0x14 SLOAD PUSH1 0x20 DUP3 ADD MSTORE PUSH1 0x15 SLOAD SWAP2 DUP2 ADD SWAP2 SWAP1 SWAP2 MSTORE PUSH1 0x16 SLOAD PUSH1 0x60 DUP3 ADD MSTORE PUSH1 0x17 SLOAD PUSH1 0x80 DUP3 ADD MSTORE SWAP1 JUMP JUMPDEST SWAP2 SWAP1 POP JUMP JUMPDEST PUSH2 0x1E23 PUSH1 0x40 MLOAD DUP1 PUSH1 0x80 ADD PUSH1 0x40 MSTORE DUP1 PUSH1 0x60 DUP2 MSTORE PUSH1 0x20 ADD PUSH1 0x0 DUP2 MSTORE PUSH1 0x20 ADD PUSH1 0x0 DUP2 MSTORE PUSH1 0x20 ADD PUSH1 0x0 DUP2 MSTORE POP SWAP1 JUMP JUMPDEST PUSH1 0x1 PUSH1 0x1 PUSH1 0xA0 SHL SUB DUP3 AND PUSH1 0x0 SWAP1 DUP2 MSTORE PUSH1 0x1B PUSH1 0x20 MSTORE PUSH1 0x40 SWAP1 DUP2 SWAP1 KECCAK256 DUP2 MLOAD PUSH1 0x80 DUP2 ADD SWAP1 SWAP3 MSTORE DUP1 SLOAD DUP3 SWAP1 DUP3 SWAP1 PUSH2 0x1E55 SWAP1 PUSH2 0x3D07 JUMP JUMPDEST DUP1 PUSH1 0x1F ADD PUSH1 0x20 DUP1 SWAP2 DIV MUL PUSH1 0x20 ADD PUSH1 0x40 MLOAD SWAP1 DUP2 ADD PUSH1 0x40 MSTORE DUP1 SWAP3 SWAP2 SWAP1 DUP2 DUP2 MSTORE PUSH1 0x20 ADD DUP3 DUP1 SLOAD PUSH2 0x1E81 SWAP1 PUSH2 0x3D07 JUMP JUMPDEST DUP1 ISZERO PUSH2 0x1ECE JUMPI DUP1 PUSH1 0x1F LT PUSH2 0x1EA3 JUMPI PUSH2 0x100 DUP1 DUP4 SLOAD DIV MUL DUP4 MSTORE SWAP2 PUSH1 0x20 ADD SWAP2 PUSH2 0x1ECE JUMP JUMPDEST DUP3 ADD SWAP2 SWAP1 PUSH1 0x0 MSTORE PUSH1 0x20 PUSH1 0x0 KECCAK256 SWAP1 JUMPDEST DUP2 SLOAD DUP2 MSTORE SWAP1 PUSH1 0x1 ADD SWAP1 PUSH1 0x20 ADD DUP1 DUP4 GT PUSH2 0x1EB1 JUMPI DUP3 SWAP1 SUB PUSH1 0x1F AND DUP3 ADD SWAP2 JUMPDEST POP POP POP POP POP DUP2 MSTORE PUSH1 0x20 ADD PUSH1 0x1 DUP3 ADD SLOAD DUP2 MSTORE PUSH1 0x20 ADD PUSH1 0x2 DUP3 ADD SLOAD DUP2 MSTORE PUSH1 0x20 ADD PUSH1 0x3 DUP3 ADD SLOAD DUP2 MSTORE POP POP SWAP1 POP SWAP2 SWAP1 POP JUMP JUMPDEST PUSH1 0x1 SLOAD PUSH1 0x1 PUSH1 0x1 PUSH1 0xA0 SHL SUB AND CALLER EQ PUSH2 0x1F26 JUMPI PUSH1 0x40 MLOAD PUSH3 0x461BCD PUSH1 0xE5 SHL DUP2 MSTORE PUSH1 0x4 ADD PUSH2 0xC05 SWAP1 PUSH2 0x3E5A JUMP JUMPDEST PUSH1 0x0 DUP2 GT DUP1 ISZERO PUSH2 0x1F38 JUMPI POP PUSH1 0x5 SLOAD DUP2 EQ ISZERO JUMPDEST PUSH2 0x1F77 JUMPI PUSH1 0x40 MLOAD PUSH3 0x461BCD PUSH1 0xE5 SHL DUP2 MSTORE PUSH1 0x20 PUSH1 0x4 DUP3 ADD MSTORE PUSH1 0x10 PUSH1 0x24 DUP3 ADD MSTORE PUSH16 0x496E76616C6964204D696E7420666565 PUSH1 0x80 SHL PUSH1 0x44 DUP3 ADD MSTORE PUSH1 0x64 ADD PUSH2 0xC05 JUMP JUMPDEST PUSH1 0x5 DUP2 SWAP1 SSTORE PUSH1 0x40 MLOAD DUP2 DUP2 MSTORE PUSH32 0x732603A291622CEC912F16C1F255237A3C66FDAAEBC8C61E72C21600547F61EE SWAP1 PUSH1 0x20 ADD PUSH2 0xC92 JUMP JUMPDEST PUSH2 0x1FB4 PUSH2 0x2A62 JUMP JUMPDEST PUSH1 0x0 DUP2 DUP2 MSTORE PUSH1 0x1A PUSH1 0x20 MSTORE PUSH1 0x40 SWAP1 KECCAK256 SLOAD DUP2 SWAP1 PUSH1 0x1 PUSH1 0x1 PUSH1 0xA0 SHL SUB AND PUSH2 0x1FEA JUMPI PUSH1 0x40 MLOAD PUSH3 0x461BCD PUSH1 0xE5 SHL DUP2 MSTORE PUSH1 0x4 ADD PUSH2 0xC05 SWAP1 PUSH2 0x3E82 JUMP JUMPDEST PUSH1 0x0 PUSH2 0x1FF5 DUP4 PUSH2 0x3608 JUMP JUMPDEST SWAP1 POP PUSH1 0x0 PUSH2 0x2003 DUP5 DUP4 PUSH2 0x3327 JUMP JUMPDEST SWAP1 POP DUP1 PUSH2 0x2040 JUMPI PUSH1 0x40 MLOAD PUSH3 0x461BCD PUSH1 0xE5 SHL DUP2 MSTORE PUSH1 0x20 PUSH1 0x4 DUP3 ADD MSTORE PUSH1 0xB PUSH1 0x24 DUP3 ADD MSTORE PUSH11 0x135A5B9D0819985A5B1959 PUSH1 0xAA SHL PUSH1 0x44 DUP3 ADD MSTORE PUSH1 0x64 ADD PUSH2 0xC05 JUMP JUMPDEST CALLER PUSH1 0x0 DUP2 DUP2 MSTORE PUSH1 0x20 DUP1 DUP1 MSTORE PUSH1 0x40 DUP1 DUP4 KECCAK256 DUP9 DUP5 MSTORE DUP3 MSTORE SWAP2 DUP3 SWAP1 KECCAK256 DUP1 SLOAD PUSH1 0xFF NOT AND PUSH1 0x1 OR SWAP1 SSTORE SWAP1 MLOAD CALLVALUE DUP2 MSTORE DUP7 SWAP2 PUSH32 0x42C41140A2BDFF8665CAC94DE0AEB7AC38E33AD117C48FF3E21A908F0DC8D07D SWAP2 ADD PUSH2 0x1B42 JUMP JUMPDEST PUSH1 0x1 SLOAD PUSH1 0x1 PUSH1 0x1 PUSH1 0xA0 SHL SUB AND CALLER EQ PUSH2 0x20BD JUMPI PUSH1 0x40 MLOAD PUSH3 0x461BCD PUSH1 0xE5 SHL DUP2 MSTORE PUSH1 0x4 ADD PUSH2 0xC05 SWAP1 PUSH2 0x3E5A JUMP JUMPDEST PUSH1 0x0 DUP2 GT PUSH2 0x20DD JUMPI PUSH1 0x40 MLOAD PUSH3 0x461BCD PUSH1 0xE5 SHL DUP2 MSTORE PUSH1 0x4 ADD PUSH2 0xC05 SWAP1 PUSH2 0x3EDC JUMP JUMPDEST PUSH1 0x7 DUP2 SWAP1 SSTORE PUSH1 0x40 MLOAD DUP2 DUP2 MSTORE PUSH32 0x2798E3E1182686CC8C0B7A83111D6B75177944986CE1EE977B9D8FE6FD8B1730 SWAP1 PUSH1 0x20 ADD PUSH2 0xC92 JUMP JUMPDEST PUSH1 0x0 DUP4 DUP2 MSTORE PUSH1 0x1E PUSH1 0x20 MSTORE PUSH1 0x40 SWAP1 KECCAK256 DUP1 SLOAD PUSH1 0x60 SWAP2 SWAP1 DUP1 DUP6 LT PUSH2 0x223F JUMPI DUP2 DUP1 SLOAD DUP1 PUSH1 0x20 MUL PUSH1 0x20 ADD PUSH1 0x40 MLOAD SWAP1 DUP2 ADD PUSH1 0x40 MSTORE DUP1 SWAP3 SWAP2 SWAP1 DUP2 DUP2 MSTORE PUSH1 0x20 ADD PUSH1 0x0 SWAP1 JUMPDEST DUP3 DUP3 LT ISZERO PUSH2 0x2232 JUMPI PUSH1 0x0 DUP5 DUP2 MSTORE PUSH1 0x20 SWAP1 DUP2 SWAP1 KECCAK256 PUSH1 0x40 DUP1 MLOAD PUSH1 0x60 DUP2 ADD SWAP1 SWAP2 MSTORE PUSH1 0x3 DUP6 MUL SWAP1 SWAP2 ADD DUP1 SLOAD PUSH1 0x1 PUSH1 0x1 PUSH1 0xA0 SHL SUB AND DUP3 MSTORE PUSH1 0x1 DUP2 ADD DUP1 SLOAD SWAP3 SWAP4 SWAP2 SWAP3 SWAP2 DUP5 ADD SWAP2 PUSH2 0x2197 SWAP1 PUSH2 0x3D07 JUMP JUMPDEST DUP1 PUSH1 0x1F ADD PUSH1 0x20 DUP1 SWAP2 DIV MUL PUSH1 0x20 ADD PUSH1 0x40 MLOAD SWAP1 DUP2 ADD PUSH1 0x40 MSTORE DUP1 SWAP3 SWAP2 SWAP1 DUP2 DUP2 MSTORE PUSH1 0x20 ADD DUP3 DUP1 SLOAD PUSH2 0x21C3 SWAP1 PUSH2 0x3D07 JUMP JUMPDEST DUP1 ISZERO PUSH2 0x2210 JUMPI DUP1 PUSH1 0x1F LT PUSH2 0x21E5 JUMPI PUSH2 0x100 DUP1 DUP4 SLOAD DIV MUL DUP4 MSTORE SWAP2 PUSH1 0x20 ADD SWAP2 PUSH2 0x2210 JUMP JUMPDEST DUP3 ADD SWAP2 SWAP1 PUSH1 0x0 MSTORE PUSH1 0x20 PUSH1 0x0 KECCAK256 SWAP1 JUMPDEST DUP2 SLOAD DUP2 MSTORE SWAP1 PUSH1 0x1 ADD SWAP1 PUSH1 0x20 ADD DUP1 DUP4 GT PUSH2 0x21F3 JUMPI DUP3 SWAP1 SUB PUSH1 0x1F AND DUP3 ADD SWAP2 JUMPDEST POP POP POP POP POP DUP2 MSTORE PUSH1 0x20 ADD PUSH1 0x2 DUP3 ADD SLOAD DUP2 MSTORE POP POP DUP2 MSTORE PUSH1 0x20 ADD SWAP1 PUSH1 0x1 ADD SWAP1 PUSH2 0x214E JUMP JUMPDEST POP POP POP POP SWAP3 POP POP POP PUSH2 0x2401 JUMP JUMPDEST PUSH1 0x0 PUSH2 0x224B DUP6 DUP8 PUSH2 0x3F1C JUMP JUMPDEST SWAP1 POP DUP2 DUP2 GT ISZERO PUSH2 0x2258 JUMPI POP DUP1 JUMPDEST PUSH1 0x0 PUSH2 0x2264 DUP8 DUP4 PUSH2 0x3F9B JUMP JUMPDEST SWAP1 POP PUSH1 0x0 DUP2 PUSH8 0xFFFFFFFFFFFFFFFF DUP2 GT ISZERO PUSH2 0x2281 JUMPI PUSH2 0x2281 PUSH2 0x37BB JUMP JUMPDEST PUSH1 0x40 MLOAD SWAP1 DUP1 DUP3 MSTORE DUP1 PUSH1 0x20 MUL PUSH1 0x20 ADD DUP3 ADD PUSH1 0x40 MSTORE DUP1 ISZERO PUSH2 0x22DF JUMPI DUP2 PUSH1 0x20 ADD JUMPDEST PUSH2 0x22CC PUSH1 0x40 MLOAD DUP1 PUSH1 0x60 ADD PUSH1 0x40 MSTORE DUP1 PUSH1 0x0 PUSH1 0x1 PUSH1 0x1 PUSH1 0xA0 SHL SUB AND DUP2 MSTORE PUSH1 0x20 ADD PUSH1 0x60 DUP2 MSTORE PUSH1 0x20 ADD PUSH1 0x0 DUP2 MSTORE POP SWAP1 JUMP JUMPDEST DUP2 MSTORE PUSH1 0x20 ADD SWAP1 PUSH1 0x1 SWAP1 SUB SWAP1 DUP2 PUSH2 0x229F JUMPI SWAP1 POP JUMPDEST POP SWAP1 POP PUSH1 0x0 JUMPDEST DUP3 DUP2 LT ISZERO PUSH2 0x23F9 JUMPI DUP6 PUSH2 0x22F8 DUP3 DUP12 PUSH2 0x3F1C JUMP JUMPDEST DUP2 SLOAD DUP2 LT PUSH2 0x2308 JUMPI PUSH2 0x2308 PUSH2 0x3FC5 JUMP JUMPDEST PUSH1 0x0 SWAP2 DUP3 MSTORE PUSH1 0x20 SWAP2 DUP3 SWAP1 KECCAK256 PUSH1 0x40 DUP1 MLOAD PUSH1 0x60 DUP2 ADD SWAP1 SWAP2 MSTORE PUSH1 0x3 SWAP1 SWAP3 MUL ADD DUP1 SLOAD PUSH1 0x1 PUSH1 0x1 PUSH1 0xA0 SHL SUB AND DUP3 MSTORE PUSH1 0x1 DUP2 ADD DUP1 SLOAD SWAP3 SWAP4 SWAP2 SWAP3 SWAP2 DUP5 ADD SWAP2 PUSH2 0x2348 SWAP1 PUSH2 0x3D07 JUMP JUMPDEST DUP1 PUSH1 0x1F ADD PUSH1 0x20 DUP1 SWAP2 DIV MUL PUSH1 0x20 ADD PUSH1 0x40 MLOAD SWAP1 DUP2 ADD PUSH1 0x40 MSTORE DUP1 SWAP3 SWAP2 SWAP1 DUP2 DUP2 MSTORE PUSH1 0x20 ADD DUP3 DUP1 SLOAD PUSH2 0x2374 SWAP1 PUSH2 0x3D07 JUMP JUMPDEST DUP1 ISZERO PUSH2 0x23C1 JUMPI DUP1 PUSH1 0x1F LT PUSH2 0x2396 JUMPI PUSH2 0x100 DUP1 DUP4 SLOAD DIV MUL DUP4 MSTORE SWAP2 PUSH1 0x20 ADD SWAP2 PUSH2 0x23C1 JUMP JUMPDEST DUP3 ADD SWAP2 SWAP1 PUSH1 0x0 MSTORE PUSH1 0x20 PUSH1 0x0 KECCAK256 SWAP1 JUMPDEST DUP2 SLOAD DUP2 MSTORE SWAP1 PUSH1 0x1 ADD SWAP1 PUSH1 0x20 ADD DUP1 DUP4 GT PUSH2 0x23A4 JUMPI DUP3 SWAP1 SUB PUSH1 0x1F AND DUP3 ADD SWAP2 JUMPDEST POP POP POP POP POP DUP2 MSTORE PUSH1 0x20 ADD PUSH1 0x2 DUP3 ADD SLOAD DUP2 MSTORE POP POP DUP3 DUP3 DUP2 MLOAD DUP2 LT PUSH2 0x23E6 JUMPI PUSH2 0x23E6 PUSH2 0x3FC5 JUMP JUMPDEST PUSH1 0x20 SWAP1 DUP2 MUL SWAP2 SWAP1 SWAP2 ADD ADD MSTORE PUSH1 0x1 ADD PUSH2 0x22E5 JUMP JUMPDEST POP SWAP5 POP POP POP POP POP JUMPDEST SWAP4 SWAP3 POP POP POP JUMP JUMPDEST PUSH1 0x60 PUSH1 0x1E PUSH1 0x0 DUP4 DUP2 MSTORE PUSH1 0x20 ADD SWAP1 DUP2 MSTORE PUSH1 0x20 ADD PUSH1 0x0 KECCAK256 DUP1 SLOAD DUP1 PUSH1 0x20 MUL PUSH1 0x20 ADD PUSH1 0x40 MLOAD SWAP1 DUP2 ADD PUSH1 0x40 MSTORE DUP1 SWAP3 SWAP2 SWAP1 DUP2 DUP2 MSTORE PUSH1 0x20 ADD PUSH1 0x0 SWAP1 JUMPDEST DUP3 DUP3 LT ISZERO PUSH2 0x2521 JUMPI PUSH1 0x0 DUP5 DUP2 MSTORE PUSH1 0x20 SWAP1 DUP2 SWAP1 KECCAK256 PUSH1 0x40 DUP1 MLOAD PUSH1 0x60 DUP2 ADD SWAP1 SWAP2 MSTORE PUSH1 0x3 DUP6 MUL SWAP1 SWAP2 ADD DUP1 SLOAD PUSH1 0x1 PUSH1 0x1 PUSH1 0xA0 SHL SUB AND DUP3 MSTORE PUSH1 0x1 DUP2 ADD DUP1 SLOAD SWAP3 SWAP4 SWAP2 SWAP3 SWAP2 DUP5 ADD SWAP2 PUSH2 0x2486 SWAP1 PUSH2 0x3D07 JUMP JUMPDEST DUP1 PUSH1 0x1F ADD PUSH1 0x20 DUP1 SWAP2 DIV MUL PUSH1 0x20 ADD PUSH1 0x40 MLOAD SWAP1 DUP2 ADD PUSH1 0x40 MSTORE DUP1 SWAP3 SWAP2 SWAP1 DUP2 DUP2 MSTORE PUSH1 0x20 ADD DUP3 DUP1 SLOAD PUSH2 0x24B2 SWAP1 PUSH2 0x3D07 JUMP JUMPDEST DUP1 ISZERO PUSH2 0x24FF JUMPI DUP1 PUSH1 0x1F LT PUSH2 0x24D4 JUMPI PUSH2 0x100 DUP1 DUP4 SLOAD DIV MUL DUP4 MSTORE SWAP2 PUSH1 0x20 ADD SWAP2 PUSH2 0x24FF JUMP JUMPDEST DUP3 ADD SWAP2 SWAP1 PUSH1 0x0 MSTORE PUSH1 0x20 PUSH1 0x0 KECCAK256 SWAP1 JUMPDEST DUP2 SLOAD DUP2 MSTORE SWAP1 PUSH1 0x1 ADD SWAP1 PUSH1 0x20 ADD DUP1 DUP4 GT PUSH2 0x24E2 JUMPI DUP3 SWAP1 SUB PUSH1 0x1F AND DUP3 ADD SWAP2 JUMPDEST POP POP POP POP POP DUP2 MSTORE PUSH1 0x20 ADD PUSH1 0x2 DUP3 ADD SLOAD DUP2 MSTORE POP POP DUP2 MSTORE PUSH1 0x20 ADD SWAP1 PUSH1 0x1 ADD SWAP1 PUSH2 0x243D JUMP JUMPDEST POP POP POP POP SWAP1 POP SWAP2 SWAP1 POP JUMP JUMPDEST PUSH1 0x1A PUSH1 0x20 MSTORE PUSH1 0x0 SWAP1 DUP2 MSTORE PUSH1 0x40 SWAP1 KECCAK256 DUP1 SLOAD PUSH1 0x1 DUP3 ADD DUP1 SLOAD PUSH1 0x1 PUSH1 0x1 PUSH1 0xA0 SHL SUB SWAP1 SWAP3 AND SWAP3 SWAP2 PUSH2 0x2558 SWAP1 PUSH2 0x3D07 JUMP JUMPDEST DUP1 PUSH1 0x1F ADD PUSH1 0x20 DUP1 SWAP2 DIV MUL PUSH1 0x20 ADD PUSH1 0x40 MLOAD SWAP1 DUP2 ADD PUSH1 0x40 MSTORE DUP1 SWAP3 SWAP2 SWAP1 DUP2 DUP2 MSTORE PUSH1 0x20 ADD DUP3 DUP1 SLOAD PUSH2 0x2584 SWAP1 PUSH2 0x3D07 JUMP JUMPDEST DUP1 ISZERO PUSH2 0x25D1 JUMPI DUP1 PUSH1 0x1F LT PUSH2 0x25A6 JUMPI PUSH2 0x100 DUP1 DUP4 SLOAD DIV MUL DUP4 MSTORE SWAP2 PUSH1 0x20 ADD SWAP2 PUSH2 0x25D1 JUMP JUMPDEST DUP3 ADD SWAP2 SWAP1 PUSH1 0x0 MSTORE PUSH1 0x20 PUSH1 0x0 KECCAK256 SWAP1 JUMPDEST DUP2 SLOAD DUP2 MSTORE SWAP1 PUSH1 0x1 ADD SWAP1 PUSH1 0x20 ADD DUP1 DUP4 GT PUSH2 0x25B4 JUMPI DUP3 SWAP1 SUB PUSH1 0x1F AND DUP3 ADD SWAP2 JUMPDEST POP POP POP PUSH1 0x2 DUP5 ADD SLOAD PUSH1 0x3 DUP6 ADD SLOAD PUSH1 0x4 DUP7 ADD SLOAD PUSH1 0x5 DUP8 ADD SLOAD PUSH1 0x6 DUP9 ADD SLOAD PUSH1 0x7 DUP10 ADD SLOAD PUSH1 0x8 DUP11 ADD SLOAD PUSH1 0x9 DUP12 ADD SLOAD PUSH1 0xA SWAP1 SWAP12 ADD SLOAD SWAP10 SWAP11 SWAP7 SWAP10 SWAP6 SWAP9 POP SWAP4 SWAP7 POP SWAP2 SWAP5 PUSH1 0xFF SWAP1 SWAP2 AND SWAP4 SWAP2 SWAP3 SWAP2 PUSH1 0x1 PUSH1 0x1 PUSH1 0xA0 SHL SUB SWAP2 DUP3 AND SWAP2 AND DUP12 JUMP JUMPDEST PUSH1 0x1 SLOAD PUSH1 0x1 PUSH1 0x1 PUSH1 0xA0 SHL SUB AND CALLER EQ PUSH2 0x2651 JUMPI PUSH1 0x40 MLOAD PUSH3 0x461BCD PUSH1 0xE5 SHL DUP2 MSTORE PUSH1 0x4 ADD PUSH2 0xC05 SWAP1 PUSH2 0x3E5A JUMP JUMPDEST PUSH1 0x0 DUP2 GT PUSH2 0x2671 JUMPI PUSH1 0x40 MLOAD PUSH3 0x461BCD PUSH1 0xE5 SHL DUP2 MSTORE PUSH1 0x4 ADD PUSH2 0xC05 SWAP1 PUSH2 0x3EDC JUMP JUMPDEST PUSH1 0x8 DUP2 SWAP1 SSTORE PUSH1 0x40 MLOAD DUP2 DUP2 MSTORE PUSH32 0xC505B986F5DB5EF526EAD4A4AF7CC6A60CC9F75B3BDEB19BE8EE74FCEA14F349 SWAP1 PUSH1 0x20 ADD PUSH2 0xC92 JUMP JUMPDEST PUSH1 0x0 DUP3 DUP2 MSTORE PUSH1 0x1A PUSH1 0x20 MSTORE PUSH1 0x40 SWAP1 KECCAK256 SLOAD DUP3 SWAP1 PUSH1 0x1 PUSH1 0x1 PUSH1 0xA0 SHL SUB AND PUSH2 0x26DC JUMPI PUSH1 0x40 MLOAD PUSH3 0x461BCD PUSH1 0xE5 SHL DUP2 MSTORE PUSH1 0x4 ADD PUSH2 0xC05 SWAP1 PUSH2 0x3E82 JUMP JUMPDEST PUSH1 0x40 DUP1 MLOAD PUSH1 0x60 DUP2 ADD DUP3 MSTORE CALLER DUP2 MSTORE PUSH1 0x20 DUP1 DUP3 ADD DUP6 DUP2 MSTORE TIMESTAMP DUP4 DUP6 ADD MSTORE PUSH1 0x0 DUP8 DUP2 MSTORE PUSH1 0x1E DUP4 MSTORE SWAP4 DUP5 KECCAK256 DUP1 SLOAD PUSH1 0x1 DUP1 DUP3 ADD DUP4 SSTORE SWAP2 DUP7 MSTORE SWAP3 SWAP1 SWAP5 KECCAK256 DUP4 MLOAD PUSH1 0x3 SWAP1 SWAP4 MUL ADD DUP1 SLOAD PUSH1 0x1 PUSH1 0x1 PUSH1 0xA0 SHL SUB NOT AND PUSH1 0x1 PUSH1 0x1 PUSH1 0xA0 SHL SUB SWAP1 SWAP4 AND SWAP3 SWAP1 SWAP3 OR DUP3 SSTORE MLOAD SWAP2 SWAP3 DUP4 SWAP3 SWAP1 DUP3 ADD SWAP1 PUSH2 0x274A SWAP1 DUP3 PUSH2 0x3D88 JUMP JUMPDEST POP PUSH1 0x40 DUP3 ADD MLOAD DUP2 PUSH1 0x2 ADD SSTORE POP POP CALLER PUSH1 0x1 PUSH1 0x1 PUSH1 0xA0 SHL SUB AND DUP5 PUSH32 0xCC2D7DD2085AE6644799A42C0174ADF9AFC10A43F26DB5EAC3DDD1F96D1D64BE DUP6 PUSH1 0x40 MLOAD PUSH2 0x2791 SWAP2 SWAP1 PUSH2 0x3E47 JUMP JUMPDEST PUSH1 0x40 MLOAD DUP1 SWAP2 SUB SWAP1 LOG3 POP POP POP POP JUMP JUMPDEST PUSH1 0x0 DUP3 DUP2 MSTORE PUSH1 0x1A PUSH1 0x20 MSTORE PUSH1 0x40 SWAP1 KECCAK256 SLOAD DUP3 SWAP1 PUSH1 0x1 PUSH1 0x1 PUSH1 0xA0 SHL SUB AND CALLER EQ PUSH2 0x27D7 JUMPI PUSH1 0x40 MLOAD PUSH3 0x461BCD PUSH1 0xE5 SHL DUP2 MSTORE PUSH1 0x4 ADD PUSH2 0xC05 SWAP1 PUSH2 0x3E5A JUMP JUMPDEST PUSH1 0x0 DUP4 DUP2 MSTORE PUSH1 0x1A PUSH1 0x20 MSTORE PUSH1 0x40 SWAP1 KECCAK256 PUSH1 0x6 ADD SLOAD DUP4 SWAP1 PUSH1 0xFF AND ISZERO PUSH2 0x282D JUMPI PUSH1 0x40 MLOAD PUSH3 0x461BCD PUSH1 0xE5 SHL DUP2 MSTORE PUSH1 0x20 PUSH1 0x4 DUP3 ADD MSTORE PUSH1 0xF PUSH1 0x24 DUP3 ADD MSTORE PUSH15 0x139BDD08185B881BDC9A59DA5B985B PUSH1 0x8A SHL PUSH1 0x44 DUP3 ADD MSTORE PUSH1 0x64 ADD PUSH2 0xC05 JUMP JUMPDEST PUSH1 0x0 DUP4 GT DUP1 ISZERO PUSH2 0x283F JUMPI POP PUSH1 0x5 SLOAD DUP4 GT ISZERO JUMPDEST PUSH2 0x287B JUMPI PUSH1 0x40 MLOAD PUSH3 0x461BCD PUSH1 0xE5 SHL DUP2 MSTORE PUSH1 0x20 PUSH1 0x4 DUP3 ADD MSTORE PUSH1 0xD PUSH1 0x24 DUP3 ADD MSTORE PUSH13 0x496E76616C6964207072696365 PUSH1 0x98 SHL PUSH1 0x44 DUP3 ADD MSTORE PUSH1 0x64 ADD PUSH2 0xC05 JUMP JUMPDEST PUSH1 0x0 DUP5 DUP2 MSTORE PUSH1 0x1A PUSH1 0x20 MSTORE PUSH1 0x40 SWAP1 DUP2 SWAP1 KECCAK256 PUSH1 0x4 ADD DUP5 SWAP1 SSTORE MLOAD DUP5 SWAP1 PUSH32 0x2E1C9E000C6E8DDA4D03536ADB13B7CB6034CCFF90D17F01DE381E4D5097B525 SWAP1 PUSH2 0xEDC SWAP1 DUP7 DUP2 MSTORE PUSH1 0x20 ADD SWAP1 JUMP JUMPDEST PUSH1 0x1 SLOAD PUSH1 0x1 PUSH1 0x1 PUSH1 0xA0 SHL SUB AND CALLER EQ PUSH2 0x28ED JUMPI PUSH1 0x40 MLOAD PUSH3 0x461BCD PUSH1 0xE5 SHL DUP2 MSTORE PUSH1 0x4 ADD PUSH2 0xC05 SWAP1 PUSH2 0x3E5A JUMP JUMPDEST PUSH1 0x1 PUSH1 0x1 PUSH1 0xA0 SHL SUB DUP2 AND PUSH2 0x2935 JUMPI PUSH1 0x40 MLOAD PUSH3 0x461BCD PUSH1 0xE5 SHL DUP2 MSTORE PUSH1 0x20 PUSH1 0x4 DUP3 ADD MSTORE PUSH1 0xF PUSH1 0x24 DUP3 ADD MSTORE PUSH15 0x496E76616C69642061646472657373 PUSH1 0x88 SHL PUSH1 0x44 DUP3 ADD MSTORE PUSH1 0x64 ADD PUSH2 0xC05 JUMP JUMPDEST PUSH1 0x2 DUP1 SLOAD PUSH1 0x1 PUSH1 0x1 PUSH1 0xA0 SHL SUB NOT AND PUSH1 0x1 PUSH1 0x1 PUSH1 0xA0 SHL SUB SWAP3 SWAP1 SWAP3 AND SWAP2 SWAP1 SWAP2 OR SWAP1 SSTORE JUMP JUMPDEST PUSH1 0x1E PUSH1 0x20 MSTORE DUP2 PUSH1 0x0 MSTORE PUSH1 0x40 PUSH1 0x0 KECCAK256 DUP2 DUP2 SLOAD DUP2 LT PUSH2 0x2973 JUMPI PUSH1 0x0 DUP1 REVERT JUMPDEST PUSH1 0x0 SWAP2 DUP3 MSTORE PUSH1 0x20 SWAP1 SWAP2 KECCAK256 PUSH1 0x3 SWAP1 SWAP2 MUL ADD DUP1 SLOAD PUSH1 0x1 DUP3 ADD DUP1 SLOAD PUSH1 0x1 PUSH1 0x1 PUSH1 0xA0 SHL SUB SWAP1 SWAP3 AND SWAP5 POP SWAP2 SWAP3 POP PUSH2 0x29A4 SWAP1 PUSH2 0x3D07 JUMP JUMPDEST DUP1 PUSH1 0x1F ADD PUSH1 0x20 DUP1 SWAP2 DIV MUL PUSH1 0x20 ADD PUSH1 0x40 MLOAD SWAP1 DUP2 ADD PUSH1 0x40 MSTORE DUP1 SWAP3 SWAP2 SWAP1 DUP2 DUP2 MSTORE PUSH1 0x20 ADD DUP3 DUP1 SLOAD PUSH2 0x29D0 SWAP1 PUSH2 0x3D07 JUMP JUMPDEST DUP1 ISZERO PUSH2 0x2A1D JUMPI DUP1 PUSH1 0x1F LT PUSH2 0x29F2 JUMPI PUSH2 0x100 DUP1 DUP4 SLOAD DIV MUL DUP4 MSTORE SWAP2 PUSH1 0x20 ADD SWAP2 PUSH2 0x2A1D JUMP JUMPDEST DUP3 ADD SWAP2 SWAP1 PUSH1 0x0 MSTORE PUSH1 0x20 PUSH1 0x0 KECCAK256 SWAP1 JUMPDEST DUP2 SLOAD DUP2 MSTORE SWAP1 PUSH1 0x1 ADD SWAP1 PUSH1 0x20 ADD DUP1 DUP4 GT PUSH2 0x2A00 JUMPI DUP3 SWAP1 SUB PUSH1 0x1F AND DUP3 ADD SWAP2 JUMPDEST POP POP POP POP POP SWAP1 DUP1 PUSH1 0x2 ADD SLOAD SWAP1 POP DUP4 JUMP JUMPDEST PUSH1 0x0 DUP1 PUSH2 0x2A38 PUSH2 0x1742 JUMP JUMPDEST SWAP1 POP PUSH1 0x0 DUP2 PUSH1 0x18 SLOAD PUSH13 0xC9F2C9CD04674EDEA40000000 PUSH2 0x2A58 SWAP2 SWAP1 PUSH2 0x3FAE JUMP JUMPDEST PUSH2 0x2401 SWAP2 SWAP1 PUSH2 0x3FDB JUMP JUMPDEST PUSH1 0x2 PUSH1 0x0 SLOAD SUB PUSH2 0x2A85 JUMPI PUSH1 0x40 MLOAD PUSH4 0x3EE5AEB5 PUSH1 0xE0 SHL DUP2 MSTORE PUSH1 0x4 ADD PUSH1 0x40 MLOAD DUP1 SWAP2 SUB SWAP1 REVERT JUMPDEST PUSH1 0x2 PUSH1 0x0 SSTORE JUMP JUMPDEST PUSH1 0x0 DUP3 DUP2 MSTORE PUSH1 0x1A PUSH1 0x20 MSTORE PUSH1 0x40 SWAP1 KECCAK256 SLOAD PUSH1 0x1 PUSH1 0x1 PUSH1 0xA0 SHL SUB AND PUSH2 0x2AE9 JUMPI PUSH1 0x40 MLOAD PUSH3 0x461BCD PUSH1 0xE5 SHL DUP2 MSTORE PUSH1 0x20 PUSH1 0x4 DUP3 ADD MSTORE PUSH1 0x16 PUSH1 0x24 DUP3 ADD MSTORE PUSH22 0x13DC9A59DA5B985B08191BD95CDB89DD08195E1A5CDD PUSH1 0x52 SHL PUSH1 0x44 DUP3 ADD MSTORE PUSH1 0x64 ADD PUSH2 0xC05 JUMP JUMPDEST PUSH1 0x0 DUP3 DUP2 MSTORE PUSH1 0x1A PUSH1 0x20 MSTORE PUSH1 0x40 SWAP1 KECCAK256 PUSH1 0x6 ADD SLOAD PUSH1 0xFF AND ISZERO PUSH2 0x2B44 JUMPI PUSH1 0x40 MLOAD PUSH3 0x461BCD PUSH1 0xE5 SHL DUP2 MSTORE PUSH1 0x20 PUSH1 0x4 DUP3 ADD MSTORE PUSH1 0x16 PUSH1 0x24 DUP3 ADD MSTORE PUSH22 0x10D85B9B9BDD0819985B9B9A5D08184819985B9B9A5D PUSH1 0x52 SHL PUSH1 0x44 DUP3 ADD MSTORE PUSH1 0x64 ADD PUSH2 0xC05 JUMP JUMPDEST PUSH1 0x1 PUSH1 0x1 PUSH1 0xA0 SHL SUB DUP2 AND PUSH1 0x0 SWAP1 DUP2 MSTORE PUSH1 0x20 DUP1 DUP1 MSTORE PUSH1 0x40 DUP1 DUP4 KECCAK256 DUP6 DUP5 MSTORE SWAP1 SWAP2 MSTORE SWAP1 KECCAK256 SLOAD PUSH1 0xFF AND ISZERO PUSH2 0x2BB6 JUMPI PUSH1 0x40 MLOAD PUSH3 0x461BCD PUSH1 0xE5 SHL DUP2 MSTORE PUSH1 0x20 PUSH1 0x4 DUP3 ADD MSTORE PUSH1 0x1B PUSH1 0x24 DUP3 ADD MSTORE PUSH32 0x416C72656164792066616E6E69746564207468697320766964656F0000000000 PUSH1 0x44 DUP3 ADD MSTORE PUSH1 0x64 ADD PUSH2 0xC05 JUMP JUMPDEST PUSH1 0x1 PUSH1 0x1 PUSH1 0xA0 SHL SUB DUP2 AND PUSH1 0x0 SWAP1 DUP2 MSTORE PUSH1 0x22 PUSH1 0x20 SWAP1 DUP2 MSTORE PUSH1 0x40 DUP1 DUP4 KECCAK256 DUP6 DUP5 MSTORE SWAP1 SWAP2 MSTORE SWAP1 KECCAK256 SLOAD PUSH2 0xDE2 JUMPI PUSH1 0x40 MLOAD PUSH3 0x461BCD PUSH1 0xE5 SHL DUP2 MSTORE PUSH1 0x20 PUSH1 0x4 DUP3 ADD DUP2 SWAP1 MSTORE PUSH1 0x24 DUP3 ADD MSTORE PUSH32 0x4D757374206F776E206F726967696E616C206D696E7420746F2066616E6E6974 PUSH1 0x44 DUP3 ADD MSTORE PUSH1 0x64 ADD PUSH2 0xC05 JUMP JUMPDEST PUSH1 0x0 DUP3 DUP2 MSTORE PUSH1 0x1A PUSH1 0x20 MSTORE PUSH1 0x40 DUP2 KECCAK256 PUSH1 0x4 SLOAD SWAP1 SWAP2 SWAP1 PUSH2 0x2C45 SWAP1 PUSH1 0x1 PUSH2 0x3F1C JUMP JUMPDEST PUSH1 0x40 DUP1 MLOAD PUSH2 0x160 DUP2 ADD SWAP1 SWAP2 MSTORE DUP4 SLOAD PUSH1 0x1 PUSH1 0x1 PUSH1 0xA0 SHL SUB AND DUP2 MSTORE PUSH1 0x1 DUP5 ADD DUP1 SLOAD SWAP3 SWAP4 POP SWAP1 SWAP2 PUSH1 0x20 DUP4 ADD SWAP2 SWAP1 PUSH2 0x2C78 SWAP1 PUSH2 0x3D07 JUMP JUMPDEST DUP1 PUSH1 0x1F ADD PUSH1 0x20 DUP1 SWAP2 DIV MUL PUSH1 0x20 ADD PUSH1 0x40 MLOAD SWAP1 DUP2 ADD PUSH1 0x40 MSTORE DUP1 SWAP3 SWAP2 SWAP1 DUP2 DUP2 MSTORE PUSH1 0x20 ADD DUP3 DUP1 SLOAD PUSH2 0x2CA4 SWAP1 PUSH2 0x3D07 JUMP JUMPDEST DUP1 ISZERO PUSH2 0x2CF1 JUMPI DUP1 PUSH1 0x1F LT PUSH2 0x2CC6 JUMPI PUSH2 0x100 DUP1 DUP4 SLOAD DIV MUL DUP4 MSTORE SWAP2 PUSH1 0x20 ADD SWAP2 PUSH2 0x2CF1 JUMP JUMPDEST DUP3 ADD SWAP2 SWAP1 PUSH1 0x0 MSTORE PUSH1 0x20 PUSH1 0x0 KECCAK256 SWAP1 JUMPDEST DUP2 SLOAD DUP2 MSTORE SWAP1 PUSH1 0x1 ADD SWAP1 PUSH1 0x20 ADD DUP1 DUP4 GT PUSH2 0x2CD4 JUMPI DUP3 SWAP1 SUB PUSH1 0x1F AND DUP3 ADD SWAP2 JUMPDEST POP POP POP SWAP2 DUP4 MSTORE POP POP PUSH1 0x0 PUSH1 0x20 DUP3 ADD DUP2 SWAP1 MSTORE PUSH1 0x7 SLOAD PUSH1 0x40 DUP4 ADD MSTORE PUSH1 0x4 DUP6 ADD SLOAD PUSH1 0x60 DUP4 ADD MSTORE PUSH1 0x80 DUP3 ADD MSTORE PUSH1 0x1 PUSH1 0xA0 DUP3 ADD MSTORE PUSH1 0x6 DUP5 ADD SLOAD PUSH1 0xC0 SWAP1 SWAP2 ADD SWAP1 PUSH1 0xFF AND PUSH2 0x2D38 JUMPI DUP6 PUSH2 0x2D3E JUMP JUMPDEST DUP4 PUSH1 0x7 ADD SLOAD JUMPDEST DUP2 MSTORE PUSH1 0x20 DUP2 ADD DUP7 SWAP1 MSTORE PUSH1 0x1 PUSH1 0x1 PUSH1 0xA0 SHL SUB DUP6 AND PUSH1 0x40 DUP3 ADD MSTORE PUSH1 0x6 DUP5 ADD SLOAD PUSH1 0x60 SWAP1 SWAP2 ADD SWAP1 PUSH1 0xFF AND PUSH2 0x2D6F JUMPI PUSH1 0x0 PUSH2 0x2D7E JUMP JUMPDEST PUSH1 0x9 DUP5 ADD SLOAD PUSH1 0x1 PUSH1 0x1 PUSH1 0xA0 SHL SUB AND JUMPDEST PUSH1 0x1 PUSH1 0x1 PUSH1 0xA0 SHL SUB SWAP1 DUP2 AND SWAP1 SWAP2 MSTORE PUSH1 0x0 DUP4 DUP2 MSTORE PUSH1 0x1A PUSH1 0x20 SWAP1 DUP2 MSTORE PUSH1 0x40 SWAP1 SWAP2 KECCAK256 DUP4 MLOAD DUP2 SLOAD PUSH1 0x1 PUSH1 0x1 PUSH1 0xA0 SHL SUB NOT AND SWAP4 AND SWAP3 SWAP1 SWAP3 OR DUP3 SSTORE DUP3 ADD MLOAD PUSH1 0x1 DUP3 ADD SWAP1 PUSH2 0x2DC5 SWAP1 DUP3 PUSH2 0x3D88 JUMP JUMPDEST POP PUSH1 0x40 DUP3 DUP2 ADD MLOAD PUSH1 0x2 DUP4 ADD SSTORE PUSH1 0x60 DUP4 ADD MLOAD PUSH1 0x3 DUP4 ADD SSTORE PUSH1 0x80 DUP4 ADD MLOAD PUSH1 0x4 DUP4 ADD SSTORE PUSH1 0xA0 DUP4 ADD MLOAD PUSH1 0x5 DUP4 ADD SSTORE PUSH1 0xC0 DUP4 ADD MLOAD PUSH1 0x6 DUP4 ADD DUP1 SLOAD SWAP2 ISZERO ISZERO PUSH1 0xFF NOT SWAP3 DUP4 AND OR SWAP1 SSTORE PUSH1 0xE0 DUP5 ADD MLOAD PUSH1 0x7 DUP5 ADD SSTORE PUSH2 0x100 DUP5 ADD MLOAD PUSH1 0x8 DUP5 ADD SSTORE PUSH2 0x120 DUP5 ADD MLOAD PUSH1 0x9 DUP5 ADD DUP1 SLOAD PUSH1 0x1 PUSH1 0x1 PUSH1 0xA0 SHL SUB SWAP3 DUP4 AND PUSH1 0x1 PUSH1 0x1 PUSH1 0xA0 SHL SUB NOT SWAP2 DUP3 AND OR SWAP1 SWAP2 SSTORE PUSH2 0x140 SWAP1 SWAP6 ADD MLOAD PUSH1 0xA SWAP1 SWAP5 ADD DUP1 SLOAD SWAP5 DUP3 AND SWAP5 SWAP1 SWAP6 AND SWAP4 SWAP1 SWAP4 OR SWAP1 SWAP4 SSTORE PUSH1 0x0 DUP8 DUP2 MSTORE PUSH1 0x1F PUSH1 0x20 SWAP1 DUP2 MSTORE DUP3 DUP3 KECCAK256 DUP1 SLOAD PUSH1 0x1 DUP2 DUP2 ADD DUP4 SSTORE SWAP2 DUP5 MSTORE DUP3 DUP5 KECCAK256 ADD DUP8 SWAP1 SSTORE SWAP4 DUP9 AND DUP1 DUP4 MSTORE DUP2 DUP1 MSTORE DUP4 DUP4 KECCAK256 DUP11 DUP5 MSTORE SWAP1 SWAP2 MSTORE DUP3 DUP3 KECCAK256 DUP1 SLOAD SWAP1 SWAP6 AND SWAP1 SWAP4 OR SWAP1 SWAP4 SSTORE MLOAD SWAP1 SWAP2 DUP4 SWAP2 DUP8 SWAP2 PUSH32 0x8421731D7369D08928A27F198CD9451536C0FB52A9ABCFDE821C14C7166AF316 SWAP2 LOG4 POP POP POP POP JUMP JUMPDEST DUP2 PUSH1 0x0 SUB PUSH2 0x2EDD JUMPI POP POP POP JUMP JUMPDEST PUSH1 0x0 DUP4 PUSH1 0x1 PUSH1 0x1 PUSH1 0xA0 SHL SUB AND DUP4 PUSH1 0x40 MLOAD PUSH1 0x0 PUSH1 0x40 MLOAD DUP1 DUP4 SUB DUP2 DUP6 DUP8 GAS CALL SWAP3 POP POP POP RETURNDATASIZE DUP1 PUSH1 0x0 DUP2 EQ PUSH2 0x2F2A JUMPI PUSH1 0x40 MLOAD SWAP2 POP PUSH1 0x1F NOT PUSH1 0x3F RETURNDATASIZE ADD AND DUP3 ADD PUSH1 0x40 MSTORE RETURNDATASIZE DUP3 MSTORE RETURNDATASIZE PUSH1 0x0 PUSH1 0x20 DUP5 ADD RETURNDATACOPY PUSH2 0x2F2F JUMP JUMPDEST PUSH1 0x60 SWAP2 POP JUMPDEST POP POP SWAP1 POP DUP1 DUP3 SWAP1 PUSH2 0x2F53 JUMPI PUSH1 0x40 MLOAD PUSH3 0x461BCD PUSH1 0xE5 SHL DUP2 MSTORE PUSH1 0x4 ADD PUSH2 0xC05 SWAP2 SWAP1 PUSH2 0x3E47 JUMP JUMPDEST POP POP POP POP POP JUMP JUMPDEST PUSH1 0x0 DUP3 GT PUSH2 0x2FA0 JUMPI PUSH1 0x40 MLOAD PUSH3 0x461BCD PUSH1 0xE5 SHL DUP2 MSTORE PUSH1 0x20 PUSH1 0x4 DUP3 ADD MSTORE PUSH1 0x13 PUSH1 0x24 DUP3 ADD MSTORE PUSH19 0x496E76616C6964204D696E74204C696D697421 PUSH1 0x68 SHL PUSH1 0x44 DUP3 ADD MSTORE PUSH1 0x64 ADD PUSH2 0xC05 JUMP JUMPDEST PUSH1 0x6 SLOAD DUP3 GT ISZERO PUSH2 0x2FE8 JUMPI PUSH1 0x40 MLOAD PUSH3 0x461BCD PUSH1 0xE5 SHL DUP2 MSTORE PUSH1 0x20 PUSH1 0x4 DUP3 ADD MSTORE PUSH1 0x13 PUSH1 0x24 DUP3 ADD MSTORE PUSH19 0x9AD2DCE840D8D2DAD2E840E8DEDE40D0D2CED PUSH1 0x6B SHL PUSH1 0x44 DUP3 ADD MSTORE PUSH1 0x64 ADD PUSH2 0xC05 JUMP JUMPDEST PUSH1 0x0 DUP2 GT PUSH2 0x302E JUMPI PUSH1 0x40 MLOAD PUSH3 0x461BCD PUSH1 0xE5 SHL DUP2 MSTORE PUSH1 0x20 PUSH1 0x4 DUP3 ADD MSTORE PUSH1 0x13 PUSH1 0x24 DUP3 ADD MSTORE PUSH19 0x4D696E7420707269636520746F6F206C6F7721 PUSH1 0x68 SHL PUSH1 0x44 DUP3 ADD MSTORE PUSH1 0x64 ADD PUSH2 0xC05 JUMP JUMPDEST PUSH1 0x5 SLOAD DUP2 GT ISZERO PUSH2 0x3076 JUMPI PUSH1 0x40 MLOAD PUSH3 0x461BCD PUSH1 0xE5 SHL DUP2 MSTORE PUSH1 0x20 PUSH1 0x4 DUP3 ADD MSTORE PUSH1 0x13 PUSH1 0x24 DUP3 ADD MSTORE PUSH19 0x9AD2DCE840E0E4D2C6CA40E8DEDE40D0D2CED PUSH1 0x6B SHL PUSH1 0x44 DUP3 ADD MSTORE PUSH1 0x64 ADD PUSH2 0xC05 JUMP JUMPDEST PUSH1 0x0 DUP4 PUSH1 0x40 MLOAD PUSH1 0x20 ADD PUSH2 0x3089 SWAP2 SWAP1 PUSH2 0x3FFD JUMP JUMPDEST PUSH1 0x40 DUP1 MLOAD PUSH1 0x1F NOT DUP2 DUP5 SUB ADD DUP2 MSTORE SWAP2 DUP2 MSTORE DUP2 MLOAD PUSH1 0x20 SWAP3 DUP4 ADD KECCAK256 PUSH1 0x0 DUP2 DUP2 MSTORE PUSH1 0x21 SWAP1 SWAP4 MSTORE SWAP2 KECCAK256 SLOAD SWAP1 SWAP2 POP ISZERO PUSH2 0x30F5 JUMPI PUSH1 0x40 MLOAD PUSH3 0x461BCD PUSH1 0xE5 SHL DUP2 MSTORE PUSH1 0x20 PUSH1 0x4 DUP3 ADD MSTORE PUSH1 0x14 PUSH1 0x24 DUP3 ADD MSTORE PUSH20 0x566964656F20616C726561647920657869737473 PUSH1 0x60 SHL PUSH1 0x44 DUP3 ADD MSTORE PUSH1 0x64 ADD PUSH2 0xC05 JUMP JUMPDEST POP POP POP POP JUMP JUMPDEST PUSH1 0x4 DUP1 SLOAD SWAP1 PUSH1 0x0 PUSH2 0x310B DUP4 PUSH2 0x3F03 JUMP JUMPDEST SWAP1 SWAP2 SSTORE POP POP PUSH1 0x4 SLOAD PUSH1 0x40 DUP1 MLOAD PUSH2 0x160 DUP2 ADD DUP3 MSTORE PUSH1 0x1 PUSH1 0x1 PUSH1 0xA0 SHL SUB DUP5 DUP2 AND DUP3 MSTORE PUSH1 0x20 DUP1 DUP4 ADD DUP10 DUP2 MSTORE PUSH1 0x0 DUP5 DUP7 ADD DUP2 SWAP1 MSTORE PUSH1 0x60 DUP6 ADD DUP11 SWAP1 MSTORE PUSH1 0x80 DUP6 ADD DUP10 SWAP1 MSTORE PUSH1 0xA0 DUP6 ADD DUP2 SWAP1 MSTORE PUSH1 0xC0 DUP6 ADD DUP2 SWAP1 MSTORE PUSH1 0xE0 DUP6 ADD DUP8 SWAP1 MSTORE PUSH2 0x100 DUP6 ADD DUP8 SWAP1 MSTORE PUSH2 0x120 DUP6 ADD DUP2 SWAP1 MSTORE PUSH2 0x140 DUP6 ADD DUP2 SWAP1 MSTORE DUP7 DUP2 MSTORE PUSH1 0x1A SWAP1 SWAP3 MSTORE SWAP4 SWAP1 KECCAK256 DUP3 MLOAD DUP2 SLOAD PUSH1 0x1 PUSH1 0x1 PUSH1 0xA0 SHL SUB NOT AND SWAP3 AND SWAP2 SWAP1 SWAP2 OR DUP2 SSTORE SWAP2 MLOAD SWAP1 SWAP2 SWAP1 PUSH1 0x1 DUP3 ADD SWAP1 PUSH2 0x31AB SWAP1 DUP3 PUSH2 0x3D88 JUMP JUMPDEST POP PUSH1 0x40 DUP3 DUP2 ADD MLOAD PUSH1 0x2 DUP4 ADD SSTORE PUSH1 0x60 DUP4 ADD MLOAD PUSH1 0x3 DUP4 ADD SSTORE PUSH1 0x80 DUP4 ADD MLOAD PUSH1 0x4 DUP4 ADD SSTORE PUSH1 0xA0 DUP4 ADD MLOAD PUSH1 0x5 DUP4 ADD SSTORE PUSH1 0xC0 DUP4 ADD MLOAD PUSH1 0x6 DUP4 ADD DUP1 SLOAD PUSH1 0xFF NOT AND SWAP2 ISZERO ISZERO SWAP2 SWAP1 SWAP2 OR SWAP1 SSTORE PUSH1 0xE0 DUP4 ADD MLOAD PUSH1 0x7 DUP4 ADD SSTORE PUSH2 0x100 DUP4 ADD MLOAD PUSH1 0x8 DUP4 ADD SSTORE PUSH2 0x120 DUP4 ADD MLOAD PUSH1 0x9 DUP4 ADD DUP1 SLOAD PUSH1 0x1 PUSH1 0x1 PUSH1 0xA0 SHL SUB NOT SWAP1 DUP2 AND PUSH1 0x1 PUSH1 0x1 PUSH1 0xA0 SHL SUB SWAP4 DUP5 AND OR SWAP1 SWAP2 SSTORE PUSH2 0x140 SWAP1 SWAP5 ADD MLOAD PUSH1 0xA SWAP1 SWAP4 ADD DUP1 SLOAD SWAP1 SWAP5 AND SWAP3 AND SWAP2 SWAP1 SWAP2 OR SWAP1 SWAP2 SSTORE MLOAD PUSH1 0x0 SWAP1 PUSH2 0x3255 SWAP1 DUP8 SWAP1 PUSH1 0x20 ADD PUSH2 0x3FFD JUMP JUMPDEST PUSH1 0x40 DUP1 MLOAD PUSH1 0x1F NOT DUP2 DUP5 SUB ADD DUP2 MSTORE SWAP2 DUP2 MSTORE DUP2 MLOAD PUSH1 0x20 SWAP3 DUP4 ADD KECCAK256 PUSH1 0x0 DUP2 DUP2 MSTORE PUSH1 0x21 DUP5 MSTORE DUP3 DUP2 KECCAK256 DUP7 SWAP1 SSTORE PUSH1 0x1 PUSH1 0x1 PUSH1 0xA0 SHL SUB DUP8 AND DUP2 MSTORE PUSH1 0x1B SWAP1 SWAP4 MSTORE SWAP2 KECCAK256 DUP1 SLOAD SWAP2 SWAP3 POP SWAP1 PUSH2 0x329E SWAP1 PUSH2 0x3D07 JUMP JUMPDEST ISZERO SWAP1 POP PUSH2 0x32D9 JUMPI PUSH1 0x1 PUSH1 0x1 PUSH1 0xA0 SHL SUB DUP4 AND PUSH1 0x0 SWAP1 DUP2 MSTORE PUSH1 0x1B PUSH1 0x20 MSTORE PUSH1 0x40 DUP2 KECCAK256 PUSH1 0x1 SWAP1 DUP2 ADD DUP1 SLOAD SWAP2 SWAP3 SWAP1 SWAP2 PUSH2 0x32D3 SWAP1 DUP5 SWAP1 PUSH2 0x3F1C JUMP JUMPDEST SWAP1 SWAP2 SSTORE POP POP JUMPDEST DUP3 PUSH1 0x1 PUSH1 0x1 PUSH1 0xA0 SHL SUB AND DUP3 PUSH32 0x9251C0179A4C52974F73725B6306BE29CF241F0F6BFD43F3A8D01A79A5DDFA53 DUP9 DUP9 DUP9 PUSH1 0x40 MLOAD PUSH2 0x3317 SWAP4 SWAP3 SWAP2 SWAP1 PUSH2 0x4019 JUMP JUMPDEST PUSH1 0x40 MLOAD DUP1 SWAP2 SUB SWAP1 LOG3 POP POP POP POP POP POP JUMP JUMPDEST PUSH1 0x0 DUP3 DUP2 MSTORE PUSH1 0x1A PUSH1 0x20 MSTORE PUSH1 0x40 DUP2 KECCAK256 PUSH1 0x6 DUP2 ADD SLOAD PUSH1 0xFF DUP5 DUP2 AND ISZERO ISZERO SWAP2 AND ISZERO ISZERO EQ PUSH2 0x3385 JUMPI PUSH1 0x40 MLOAD PUSH3 0x461BCD PUSH1 0xE5 SHL DUP2 MSTORE PUSH1 0x20 PUSH1 0x4 DUP3 ADD MSTORE PUSH1 0x10 PUSH1 0x24 DUP3 ADD MSTORE PUSH16 0x57726F6E6720766964656F2074797065 PUSH1 0x80 SHL PUSH1 0x44 DUP3 ADD MSTORE PUSH1 0x64 ADD PUSH2 0xC05 JUMP JUMPDEST DUP1 PUSH1 0x3 ADD SLOAD DUP2 PUSH1 0x2 ADD SLOAD LT PUSH2 0x33C7 JUMPI PUSH1 0x40 MLOAD PUSH3 0x461BCD PUSH1 0xE5 SHL DUP2 MSTORE PUSH1 0x20 PUSH1 0x4 DUP3 ADD MSTORE PUSH1 0x8 PUSH1 0x24 DUP3 ADD MSTORE PUSH8 0x14DBDB19081BDD5D PUSH1 0xC2 SHL PUSH1 0x44 DUP3 ADD MSTORE PUSH1 0x64 ADD PUSH2 0xC05 JUMP JUMPDEST PUSH1 0x40 DUP1 MLOAD PUSH1 0xA0 DUP1 DUP3 ADD DUP4 MSTORE PUSH1 0x9 SLOAD DUP3 MSTORE PUSH1 0xA SLOAD PUSH1 0x20 DUP1 DUP5 ADD SWAP2 SWAP1 SWAP2 MSTORE PUSH1 0xB SLOAD DUP4 DUP6 ADD MSTORE PUSH1 0xC SLOAD PUSH1 0x60 DUP1 DUP6 ADD SWAP2 SWAP1 SWAP2 MSTORE PUSH1 0xD SLOAD PUSH1 0x80 DUP1 DUP7 ADD SWAP2 SWAP1 SWAP2 MSTORE DUP6 MLOAD DUP1 DUP6 ADD DUP8 MSTORE PUSH1 0xE SLOAD DUP2 MSTORE PUSH1 0xF SLOAD DUP2 DUP6 ADD MSTORE PUSH1 0x10 SLOAD DUP2 DUP9 ADD MSTORE PUSH1 0x11 SLOAD DUP2 DUP5 ADD MSTORE PUSH1 0x12 SLOAD DUP2 DUP4 ADD MSTORE DUP7 MLOAD SWAP5 DUP6 ADD DUP8 MSTORE PUSH1 0x13 SLOAD DUP6 MSTORE PUSH1 0x14 SLOAD SWAP4 DUP6 ADD SWAP4 SWAP1 SWAP4 MSTORE PUSH1 0x15 SLOAD SWAP6 DUP5 ADD SWAP6 SWAP1 SWAP6 MSTORE PUSH1 0x16 SLOAD SWAP1 DUP4 ADD MSTORE PUSH1 0x17 SLOAD SWAP4 DUP3 ADD SWAP4 SWAP1 SWAP4 MSTORE PUSH1 0x0 SWAP3 DUP4 SWAP3 DUP4 SWAP3 DUP4 SWAP3 SWAP1 DUP4 DUP1 PUSH1 0xFF DUP13 AND DUP2 SUB PUSH2 0x348E JUMPI POP DUP4 MLOAD PUSH1 0x80 DUP6 ADD MLOAD DUP11 SLOAD SWAP2 SWAP10 POP SWAP8 POP PUSH1 0x1 PUSH1 0x1 PUSH1 0xA0 SHL SUB AND PUSH2 0x34D9 JUMP JUMPDEST DUP12 PUSH1 0xFF AND PUSH1 0x1 SUB PUSH2 0x34B1 JUMPI DUP4 MLOAD PUSH1 0x80 DUP6 ADD MLOAD PUSH1 0x40 DUP7 ADD MLOAD SWAP2 SWAP11 POP SWAP9 POP SWAP7 POP PUSH2 0x34D9 JUMP JUMPDEST DUP12 PUSH1 0xFF AND PUSH1 0x2 SUB PUSH2 0x34D9 JUMPI DUP3 PUSH1 0x0 ADD MLOAD SWAP9 POP DUP3 PUSH1 0x80 ADD MLOAD SWAP8 POP DUP3 PUSH1 0x40 ADD MLOAD SWAP7 POP DUP3 PUSH1 0x60 ADD MLOAD SWAP6 POP JUMPDEST PUSH1 0x64 PUSH2 0x34E5 DUP10 DUP5 PUSH2 0x3FAE JUMP JUMPDEST PUSH2 0x34EF SWAP2 SWAP1 PUSH2 0x3FDB JUMP JUMPDEST PUSH2 0x34F9 SWAP1 DUP4 PUSH2 0x3F9B JUMP JUMPDEST CALLVALUE LT ISZERO PUSH2 0x353E JUMPI PUSH1 0x40 MLOAD PUSH3 0x461BCD PUSH1 0xE5 SHL DUP2 MSTORE PUSH1 0x20 PUSH1 0x4 DUP3 ADD MSTORE PUSH1 0x13 PUSH1 0x24 DUP3 ADD MSTORE PUSH19 0x496E73756666696369656E742066756E647321 PUSH1 0x68 SHL PUSH1 0x44 DUP3 ADD MSTORE PUSH1 0x64 ADD PUSH2 0xC05 JUMP JUMPDEST DUP10 SLOAD PUSH2 0x3554 SWAP1 PUSH1 0x1 PUSH1 0x1 PUSH1 0xA0 SHL SUB AND DUP4 DUP12 PUSH2 0x3770 JUMP JUMPDEST DUP7 ISZERO PUSH2 0x3573 JUMPI PUSH1 0xA DUP11 ADD SLOAD PUSH2 0x3573 SWAP1 PUSH1 0x1 PUSH1 0x1 PUSH1 0xA0 SHL SUB AND DUP4 DUP9 PUSH2 0x3770 JUMP JUMPDEST DUP7 ISZERO PUSH2 0x3592 JUMPI PUSH1 0x9 DUP11 ADD SLOAD PUSH2 0x3592 SWAP1 PUSH1 0x1 PUSH1 0x1 PUSH1 0xA0 SHL SUB AND DUP4 DUP10 PUSH2 0x3770 JUMP JUMPDEST PUSH1 0x2 DUP11 ADD DUP1 SLOAD SWAP1 PUSH1 0x0 PUSH2 0x35A4 DUP4 PUSH2 0x3F03 JUMP JUMPDEST SWAP2 SWAP1 POP SSTORE POP PUSH1 0x22 PUSH1 0x0 CALLER PUSH1 0x1 PUSH1 0x1 PUSH1 0xA0 SHL SUB AND PUSH1 0x1 PUSH1 0x1 PUSH1 0xA0 SHL SUB AND DUP2 MSTORE PUSH1 0x20 ADD SWAP1 DUP2 MSTORE PUSH1 0x20 ADD PUSH1 0x0 KECCAK256 PUSH1 0x0 DUP15 DUP2 MSTORE PUSH1 0x20 ADD SWAP1 DUP2 MSTORE PUSH1 0x20 ADD PUSH1 0x0 KECCAK256 PUSH1 0x0 DUP2 SLOAD DUP1 SWAP3 SWAP2 SWAP1 PUSH2 0x35F0 SWAP1 PUSH2 0x3F03 JUMP JUMPDEST SWAP1 SWAP2 SSTORE POP PUSH1 0x1 SWAP15 SWAP14 POP POP POP POP POP POP POP POP POP POP POP POP POP POP JUMP JUMPDEST PUSH1 0x0 DUP2 DUP2 MSTORE PUSH1 0x1A PUSH1 0x20 SWAP1 DUP2 MSTORE PUSH1 0x40 DUP1 DUP4 KECCAK256 DUP2 MLOAD PUSH2 0x160 DUP2 ADD SWAP1 SWAP3 MSTORE DUP1 SLOAD PUSH1 0x1 PUSH1 0x1 PUSH1 0xA0 SHL SUB AND DUP3 MSTORE PUSH1 0x1 DUP2 ADD DUP1 SLOAD DUP6 SWAP5 DUP5 ADD SWAP2 SWAP1 PUSH2 0x3645 SWAP1 PUSH2 0x3D07 JUMP JUMPDEST DUP1 PUSH1 0x1F ADD PUSH1 0x20 DUP1 SWAP2 DIV MUL PUSH1 0x20 ADD PUSH1 0x40 MLOAD SWAP1 DUP2 ADD PUSH1 0x40 MSTORE DUP1 SWAP3 SWAP2 SWAP1 DUP2 DUP2 MSTORE PUSH1 0x20 ADD DUP3 DUP1 SLOAD PUSH2 0x3671 SWAP1 PUSH2 0x3D07 JUMP JUMPDEST DUP1 ISZERO PUSH2 0x36BE JUMPI DUP1 PUSH1 0x1F LT PUSH2 0x3693 JUMPI PUSH2 0x100 DUP1 DUP4 SLOAD DIV MUL DUP4 MSTORE SWAP2 PUSH1 0x20 ADD SWAP2 PUSH2 0x36BE JUMP JUMPDEST DUP3 ADD SWAP2 SWAP1 PUSH1 0x0 MSTORE PUSH1 0x20 PUSH1 0x0 KECCAK256 SWAP1 JUMPDEST DUP2 SLOAD DUP2 MSTORE SWAP1 PUSH1 0x1 ADD SWAP1 PUSH1 0x20 ADD DUP1 DUP4 GT PUSH2 0x36A1 JUMPI DUP3 SWAP1 SUB PUSH1 0x1F AND DUP3 ADD SWAP2 JUMPDEST POP POP POP SWAP2 DUP4 MSTORE POP POP PUSH1 0x2 DUP3 ADD SLOAD PUSH1 0x20 DUP3 ADD MSTORE PUSH1 0x3 DUP3 ADD SLOAD PUSH1 0x40 DUP3 ADD MSTORE PUSH1 0x4 DUP3 ADD SLOAD PUSH1 0x60 DUP3 ADD MSTORE PUSH1 0x5 DUP3 ADD SLOAD PUSH1 0x80 DUP3 ADD MSTORE PUSH1 0x6 DUP3 ADD SLOAD PUSH1 0xFF AND ISZERO ISZERO PUSH1 0xA0 DUP3 ADD MSTORE PUSH1 0x7 DUP3 ADD SLOAD PUSH1 0xC0 DUP1 DUP4 ADD SWAP2 SWAP1 SWAP2 MSTORE PUSH1 0x8 DUP4 ADD SLOAD PUSH1 0xE0 DUP4 ADD MSTORE PUSH1 0x9 DUP4 ADD SLOAD PUSH1 0x1 PUSH1 0x1 PUSH1 0xA0 SHL SUB SWAP1 DUP2 AND PUSH2 0x100 DUP5 ADD MSTORE PUSH1 0xA SWAP1 SWAP4 ADD SLOAD SWAP1 SWAP3 AND PUSH2 0x120 SWAP1 SWAP2 ADD MSTORE DUP2 ADD MLOAD SWAP1 SWAP2 POP PUSH2 0x374E JUMPI POP PUSH1 0x0 SWAP3 SWAP2 POP POP JUMP JUMPDEST DUP1 PUSH1 0xE0 ADD MLOAD DUP2 PUSH2 0x100 ADD MLOAD SUB PUSH2 0x3767 JUMPI POP PUSH1 0x1 SWAP3 SWAP2 POP POP JUMP JUMPDEST POP PUSH1 0x2 SWAP3 SWAP2 POP POP JUMP JUMPDEST PUSH1 0x0 PUSH1 0x64 PUSH2 0x377E DUP4 DUP6 PUSH2 0x3FAE JUMP JUMPDEST PUSH2 0x3788 SWAP2 SWAP1 PUSH2 0x3FDB JUMP JUMPDEST SWAP1 POP PUSH2 0x30F5 DUP5 DUP3 PUSH1 0x40 MLOAD DUP1 PUSH1 0x40 ADD PUSH1 0x40 MSTORE DUP1 PUSH1 0xE DUP2 MSTORE PUSH1 0x20 ADD PUSH14 0x14185E5B595B9D0819985A5B1959 PUSH1 0x92 SHL DUP2 MSTORE POP PUSH2 0x2ED0 JUMP JUMPDEST PUSH4 0x4E487B71 PUSH1 0xE0 SHL PUSH1 0x0 MSTORE PUSH1 0x41 PUSH1 0x4 MSTORE PUSH1 0x24 PUSH1 0x0 REVERT JUMPDEST PUSH1 0x0 DUP3 PUSH1 0x1F DUP4 ADD SLT PUSH2 0x37E2 JUMPI PUSH1 0x0 DUP1 REVERT JUMPDEST DUP2 CALLDATALOAD PUSH8 0xFFFFFFFFFFFFFFFF DUP2 GT ISZERO PUSH2 0x37FC JUMPI PUSH2 0x37FC PUSH2 0x37BB JUMP JUMPDEST PUSH1 0x40 MLOAD PUSH1 0x1F DUP3 ADD PUSH1 0x1F NOT SWAP1 DUP2 AND PUSH1 0x3F ADD AND DUP2 ADD PUSH8 0xFFFFFFFFFFFFFFFF DUP2 GT DUP3 DUP3 LT OR ISZERO PUSH2 0x382B JUMPI PUSH2 0x382B PUSH2 0x37BB JUMP JUMPDEST PUSH1 0x40 MSTORE DUP2 DUP2 MSTORE DUP4 DUP3 ADD PUSH1 0x20 ADD DUP6 LT ISZERO PUSH2 0x3843 JUMPI PUSH1 0x0 DUP1 REVERT JUMPDEST DUP2 PUSH1 0x20 DUP6 ADD PUSH1 0x20 DUP4 ADD CALLDATACOPY PUSH1 0x0 SWAP2 DUP2 ADD PUSH1 0x20 ADD SWAP2 SWAP1 SWAP2 MSTORE SWAP4 SWAP3 POP POP POP JUMP JUMPDEST PUSH1 0x0 PUSH1 0x20 DUP3 DUP5 SUB SLT ISZERO PUSH2 0x3872 JUMPI PUSH1 0x0 DUP1 REVERT JUMPDEST DUP2 CALLDATALOAD PUSH8 0xFFFFFFFFFFFFFFFF DUP2 GT ISZERO PUSH2 0x3889 JUMPI PUSH1 0x0 DUP1 REVERT JUMPDEST PUSH2 0x3895 DUP5 DUP3 DUP6 ADD PUSH2 0x37D1 JUMP JUMPDEST SWAP5 SWAP4 POP POP POP POP JUMP JUMPDEST PUSH1 0x0 PUSH1 0x20 DUP3 DUP5 SUB SLT ISZERO PUSH2 0x38AF JUMPI PUSH1 0x0 DUP1 REVERT JUMPDEST POP CALLDATALOAD SWAP2 SWAP1 POP JUMP JUMPDEST PUSH1 0x0 DUP1 PUSH1 0x40 DUP4 DUP6 SUB SLT ISZERO PUSH2 0x38C9 JUMPI PUSH1 0x0 DUP1 REVERT JUMPDEST POP POP DUP1 CALLDATALOAD SWAP3 PUSH1 0x20 SWAP1 SWAP2 ADD CALLDATALOAD SWAP2 POP JUMP JUMPDEST DUP1 CALLDATALOAD PUSH1 0x1 PUSH1 0x1 PUSH1 0xA0 SHL SUB DUP2 AND DUP2 EQ PUSH2 0x1DF3 JUMPI PUSH1 0x0 DUP1 REVERT JUMPDEST PUSH1 0x0 PUSH1 0x20 DUP3 DUP5 SUB SLT ISZERO PUSH2 0x3901 JUMPI PUSH1 0x0 DUP1 REVERT JUMPDEST PUSH2 0x2401 DUP3 PUSH2 0x38D8 JUMP JUMPDEST PUSH1 0x20 DUP1 DUP3 MSTORE DUP3 MLOAD DUP3 DUP3 ADD DUP2 SWAP1 MSTORE PUSH1 0x0 SWAP2 DUP5 ADD SWAP1 PUSH1 0x40 DUP5 ADD SWAP1 DUP4 JUMPDEST DUP2 DUP2 LT ISZERO PUSH2 0x3942 JUMPI DUP4 MLOAD DUP4 MSTORE PUSH1 0x20 SWAP4 DUP5 ADD SWAP4 SWAP1 SWAP3 ADD SWAP2 PUSH1 0x1 ADD PUSH2 0x3924 JUMP JUMPDEST POP SWAP1 SWAP6 SWAP5 POP POP POP POP POP JUMP JUMPDEST DUP1 CALLDATALOAD PUSH1 0xFF DUP2 AND DUP2 EQ PUSH2 0x1DF3 JUMPI PUSH1 0x0 DUP1 REVERT JUMPDEST PUSH1 0x0 DUP1 PUSH1 0x0 DUP1 PUSH1 0x0 DUP1 PUSH1 0xC0 DUP8 DUP10 SUB SLT ISZERO PUSH2 0x3977 JUMPI PUSH1 0x0 DUP1 REVERT JUMPDEST PUSH2 0x3980 DUP8 PUSH2 0x394D JUMP JUMPDEST SWAP9 PUSH1 0x20 DUP9 ADD CALLDATALOAD SWAP9 POP PUSH1 0x40 DUP9 ADD CALLDATALOAD SWAP8 PUSH1 0x60 DUP2 ADD CALLDATALOAD SWAP8 POP PUSH1 0x80 DUP2 ADD CALLDATALOAD SWAP7 POP PUSH1 0xA0 ADD CALLDATALOAD SWAP5 POP SWAP3 POP POP POP JUMP JUMPDEST PUSH1 0x0 DUP1 PUSH1 0x40 DUP4 DUP6 SUB SLT ISZERO PUSH2 0x39BB JUMPI PUSH1 0x0 DUP1 REVERT JUMPDEST DUP3 CALLDATALOAD SWAP2 POP PUSH2 0x39CB PUSH1 0x20 DUP5 ADD PUSH2 0x38D8 JUMP JUMPDEST SWAP1 POP SWAP3 POP SWAP3 SWAP1 POP JUMP JUMPDEST PUSH1 0x0 DUP1 PUSH1 0x0 PUSH1 0x60 DUP5 DUP7 SUB SLT ISZERO PUSH2 0x39E9 JUMPI PUSH1 0x0 DUP1 REVERT JUMPDEST DUP4 CALLDATALOAD PUSH8 0xFFFFFFFFFFFFFFFF DUP2 GT ISZERO PUSH2 0x3A00 JUMPI PUSH1 0x0 DUP1 REVERT JUMPDEST PUSH2 0x3A0C DUP7 DUP3 DUP8 ADD PUSH2 0x37D1 JUMP JUMPDEST SWAP7 PUSH1 0x20 DUP7 ADD CALLDATALOAD SWAP7 POP PUSH1 0x40 SWAP1 SWAP6 ADD CALLDATALOAD SWAP5 SWAP4 POP POP POP POP JUMP JUMPDEST PUSH1 0x0 JUMPDEST DUP4 DUP2 LT ISZERO PUSH2 0x3A3D JUMPI DUP2 DUP2 ADD MLOAD DUP4 DUP3 ADD MSTORE PUSH1 0x20 ADD PUSH2 0x3A25 JUMP JUMPDEST POP POP PUSH1 0x0 SWAP2 ADD MSTORE JUMP JUMPDEST PUSH1 0x0 DUP2 MLOAD DUP1 DUP5 MSTORE PUSH2 0x3A5E DUP2 PUSH1 0x20 DUP7 ADD PUSH1 0x20 DUP7 ADD PUSH2 0x3A22 JUMP JUMPDEST PUSH1 0x1F ADD PUSH1 0x1F NOT AND SWAP3 SWAP1 SWAP3 ADD PUSH1 0x20 ADD SWAP3 SWAP2 POP POP JUMP JUMPDEST PUSH1 0x80 DUP2 MSTORE PUSH1 0x0 PUSH2 0x3A85 PUSH1 0x80 DUP4 ADD DUP8 PUSH2 0x3A46 JUMP JUMPDEST PUSH1 0x20 DUP4 ADD SWAP6 SWAP1 SWAP6 MSTORE POP PUSH1 0x40 DUP2 ADD SWAP3 SWAP1 SWAP3 MSTORE PUSH1 0x60 SWAP1 SWAP2 ADD MSTORE SWAP2 SWAP1 POP JUMP JUMPDEST PUSH1 0x0 PUSH1 0x20 DUP3 DUP5 SUB SLT ISZERO PUSH2 0x3AB3 JUMPI PUSH1 0x0 DUP1 REVERT JUMPDEST PUSH2 0x2401 DUP3 PUSH2 0x394D JUMP JUMPDEST PUSH1 0x0 DUP1 PUSH1 0x40 DUP4 DUP6 SUB SLT ISZERO PUSH2 0x3ACF JUMPI PUSH1 0x0 DUP1 REVERT JUMPDEST PUSH2 0x3AD8 DUP4 PUSH2 0x38D8 JUMP JUMPDEST SWAP2 POP PUSH2 0x39CB PUSH1 0x20 DUP5 ADD PUSH2 0x38D8 JUMP JUMPDEST PUSH1 0x0 DUP1 PUSH1 0x40 DUP4 DUP6 SUB SLT ISZERO PUSH2 0x3AF9 JUMPI PUSH1 0x0 DUP1 REVERT JUMPDEST PUSH2 0x3B02 DUP4 PUSH2 0x38D8 JUMP JUMPDEST SWAP5 PUSH1 0x20 SWAP4 SWAP1 SWAP4 ADD CALLDATALOAD SWAP4 POP POP POP JUMP JUMPDEST PUSH1 0x20 DUP2 MSTORE PUSH1 0x0 DUP3 MLOAD PUSH1 0x80 PUSH1 0x20 DUP5 ADD MSTORE PUSH2 0x3B2C PUSH1 0xA0 DUP5 ADD DUP3 PUSH2 0x3A46 JUMP JUMPDEST SWAP1 POP PUSH1 0x20 DUP5 ADD MLOAD PUSH1 0x40 DUP5 ADD MSTORE PUSH1 0x40 DUP5 ADD MLOAD PUSH1 0x60 DUP5 ADD MSTORE PUSH1 0x60 DUP5 ADD MLOAD PUSH1 0x80 DUP5 ADD MSTORE DUP1 SWAP2 POP POP SWAP3 SWAP2 POP POP JUMP JUMPDEST PUSH1 0x0 DUP1 PUSH1 0x0 PUSH1 0x60 DUP5 DUP7 SUB SLT ISZERO PUSH2 0x3B6B JUMPI PUSH1 0x0 DUP1 REVERT JUMPDEST POP POP DUP2 CALLDATALOAD SWAP4 PUSH1 0x20 DUP4 ADD CALLDATALOAD SWAP4 POP PUSH1 0x40 SWAP1 SWAP3 ADD CALLDATALOAD SWAP2 SWAP1 POP JUMP JUMPDEST PUSH1 0x0 PUSH1 0x20 DUP3 ADD PUSH1 0x20 DUP4 MSTORE DUP1 DUP5 MLOAD DUP1 DUP4 MSTORE PUSH1 0x40 DUP6 ADD SWAP2 POP PUSH1 0x40 DUP2 PUSH1 0x5 SHL DUP7 ADD ADD SWAP3 POP PUSH1 0x20 DUP7 ADD PUSH1 0x0 JUMPDEST DUP3 DUP2 LT ISZERO PUSH2 0x3C08 JUMPI DUP7 DUP6 SUB PUSH1 0x3F NOT ADD DUP5 MSTORE DUP2 MLOAD DUP1 MLOAD PUSH1 0x1 PUSH1 0x1 PUSH1 0xA0 SHL SUB AND DUP7 MSTORE PUSH1 0x20 DUP1 DUP3 ADD MLOAD PUSH1 0x60 SWAP2 DUP9 ADD DUP3 SWAP1 MSTORE SWAP1 PUSH2 0x3BE5 SWAP1 DUP9 ADD DUP3 PUSH2 0x3A46 JUMP JUMPDEST PUSH1 0x40 SWAP3 DUP4 ADD MLOAD SWAP8 SWAP1 SWAP3 ADD SWAP7 SWAP1 SWAP7 MSTORE SWAP5 POP PUSH1 0x20 SWAP4 DUP5 ADD SWAP4 SWAP2 SWAP1 SWAP2 ADD SWAP1 PUSH1 0x1 ADD PUSH2 0x3BAA JUMP JUMPDEST POP SWAP3 SWAP7 SWAP6 POP POP POP POP POP POP JUMP JUMPDEST PUSH1 0x1 PUSH1 0x1 PUSH1 0xA0 SHL SUB DUP13 AND DUP2 MSTORE PUSH2 0x160 PUSH1 0x20 DUP3 ADD DUP2 SWAP1 MSTORE PUSH1 0x0 SWAP1 PUSH2 0x3C39 SWAP1 DUP4 ADD DUP14 PUSH2 0x3A46 JUMP JUMPDEST PUSH1 0x40 DUP4 ADD SWAP12 SWAP1 SWAP12 MSTORE POP PUSH1 0x60 DUP2 ADD SWAP9 SWAP1 SWAP9 MSTORE PUSH1 0x80 DUP9 ADD SWAP7 SWAP1 SWAP7 MSTORE PUSH1 0xA0 DUP8 ADD SWAP5 SWAP1 SWAP5 MSTORE SWAP2 ISZERO ISZERO PUSH1 0xC0 DUP7 ADD MSTORE PUSH1 0xE0 DUP6 ADD MSTORE PUSH2 0x100 DUP5 ADD MSTORE PUSH1 0x1 PUSH1 0x1 PUSH1 0xA0 SHL SUB SWAP1 DUP2 AND PUSH2 0x120 DUP5 ADD MSTORE AND PUSH2 0x140 SWAP1 SWAP2 ADD MSTORE SWAP3 SWAP2 POP POP JUMP JUMPDEST PUSH1 0x0 DUP1 PUSH1 0x40 DUP4 DUP6 SUB SLT ISZERO PUSH2 0x3C9F JUMPI PUSH1 0x0 DUP1 REVERT JUMPDEST DUP3 CALLDATALOAD SWAP2 POP PUSH1 0x20 DUP4 ADD CALLDATALOAD PUSH8 0xFFFFFFFFFFFFFFFF DUP2 GT ISZERO PUSH2 0x3CBD JUMPI PUSH1 0x0 DUP1 REVERT JUMPDEST PUSH2 0x3CC9 DUP6 DUP3 DUP7 ADD PUSH2 0x37D1 JUMP JUMPDEST SWAP2 POP POP SWAP3 POP SWAP3 SWAP1 POP JUMP JUMPDEST PUSH1 0x1 PUSH1 0x1 PUSH1 0xA0 SHL SUB DUP5 AND DUP2 MSTORE PUSH1 0x60 PUSH1 0x20 DUP3 ADD DUP2 SWAP1 MSTORE PUSH1 0x0 SWAP1 PUSH2 0x3CF7 SWAP1 DUP4 ADD DUP6 PUSH2 0x3A46 JUMP JUMPDEST SWAP1 POP DUP3 PUSH1 0x40 DUP4 ADD MSTORE SWAP5 SWAP4 POP POP POP POP JUMP JUMPDEST PUSH1 0x1 DUP2 DUP2 SHR SWAP1 DUP3 AND DUP1 PUSH2 0x3D1B JUMPI PUSH1 0x7F DUP3 AND SWAP2 POP JUMPDEST PUSH1 0x20 DUP3 LT DUP2 SUB PUSH2 0x3D3B JUMPI PUSH4 0x4E487B71 PUSH1 0xE0 SHL PUSH1 0x0 MSTORE PUSH1 0x22 PUSH1 0x4 MSTORE PUSH1 0x24 PUSH1 0x0 REVERT JUMPDEST POP SWAP2 SWAP1 POP JUMP JUMPDEST PUSH1 0x1F DUP3 GT ISZERO PUSH2 0x18F9 JUMPI DUP1 PUSH1 0x0 MSTORE PUSH1 0x20 PUSH1 0x0 KECCAK256 PUSH1 0x1F DUP5 ADD PUSH1 0x5 SHR DUP2 ADD PUSH1 0x20 DUP6 LT ISZERO PUSH2 0x3D68 JUMPI POP DUP1 JUMPDEST PUSH1 0x1F DUP5 ADD PUSH1 0x5 SHR DUP3 ADD SWAP2 POP JUMPDEST DUP2 DUP2 LT ISZERO PUSH2 0x2F53 JUMPI PUSH1 0x0 DUP2 SSTORE PUSH1 0x1 ADD PUSH2 0x3D74 JUMP JUMPDEST DUP2 MLOAD PUSH8 0xFFFFFFFFFFFFFFFF DUP2 GT ISZERO PUSH2 0x3DA2 JUMPI PUSH2 0x3DA2 PUSH2 0x37BB JUMP JUMPDEST PUSH2 0x3DB6 DUP2 PUSH2 0x3DB0 DUP5 SLOAD PUSH2 0x3D07 JUMP JUMPDEST DUP5 PUSH2 0x3D41 JUMP JUMPDEST PUSH1 0x20 PUSH1 0x1F DUP3 GT PUSH1 0x1 DUP2 EQ PUSH2 0x3DEA JUMPI PUSH1 0x0 DUP4 ISZERO PUSH2 0x3DD2 JUMPI POP DUP5 DUP3 ADD MLOAD JUMPDEST PUSH1 0x0 NOT PUSH1 0x3 DUP6 SWAP1 SHL SHR NOT AND PUSH1 0x1 DUP5 SWAP1 SHL OR DUP5 SSTORE PUSH2 0x2F53 JUMP JUMPDEST PUSH1 0x0 DUP5 DUP2 MSTORE PUSH1 0x20 DUP2 KECCAK256 PUSH1 0x1F NOT DUP6 AND SWAP2 JUMPDEST DUP3 DUP2 LT ISZERO PUSH2 0x3E1A JUMPI DUP8 DUP6 ADD MLOAD DUP3 SSTORE PUSH1 0x20 SWAP5 DUP6 ADD SWAP5 PUSH1 0x1 SWAP1 SWAP3 ADD SWAP2 ADD PUSH2 0x3DFA JUMP JUMPDEST POP DUP5 DUP3 LT ISZERO PUSH2 0x3E38 JUMPI DUP7 DUP5 ADD MLOAD PUSH1 0x0 NOT PUSH1 0x3 DUP8 SWAP1 SHL PUSH1 0xF8 AND SHR NOT AND DUP2 SSTORE JUMPDEST POP POP POP POP PUSH1 0x1 SWAP1 DUP2 SHL ADD SWAP1 SSTORE POP JUMP JUMPDEST PUSH1 0x20 DUP2 MSTORE PUSH1 0x0 PUSH2 0x2401 PUSH1 0x20 DUP4 ADD DUP5 PUSH2 0x3A46 JUMP JUMPDEST PUSH1 0x20 DUP1 DUP3 MSTORE PUSH1 0xE SWAP1 DUP3 ADD MSTORE PUSH14 0x139BDD08185D5D1A1BDC9A5E9959 PUSH1 0x92 SHL PUSH1 0x40 DUP3 ADD MSTORE PUSH1 0x60 ADD SWAP1 JUMP JUMPDEST PUSH1 0x20 DUP1 DUP3 MSTORE PUSH1 0x13 SWAP1 DUP3 ADD MSTORE PUSH19 0x159A59195BC8191BD95CDB89DD08195E1A5CDD PUSH1 0x6A SHL PUSH1 0x40 DUP3 ADD MSTORE PUSH1 0x60 ADD SWAP1 JUMP JUMPDEST PUSH4 0x4E487B71 PUSH1 0xE0 SHL PUSH1 0x0 MSTORE PUSH1 0x11 PUSH1 0x4 MSTORE PUSH1 0x24 PUSH1 0x0 REVERT JUMPDEST PUSH1 0x0 DUP2 PUSH2 0x3ED4 JUMPI PUSH2 0x3ED4 PUSH2 0x3EAF JUMP JUMPDEST POP PUSH1 0x0 NOT ADD SWAP1 JUMP JUMPDEST PUSH1 0x20 DUP1 DUP3 MSTORE PUSH1 0xD SWAP1 DUP3 ADD MSTORE PUSH13 0x125B9D985B1A59081B1A5B5A5D PUSH1 0x9A SHL PUSH1 0x40 DUP3 ADD MSTORE PUSH1 0x60 ADD SWAP1 JUMP JUMPDEST PUSH1 0x0 PUSH1 0x1 DUP3 ADD PUSH2 0x3F15 JUMPI PUSH2 0x3F15 PUSH2 0x3EAF JUMP JUMPDEST POP PUSH1 0x1 ADD SWAP1 JUMP JUMPDEST DUP1 DUP3 ADD DUP1 DUP3 GT ISZERO PUSH2 0x14A1 JUMPI PUSH2 0x14A1 PUSH2 0x3EAF JUMP JUMPDEST DUP1 MLOAD PUSH10 0xFFFFFFFFFFFFFFFFFFFF DUP2 AND DUP2 EQ PUSH2 0x1DF3 JUMPI PUSH1 0x0 DUP1 REVERT JUMPDEST PUSH1 0x0 DUP1 PUSH1 0x0 DUP1 PUSH1 0x0 PUSH1 0xA0 DUP7 DUP9 SUB SLT ISZERO PUSH2 0x3F61 JUMPI PUSH1 0x0 DUP1 REVERT JUMPDEST PUSH2 0x3F6A DUP7 PUSH2 0x3F2F JUMP JUMPDEST PUSH1 0x20 DUP8 ADD MLOAD PUSH1 0x40 DUP9 ADD MLOAD PUSH1 0x60 DUP10 ADD MLOAD SWAP3 SWAP8 POP SWAP1 SWAP6 POP SWAP4 POP SWAP2 POP PUSH2 0x3F8F PUSH1 0x80 DUP8 ADD PUSH2 0x3F2F JUMP JUMPDEST SWAP1 POP SWAP3 SWAP6 POP SWAP3 SWAP6 SWAP1 SWAP4 POP JUMP JUMPDEST DUP2 DUP2 SUB DUP2 DUP2 GT ISZERO PUSH2 0x14A1 JUMPI PUSH2 0x14A1 PUSH2 0x3EAF JUMP JUMPDEST DUP1 DUP3 MUL DUP2 ISZERO DUP3 DUP3 DIV DUP5 EQ OR PUSH2 0x14A1 JUMPI PUSH2 0x14A1 PUSH2 0x3EAF JUMP JUMPDEST PUSH4 0x4E487B71 PUSH1 0xE0 SHL PUSH1 0x0 MSTORE PUSH1 0x32 PUSH1 0x4 MSTORE PUSH1 0x24 PUSH1 0x0 REVERT JUMPDEST PUSH1 0x0 DUP3 PUSH2 0x3FF8 JUMPI PUSH4 0x4E487B71 PUSH1 0xE0 SHL PUSH1 0x0 MSTORE PUSH1 0x12 PUSH1 0x4 MSTORE PUSH1 0x24 PUSH1 0x0 REVERT JUMPDEST POP DIV SWAP1 JUMP JUMPDEST PUSH1 0x0 DUP3 MLOAD PUSH2 0x400F DUP2 DUP5 PUSH1 0x20 DUP8 ADD PUSH2 0x3A22 JUMP JUMPDEST SWAP2 SWAP1 SWAP2 ADD SWAP3 SWAP2 POP POP JUMP JUMPDEST PUSH1 0x60 DUP2 MSTORE PUSH1 0x0 PUSH2 0x402C PUSH1 0x60 DUP4 ADD DUP7 PUSH2 0x3A46 JUMP JUMPDEST PUSH1 0x20 DUP4 ADD SWAP5 SWAP1 SWAP5 MSTORE POP PUSH1 0x40 ADD MSTORE SWAP2 SWAP1 POP JUMP INVALID LOG2 PUSH5 0x6970667358 0x22 SLT KECCAK256 DUP7 0xF 0xEB DUP10 0x1F 0x23 PUSH20 0x9780445FEA7657CCC95D76EAAF5D7A0583EADC1E ADDRESS GASLIMIT JUMPDEST 0xC 0xC PUSH5 0x736F6C6343 STOP ADDMOD SHR STOP CALLER "
        },
        "methodIdentifiers": {
          "USDC_SCALAR()": "08796fda",
          "acceptOwnership()": "79ba5097",
          "balances(address,uint256)": "cbf1304d",
          "commentOnVideo(uint256,string)": "e8ed1653",
          "comments(uint256,uint256)": "fc6c776f",
          "creators(address)": "933166e1",
          "fannitMintLimit()": "0327b655",
          "fannitVideo(uint256)": "25d9c71b",
          "fannitsOfVideo(uint256,uint256)": "0e8437e0",
          "followCreator(address)": "4d90bc37",
          "following(address,address)": "ce9ae001",
          "getBalance()": "12065fe0",
          "getCreatorProfile(address)": "9e39e58d",
          "getEthPrice()": "67c9b017",
          "getFannitMintLimit()": "f1f2c58d",
          "getFannitsOfVideo(uint256)": "1c0081a3",
          "getSharedRevenue(uint8)": "958a9b72",
          "getTotalComments(uint256)": "587520fa",
          "getTotalFollowers(address)": "55e6a806",
          "getUsdcFeeInEth()": "08d5c327",
          "getVideoComments(uint256)": "daf6160c",
          "getVideoCommentsPaginated(uint256,uint256,uint256)": "d2825af3",
          "hasLikedVideo(uint256,address)": "46a094d2",
          "hasfannited(address,uint256)": "9b40e6ec",
          "isFollowing(address,address)": "99ec3a42",
          "likeVideo(uint256)": "27260d5c",
          "likedBy(uint256,address)": "c0a19963",
          "maxMintPrice()": "32cb9eea",
          "mintFannit(uint256)": "c99fda34",
          "mintLimit()": "996517cf",
          "mintVideo(uint256)": "7ce2a824",
          "owner()": "8da5cb5b",
          "pendingOwner()": "e30c3978",
          "projectWallet()": "beb08ab9",
          "refannitMintLimit()": "64db36d4",
          "setFannitMintLimit(uint256)": "cbdf753b",
          "setFee(uint256)": "69fe0e2d",
          "setProjectWallet(address)": "8a780447",
          "setRefannitMintLimit(uint256)": "e6f477ef",
          "setRevenueSplit(uint8,uint256,uint256,uint256,uint256,uint256)": "2c8739d6",
          "tipCreator(address)": "65c4e4aa",
          "transferOwnership(address)": "f2fde38b",
          "unfollowCreator(address)": "18196191",
          "unlikeVideo(uint256)": "11abd324",
          "updateGlobalMintLimit(uint256)": "09897097",
          "updateMaximumMintPrice(uint256)": "a5b6f941",
          "updateMintLimit(uint256,uint256)": "150f885e",
          "updateMintPrice(uint256,uint256)": "ec9ca258",
          "updateProfile(string)": "009299e3",
          "uploadVideo(string,uint256,uint256)": "6976c192",
          "usdcFee()": "136f5cdd",
          "videoIdByHash(bytes32)": "d5caafa1",
          "videos(uint256)": "e6821bf5",
          "videosCount()": "ef08523b",
          "withdraw()": "3ccfd60b"
        }
      }
    }
  }
}