{
  "_format": "hh-sol-artifact-1",
  "contractName": "Sessions",
  "sourceName": "contracts/Sessions.sol",
  "abi": [
    {
      "inputs": [],
      "stateMutability": "nonpayable",
      "type": "constructor"
    },
    {
      "inputs": [],
      "name": "ReentrancyGuardReentrantCall",
      "type": "error"
    },
    {
      "anonymous": false,
      "inputs": [
        {
          "indexed": true,
          "internalType": "uint256",
          "name": "videoId",
          "type": "uint256"
        },
        {
          "indexed": true,
          "internalType": "address",
          "name": "user",
          "type": "address"
        },
        {
          "indexed": false,
          "internalType": "string",
          "name": "commentText",
          "type": "string"
        }
      ],
      "name": "CommentAdded",
      "type": "event"
    },
    {
      "anonymous": false,
      "inputs": [
        {
          "indexed": true,
          "internalType": "address",
          "name": "follower",
          "type": "address"
        },
        {
          "indexed": true,
          "internalType": "address",
          "name": "creator",
          "type": "address"
        }
      ],
      "name": "CreatorFollowed",
      "type": "event"
    },
    {
      "anonymous": false,
      "inputs": [
        {
          "indexed": true,
          "internalType": "address",
          "name": "creator",
          "type": "address"
        },
        {
          "indexed": false,
          "internalType": "string",
          "name": "metadataUri",
          "type": "string"
        }
      ],
      "name": "CreatorProfileUpdated",
      "type": "event"
    },
    {
      "anonymous": false,
      "inputs": [
        {
          "indexed": true,
          "internalType": "address",
          "name": "tippedBy",
          "type": "address"
        },
        {
          "indexed": true,
          "internalType": "address",
          "name": "creator",
          "type": "address"
        },
        {
          "indexed": false,
          "internalType": "uint256",
          "name": "amount",
          "type": "uint256"
        }
      ],
      "name": "CreatorTipped",
      "type": "event"
    },
    {
      "anonymous": false,
      "inputs": [
        {
          "indexed": true,
          "internalType": "address",
          "name": "unfollower",
          "type": "address"
        },
        {
          "indexed": true,
          "internalType": "address",
          "name": "creator",
          "type": "address"
        }
      ],
      "name": "CreatorUnfollowed",
      "type": "event"
    },
    {
      "anonymous": false,
      "inputs": [
        {
          "indexed": false,
          "internalType": "uint256",
          "name": "newFee",
          "type": "uint256"
        }
      ],
      "name": "FeeUpdated",
      "type": "event"
    },
    {
      "anonymous": false,
      "inputs": [
        {
          "indexed": false,
          "internalType": "uint256",
          "name": "newMintLimit",
          "type": "uint256"
        }
      ],
      "name": "GlobalMintLimitUpdated",
      "type": "event"
    },
    {
      "anonymous": false,
      "inputs": [
        {
          "indexed": false,
          "internalType": "uint256",
          "name": "newMintPrice",
          "type": "uint256"
        }
      ],
      "name": "MaxMintPriceUpdated",
      "type": "event"
    },
    {
      "anonymous": false,
      "inputs": [
        {
          "indexed": true,
          "internalType": "uint256",
          "name": "videoId",
          "type": "uint256"
        },
        {
          "indexed": false,
          "internalType": "uint256",
          "name": "newMintLimit",
          "type": "uint256"
        }
      ],
      "name": "MintLimitUpdated",
      "type": "event"
    },
    {
      "anonymous": false,
      "inputs": [
        {
          "indexed": true,
          "internalType": "uint256",
          "name": "videoId",
          "type": "uint256"
        },
        {
          "indexed": false,
          "internalType": "uint256",
          "name": "newPrice",
          "type": "uint256"
        }
      ],
      "name": "MintPriceUpdated",
      "type": "event"
    },
    {
      "anonymous": false,
      "inputs": [
        {
          "indexed": true,
          "internalType": "address",
          "name": "prevOwner",
          "type": "address"
        },
        {
          "indexed": true,
          "internalType": "address",
          "name": "newOwner",
          "type": "address"
        }
      ],
      "name": "OwnershipTransferred",
      "type": "event"
    },
    {
      "anonymous": false,
      "inputs": [
        {
          "indexed": false,
          "internalType": "address",
          "name": "newWallet",
          "type": "address"
        }
      ],
      "name": "ProjectWalletUpdated",
      "type": "event"
    },
    {
      "anonymous": false,
      "inputs": [
        {
          "indexed": false,
          "internalType": "uint256",
          "name": "projectSharePercentage",
          "type": "uint256"
        },
        {
          "indexed": false,
          "internalType": "uint256",
          "name": "creatorSharePercentage",
          "type": "uint256"
        },
        {
          "indexed": false,
          "internalType": "uint256",
          "name": "minterSharePercentage",
          "type": "uint256"
        }
      ],
      "name": "RevenueSplitUpdated",
      "type": "event"
    },
    {
      "anonymous": false,
      "inputs": [
        {
          "indexed": true,
          "internalType": "uint256",
          "name": "videoId",
          "type": "uint256"
        },
        {
          "indexed": true,
          "internalType": "address",
          "name": "user",
          "type": "address"
        }
      ],
      "name": "VideoLiked",
      "type": "event"
    },
    {
      "anonymous": false,
      "inputs": [
        {
          "indexed": true,
          "internalType": "uint256",
          "name": "videoId",
          "type": "uint256"
        },
        {
          "indexed": true,
          "internalType": "address",
          "name": "minter",
          "type": "address"
        },
        {
          "indexed": false,
          "internalType": "uint256",
          "name": "price",
          "type": "uint256"
        }
      ],
      "name": "VideoMinted",
      "type": "event"
    },
    {
      "anonymous": false,
      "inputs": [
        {
          "indexed": true,
          "internalType": "uint256",
          "name": "videoId",
          "type": "uint256"
        },
        {
          "indexed": true,
          "internalType": "address",
          "name": "user",
          "type": "address"
        }
      ],
      "name": "VideoUnliked",
      "type": "event"
    },
    {
      "anonymous": false,
      "inputs": [
        {
          "indexed": true,
          "internalType": "uint256",
          "name": "videoId",
          "type": "uint256"
        },
        {
          "indexed": true,
          "internalType": "address",
          "name": "creator",
          "type": "address"
        },
        {
          "indexed": false,
          "internalType": "uint256",
          "name": "mediaId",
          "type": "uint256"
        },
        {
          "indexed": false,
          "internalType": "uint256",
          "name": "mintLimit",
          "type": "uint256"
        },
        {
          "indexed": false,
          "internalType": "uint256",
          "name": "priceInWei",
          "type": "uint256"
        }
      ],
      "name": "VideoUploaded",
      "type": "event"
    },
    {
      "inputs": [],
      "name": "USDC_SCALAR",
      "outputs": [
        {
          "internalType": "uint256",
          "name": "",
          "type": "uint256"
        }
      ],
      "stateMutability": "view",
      "type": "function"
    },
    {
      "inputs": [],
      "name": "acceptOwnership",
      "outputs": [],
      "stateMutability": "nonpayable",
      "type": "function"
    },
    {
      "inputs": [
        {
          "internalType": "uint256",
          "name": "_videoId",
          "type": "uint256"
        },
        {
          "internalType": "string",
          "name": "_commentText",
          "type": "string"
        }
      ],
      "name": "commentOnVideo",
      "outputs": [],
      "stateMutability": "nonpayable",
      "type": "function"
    },
    {
      "inputs": [
        {
          "internalType": "uint256",
          "name": "",
          "type": "uint256"
        },
        {
          "internalType": "uint256",
          "name": "",
          "type": "uint256"
        }
      ],
      "name": "comments",
      "outputs": [
        {
          "internalType": "address",
          "name": "commenter",
          "type": "address"
        },
        {
          "internalType": "string",
          "name": "text",
          "type": "string"
        },
        {
          "internalType": "uint256",
          "name": "timestamp",
          "type": "uint256"
        }
      ],
      "stateMutability": "view",
      "type": "function"
    },
    {
      "inputs": [],
      "name": "creatorSharePercentage",
      "outputs": [
        {
          "internalType": "uint256",
          "name": "",
          "type": "uint256"
        }
      ],
      "stateMutability": "view",
      "type": "function"
    },
    {
      "inputs": [
        {
          "internalType": "address",
          "name": "",
          "type": "address"
        }
      ],
      "name": "creators",
      "outputs": [
        {
          "internalType": "string",
          "name": "metadataUri",
          "type": "string"
        },
        {
          "internalType": "uint256",
          "name": "totalVideos",
          "type": "uint256"
        },
        {
          "internalType": "uint256",
          "name": "totalFollowers",
          "type": "uint256"
        },
        {
          "internalType": "uint256",
          "name": "totalTipsReceived",
          "type": "uint256"
        }
      ],
      "stateMutability": "view",
      "type": "function"
    },
    {
      "inputs": [
        {
          "internalType": "address",
          "name": "_creator",
          "type": "address"
        }
      ],
      "name": "followCreator",
      "outputs": [],
      "stateMutability": "nonpayable",
      "type": "function"
    },
    {
      "inputs": [
        {
          "internalType": "address",
          "name": "",
          "type": "address"
        },
        {
          "internalType": "address",
          "name": "",
          "type": "address"
        }
      ],
      "name": "following",
      "outputs": [
        {
          "internalType": "bool",
          "name": "",
          "type": "bool"
        }
      ],
      "stateMutability": "view",
      "type": "function"
    },
    {
      "inputs": [],
      "name": "getBalance",
      "outputs": [
        {
          "internalType": "uint256",
          "name": "",
          "type": "uint256"
        }
      ],
      "stateMutability": "view",
      "type": "function"
    },
    {
      "inputs": [
        {
          "internalType": "address",
          "name": "_creator",
          "type": "address"
        }
      ],
      "name": "getCreatorProfile",
      "outputs": [
        {
          "components": [
            {
              "internalType": "string",
              "name": "metadataUri",
              "type": "string"
            },
            {
              "internalType": "uint256",
              "name": "totalVideos",
              "type": "uint256"
            },
            {
              "internalType": "uint256",
              "name": "totalFollowers",
              "type": "uint256"
            },
            {
              "internalType": "uint256",
              "name": "totalTipsReceived",
              "type": "uint256"
            }
          ],
          "internalType": "struct ISessions.Creator",
          "name": "",
          "type": "tuple"
        }
      ],
      "stateMutability": "view",
      "type": "function"
    },
    {
      "inputs": [],
      "name": "getEthPrice",
      "outputs": [
        {
          "internalType": "uint256",
          "name": "",
          "type": "uint256"
        }
      ],
      "stateMutability": "view",
      "type": "function"
    },
    {
      "inputs": [],
      "name": "getSharedRevenue",
      "outputs": [
        {
          "internalType": "uint256[3]",
          "name": "",
          "type": "uint256[3]"
        }
      ],
      "stateMutability": "view",
      "type": "function"
    },
    {
      "inputs": [
        {
          "internalType": "uint256",
          "name": "_videoId",
          "type": "uint256"
        }
      ],
      "name": "getTotalComments",
      "outputs": [
        {
          "internalType": "uint256",
          "name": "",
          "type": "uint256"
        }
      ],
      "stateMutability": "view",
      "type": "function"
    },
    {
      "inputs": [
        {
          "internalType": "address",
          "name": "_creator",
          "type": "address"
        }
      ],
      "name": "getTotalFollowers",
      "outputs": [
        {
          "internalType": "uint256",
          "name": "",
          "type": "uint256"
        }
      ],
      "stateMutability": "view",
      "type": "function"
    },
    {
      "inputs": [
        {
          "internalType": "uint256",
          "name": "_videoId",
          "type": "uint256"
        }
      ],
      "name": "getTotalMintCost",
      "outputs": [
        {
          "internalType": "uint256",
          "name": "",
          "type": "uint256"
        }
      ],
      "stateMutability": "view",
      "type": "function"
    },
    {
      "inputs": [
        {
          "internalType": "uint256",
          "name": "_videoId",
          "type": "uint256"
        }
      ],
      "name": "getVideoComments",
      "outputs": [
        {
          "components": [
            {
              "internalType": "address",
              "name": "commenter",
              "type": "address"
            },
            {
              "internalType": "string",
              "name": "text",
              "type": "string"
            },
            {
              "internalType": "uint256",
              "name": "timestamp",
              "type": "uint256"
            }
          ],
          "internalType": "struct ISessions.Comment[]",
          "name": "",
          "type": "tuple[]"
        }
      ],
      "stateMutability": "view",
      "type": "function"
    },
    {
      "inputs": [
        {
          "internalType": "uint256",
          "name": "_videoId",
          "type": "uint256"
        },
        {
          "internalType": "uint256",
          "name": "offset",
          "type": "uint256"
        },
        {
          "internalType": "uint256",
          "name": "limit",
          "type": "uint256"
        }
      ],
      "name": "getVideoCommentsPaginated",
      "outputs": [
        {
          "components": [
            {
              "internalType": "address",
              "name": "commenter",
              "type": "address"
            },
            {
              "internalType": "string",
              "name": "text",
              "type": "string"
            },
            {
              "internalType": "uint256",
              "name": "timestamp",
              "type": "uint256"
            }
          ],
          "internalType": "struct ISessions.Comment[]",
          "name": "",
          "type": "tuple[]"
        }
      ],
      "stateMutability": "view",
      "type": "function"
    },
    {
      "inputs": [
        {
          "internalType": "uint256",
          "name": "_videoId",
          "type": "uint256"
        },
        {
          "internalType": "address",
          "name": "_user",
          "type": "address"
        }
      ],
      "name": "hasLikedVideo",
      "outputs": [
        {
          "internalType": "bool",
          "name": "",
          "type": "bool"
        }
      ],
      "stateMutability": "view",
      "type": "function"
    },
    {
      "inputs": [
        {
          "internalType": "address",
          "name": "_follower",
          "type": "address"
        },
        {
          "internalType": "address",
          "name": "_creator",
          "type": "address"
        }
      ],
      "name": "isFollowing",
      "outputs": [
        {
          "internalType": "bool",
          "name": "",
          "type": "bool"
        }
      ],
      "stateMutability": "view",
      "type": "function"
    },
    {
      "inputs": [
        {
          "internalType": "uint256",
          "name": "_videoId",
          "type": "uint256"
        }
      ],
      "name": "likeVideo",
      "outputs": [],
      "stateMutability": "nonpayable",
      "type": "function"
    },
    {
      "inputs": [
        {
          "internalType": "uint256",
          "name": "",
          "type": "uint256"
        },
        {
          "internalType": "address",
          "name": "",
          "type": "address"
        }
      ],
      "name": "likedBy",
      "outputs": [
        {
          "internalType": "bool",
          "name": "",
          "type": "bool"
        }
      ],
      "stateMutability": "view",
      "type": "function"
    },
    {
      "inputs": [],
      "name": "maxMintPrice",
      "outputs": [
        {
          "internalType": "uint256",
          "name": "",
          "type": "uint256"
        }
      ],
      "stateMutability": "view",
      "type": "function"
    },
    {
      "inputs": [],
      "name": "mintLimit",
      "outputs": [
        {
          "internalType": "uint256",
          "name": "",
          "type": "uint256"
        }
      ],
      "stateMutability": "view",
      "type": "function"
    },
    {
      "inputs": [
        {
          "internalType": "uint256",
          "name": "_videoId",
          "type": "uint256"
        }
      ],
      "name": "mintVideo",
      "outputs": [],
      "stateMutability": "payable",
      "type": "function"
    },
    {
      "inputs": [],
      "name": "minterSharePercentage",
      "outputs": [
        {
          "internalType": "uint256",
          "name": "",
          "type": "uint256"
        }
      ],
      "stateMutability": "view",
      "type": "function"
    },
    {
      "inputs": [],
      "name": "owner",
      "outputs": [
        {
          "internalType": "address",
          "name": "",
          "type": "address"
        }
      ],
      "stateMutability": "view",
      "type": "function"
    },
    {
      "inputs": [],
      "name": "pendingOwner",
      "outputs": [
        {
          "internalType": "address",
          "name": "",
          "type": "address"
        }
      ],
      "stateMutability": "view",
      "type": "function"
    },
    {
      "inputs": [],
      "name": "projectSharePercentage",
      "outputs": [
        {
          "internalType": "uint256",
          "name": "",
          "type": "uint256"
        }
      ],
      "stateMutability": "view",
      "type": "function"
    },
    {
      "inputs": [],
      "name": "projectWallet",
      "outputs": [
        {
          "internalType": "address",
          "name": "",
          "type": "address"
        }
      ],
      "stateMutability": "view",
      "type": "function"
    },
    {
      "inputs": [
        {
          "internalType": "uint256",
          "name": "_newFee",
          "type": "uint256"
        }
      ],
      "name": "setFee",
      "outputs": [],
      "stateMutability": "nonpayable",
      "type": "function"
    },
    {
      "inputs": [
        {
          "internalType": "address",
          "name": "_projectWallet",
          "type": "address"
        }
      ],
      "name": "setProjectWallet",
      "outputs": [],
      "stateMutability": "nonpayable",
      "type": "function"
    },
    {
      "inputs": [
        {
          "internalType": "uint256",
          "name": "_projectSharePercentage",
          "type": "uint256"
        },
        {
          "internalType": "uint256",
          "name": "_creatorSharePercentage",
          "type": "uint256"
        },
        {
          "internalType": "uint256",
          "name": "_minterSharePercentage",
          "type": "uint256"
        }
      ],
      "name": "setRevenueSplit",
      "outputs": [],
      "stateMutability": "nonpayable",
      "type": "function"
    },
    {
      "inputs": [
        {
          "internalType": "address",
          "name": "_creator",
          "type": "address"
        }
      ],
      "name": "tipCreator",
      "outputs": [],
      "stateMutability": "payable",
      "type": "function"
    },
    {
      "inputs": [
        {
          "internalType": "address",
          "name": "_newOwner",
          "type": "address"
        }
      ],
      "name": "transferOwnership",
      "outputs": [],
      "stateMutability": "nonpayable",
      "type": "function"
    },
    {
      "inputs": [
        {
          "internalType": "address",
          "name": "_creator",
          "type": "address"
        }
      ],
      "name": "unfollowCreator",
      "outputs": [],
      "stateMutability": "nonpayable",
      "type": "function"
    },
    {
      "inputs": [
        {
          "internalType": "uint256",
          "name": "_videoId",
          "type": "uint256"
        }
      ],
      "name": "unlikeVideo",
      "outputs": [],
      "stateMutability": "nonpayable",
      "type": "function"
    },
    {
      "inputs": [
        {
          "internalType": "uint256",
          "name": "_newMintLimit",
          "type": "uint256"
        }
      ],
      "name": "updateGlobalMintLimit",
      "outputs": [],
      "stateMutability": "nonpayable",
      "type": "function"
    },
    {
      "inputs": [
        {
          "internalType": "uint256",
          "name": "_newMaxMintPrice",
          "type": "uint256"
        }
      ],
      "name": "updateMaximumMintPrice",
      "outputs": [],
      "stateMutability": "nonpayable",
      "type": "function"
    },
    {
      "inputs": [
        {
          "internalType": "uint256",
          "name": "_videoId",
          "type": "uint256"
        },
        {
          "internalType": "uint256",
          "name": "_newMintLimit",
          "type": "uint256"
        }
      ],
      "name": "updateMintLimit",
      "outputs": [],
      "stateMutability": "nonpayable",
      "type": "function"
    },
    {
      "inputs": [
        {
          "internalType": "uint256",
          "name": "_videoId",
          "type": "uint256"
        },
        {
          "internalType": "uint256",
          "name": "_newPrice",
          "type": "uint256"
        }
      ],
      "name": "updateMintPrice",
      "outputs": [],
      "stateMutability": "nonpayable",
      "type": "function"
    },
    {
      "inputs": [
        {
          "internalType": "string",
          "name": "_metadataUri",
          "type": "string"
        }
      ],
      "name": "updateProfile",
      "outputs": [],
      "stateMutability": "nonpayable",
      "type": "function"
    },
    {
      "inputs": [
        {
          "internalType": "uint256",
          "name": "_mediaId",
          "type": "uint256"
        },
        {
          "internalType": "uint256",
          "name": "_mintLimit",
          "type": "uint256"
        },
        {
          "internalType": "uint256",
          "name": "_priceInWei",
          "type": "uint256"
        }
      ],
      "name": "uploadVideo",
      "outputs": [],
      "stateMutability": "nonpayable",
      "type": "function"
    },
    {
      "inputs": [],
      "name": "usdcFee",
      "outputs": [
        {
          "internalType": "uint256",
          "name": "",
          "type": "uint256"
        }
      ],
      "stateMutability": "view",
      "type": "function"
    },
    {
      "inputs": [
        {
          "internalType": "uint256",
          "name": "",
          "type": "uint256"
        }
      ],
      "name": "videos",
      "outputs": [
        {
          "internalType": "address",
          "name": "creator",
          "type": "address"
        },
        {
          "internalType": "uint256",
          "name": "mediaId",
          "type": "uint256"
        },
        {
          "internalType": "uint256",
          "name": "totalMints",
          "type": "uint256"
        },
        {
          "internalType": "uint256",
          "name": "mintLimit",
          "type": "uint256"
        },
        {
          "internalType": "uint256",
          "name": "price",
          "type": "uint256"
        },
        {
          "internalType": "uint256",
          "name": "likes",
          "type": "uint256"
        }
      ],
      "stateMutability": "view",
      "type": "function"
    },
    {
      "inputs": [],
      "name": "videosCount",
      "outputs": [
        {
          "internalType": "uint256",
          "name": "",
          "type": "uint256"
        }
      ],
      "stateMutability": "view",
      "type": "function"
    },
    {
      "inputs": [],
      "name": "withdraw",
      "outputs": [],
      "stateMutability": "nonpayable",
      "type": "function"
    }
  ],
  "bytecode": "0x60806040526000600455620f423f600555670de0b6b3a7640000600655603c600755601e600855600a60095534801561003757600080fd5b50600160008190555033600160006101000a81548173ffffffffffffffffffffffffffffffffffffffff021916908373ffffffffffffffffffffffffffffffffffffffff16021790555033600360006101000a81548173ffffffffffffffffffffffffffffffffffffffff021916908373ffffffffffffffffffffffffffffffffffffffff160217905550606463042c1d806100d3919061016c565b600a81905550734adc67696ba383f43dd60a9e78f2c97fbbfc7cb1600b60006101000a81548173ffffffffffffffffffffffffffffffffffffffff021916908373ffffffffffffffffffffffffffffffffffffffff16021790555061019d565b6000819050919050565b7f4e487b7100000000000000000000000000000000000000000000000000000000600052601260045260246000fd5b600061017782610133565b915061018283610133565b9250826101925761019161013d565b5b828204905092915050565b6153f6806101ac6000396000f3fe60806040526004361061027c5760003560e01c806369fe0e2d1161014f578063beb08ab9116100c1578063e6821bf51161007a578063e6821bf5146109a4578063e8ed1653146109e6578063ec9ca25814610a0f578063ef08523b14610a38578063f2fde38b14610a63578063fc6c776f14610a8c5761027c565b8063beb08ab91461085a578063c0a1996314610885578063ce9ae001146108c2578063d2825af3146108ff578063daf6160c1461093c578063e30c3978146109795761027c565b8063933166e111610113578063933166e114610721578063996517cf1461076157806399ec3a421461078c5780639e39e58d146107c9578063a5b6f94114610806578063a9cfab0b1461082f5761027c565b806369fe0e2d1461067157806379ba50971461069a5780637ce2a824146106b15780638a780447146106cd5780638da5cb5b146106f65761027c565b80632e7a81cb116101f35780634fb9b047116101ac5780634fb9b0471461055c57806353ae35861461058757806355e6a806146105b0578063587520fa146105ed57806365c4e4aa1461062a57806367c9b017146106465761027c565b80632e7a81cb1461045e57806332cb9eea146104895780633ccfd60b146104b4578063445e475d146104cb57806346a094d2146104f65780634d90bc37146105335761027c565b8063136f5cdd11610245578063136f5cdd14610352578063140da7cc1461037d578063150f885e146103a657806318196191146103cf57806320978b1c146103f857806327260d5c146104355761027c565b80629299e31461028157806308796fda146102aa57806309897097146102d557806311abd324146102fe57806312065fe014610327575b600080fd5b34801561028d57600080fd5b506102a860048036038101906102a39190613a8c565b610acb565b005b3480156102b657600080fd5b506102bf610c68565b6040516102cc9190613aee565b60405180910390f35b3480156102e157600080fd5b506102fc60048036038101906102f79190613b35565b610c6d565b005b34801561030a57600080fd5b5061032560048036038101906103209190613b35565b610d8f565b005b34801561033357600080fd5b5061033c610fbf565b6040516103499190613aee565b60405180910390f35b34801561035e57600080fd5b50610367610fc7565b6040516103749190613aee565b60405180910390f35b34801561038957600080fd5b506103a4600480360381019061039f9190613b62565b610fcd565b005b3480156103b257600080fd5b506103cd60048036038101906103c89190613bb5565b61110b565b005b3480156103db57600080fd5b506103f660048036038101906103f19190613c53565b611208565b005b34801561040457600080fd5b5061041f600480360381019061041a9190613b35565b61142b565b60405161042c9190613aee565b60405180910390f35b34801561044157600080fd5b5061045c60048036038101906104579190613b35565b611499565b005b34801561046a57600080fd5b506104736116ca565b6040516104809190613aee565b60405180910390f35b34801561049557600080fd5b5061049e6116d0565b6040516104ab9190613aee565b60405180910390f35b3480156104c057600080fd5b506104c96116d6565b005b3480156104d757600080fd5b506104e0611837565b6040516104ed9190613aee565b60405180910390f35b34801561050257600080fd5b5061051d60048036038101906105189190613c80565b61183d565b60405161052a9190613cdb565b60405180910390f35b34801561053f57600080fd5b5061055a60048036038101906105559190613c53565b6118a5565b005b34801561056857600080fd5b50610571611b37565b60405161057e9190613aee565b60405180910390f35b34801561059357600080fd5b506105ae60048036038101906105a99190613b62565b611b3d565b005b3480156105bc57600080fd5b506105d760048036038101906105d29190613c53565b611dff565b6040516105e49190613aee565b60405180910390f35b3480156105f957600080fd5b50610614600480360381019061060f9190613b35565b611e4b565b6040516106219190613aee565b60405180910390f35b610644600480360381019061063f9190613c53565b611e6b565b005b34801561065257600080fd5b5061065b61209b565b6040516106689190613aee565b60405180910390f35b34801561067d57600080fd5b5061069860048036038101906106939190613b35565b6121e2565b005b3480156106a657600080fd5b506106af6122f9565b005b6106cb60048036038101906106c69190613b35565b612490565b005b3480156106d957600080fd5b506106f460048036038101906106ef9190613c53565b612696565b005b34801561070257600080fd5b5061070b612810565b6040516107189190613d05565b60405180910390f35b34801561072d57600080fd5b5061074860048036038101906107439190613c53565b612836565b6040516107589493929190613d9f565b60405180910390f35b34801561076d57600080fd5b506107766128ee565b6040516107839190613aee565b60405180910390f35b34801561079857600080fd5b506107b360048036038101906107ae9190613deb565b6128f4565b6040516107c09190613cdb565b60405180910390f35b3480156107d557600080fd5b506107f060048036038101906107eb9190613c53565b612988565b6040516107fd9190613ee7565b60405180910390f35b34801561081257600080fd5b5061082d60048036038101906108289190613b35565b612a91565b005b34801561083b57600080fd5b50610844612bb3565b6040516108519190613fa5565b60405180910390f35b34801561086657600080fd5b5061086f612be1565b60405161087c9190613d05565b60405180910390f35b34801561089157600080fd5b506108ac60048036038101906108a79190613c80565b612c07565b6040516108b99190613cdb565b60405180910390f35b3480156108ce57600080fd5b506108e960048036038101906108e49190613deb565b612c36565b6040516108f69190613cdb565b60405180910390f35b34801561090b57600080fd5b5061092660048036038101906109219190613b62565b612c65565b60405161093391906140e1565b60405180910390f35b34801561094857600080fd5b50610963600480360381019061095e9190613b35565b612fd4565b60405161097091906140e1565b60405180910390f35b34801561098557600080fd5b5061098e613138565b60405161099b9190613d05565b60405180910390f35b3480156109b057600080fd5b506109cb60048036038101906109c69190613b35565b61315e565b6040516109dd96959493929190614103565b60405180910390f35b3480156109f257600080fd5b50610a0d6004803603810190610a089190614164565b6131ba565b005b348015610a1b57600080fd5b50610a366004803603810190610a319190613bb5565b613390565b005b348015610a4457600080fd5b50610a4d61348d565b604051610a5a9190613aee565b60405180910390f35b348015610a6f57600080fd5b50610a8a6004803603810190610a859190613c53565b613493565b005b348015610a9857600080fd5b50610ab36004803603810190610aae9190613bb5565b6135d6565b604051610ac2939291906141c0565b60405180910390f35b6000600d60003373ffffffffffffffffffffffffffffffffffffffff1673ffffffffffffffffffffffffffffffffffffffff1681526020019081526020016000206000018054610b1a9061422d565b905003610bc057604051806080016040528082815260200160008152602001600081526020016000815250600d60003373ffffffffffffffffffffffffffffffffffffffff1673ffffffffffffffffffffffffffffffffffffffff1681526020019081526020016000206000820151816000019081610b99919061440a565b50602082015181600101556040820151816002015560608201518160030155905050610c17565b6000600d60003373ffffffffffffffffffffffffffffffffffffffff1673ffffffffffffffffffffffffffffffffffffffff168152602001908152602001600020905081816000019081610c14919061440a565b50505b3373ffffffffffffffffffffffffffffffffffffffff167fb07b7c8b0281bfa225d936eb4b081f263727dcaa3a2160038b8a947d75df5cb282604051610c5d91906144dc565b60405180910390a250565b606481565b600360009054906101000a900473ffffffffffffffffffffffffffffffffffffffff1673ffffffffffffffffffffffffffffffffffffffff163373ffffffffffffffffffffffffffffffffffffffff1614610cfd576040517f08c379a0000000000000000000000000000000000000000000000000000000008152600401610cf49061454a565b60405180910390fd5b600081118015610d0f57506005548114155b610d4e576040517f08c379a0000000000000000000000000000000000000000000000000000000008152600401610d45906145b6565b60405180910390fd5b806005819055507ff56cd1c2276dd17bcff78ff95f3dcc99cb9595b770bc12da977b9c095c9bf96b81604051610d849190613aee565b60405180910390a150565b80600073ffffffffffffffffffffffffffffffffffffffff16600c600083815260200190815260200160002060000160009054906101000a900473ffffffffffffffffffffffffffffffffffffffff1673ffffffffffffffffffffffffffffffffffffffff1603610e35576040517f08c379a0000000000000000000000000000000000000000000000000000000008152600401610e2c90614622565b60405180910390fd5b610e3d6136c5565b600f600083815260200190815260200160002060003373ffffffffffffffffffffffffffffffffffffffff1673ffffffffffffffffffffffffffffffffffffffff16815260200190815260200160002060009054906101000a900460ff16610eda576040517f08c379a0000000000000000000000000000000000000000000000000000000008152600401610ed19061468e565b60405180910390fd5b600c60008381526020019081526020016000206005016000815480929190610f01906146dd565b91905055506000600f600084815260200190815260200160002060003373ffffffffffffffffffffffffffffffffffffffff1673ffffffffffffffffffffffffffffffffffffffff16815260200190815260200160002060006101000a81548160ff0219169083151502179055503373ffffffffffffffffffffffffffffffffffffffff16827fe1ea13f5a6d14e33425b04b4cd2185c1919991c8b880eecaa279f4906475d6f960405160405180910390a3610fbb61370b565b5050565b600047905090565b600a5481565b600360009054906101000a900473ffffffffffffffffffffffffffffffffffffffff1673ffffffffffffffffffffffffffffffffffffffff163373ffffffffffffffffffffffffffffffffffffffff161461105d576040517f08c379a00000000000000000000000000000000000000000000000000000000081526004016110549061454a565b60405180910390fd5b606481838561106c9190614706565b6110769190614706565b146110b6576040517f08c379a00000000000000000000000000000000000000000000000000000000081526004016110ad90614786565b60405180910390fd5b8260088190555081600781905550806009819055507f41fbb987eff495897d3076fa6ad5de848eb98f1d4e2c6922ebf510d75a79a5758383836040516110fe939291906147a6565b60405180910390a1505050565b813373ffffffffffffffffffffffffffffffffffffffff16600c600083815260200190815260200160002060000160009054906101000a900473ffffffffffffffffffffffffffffffffffffffff1673ffffffffffffffffffffffffffffffffffffffff16146111b0576040517f08c379a00000000000000000000000000000000000000000000000000000000081526004016111a79061454a565b60405180910390fd5b81600c600085815260200190815260200160002060030181905550827f864790bdf9878a0378c6fc2b0ce53bf74ca13b901bc97a1cb94aa88f1600e482836040516111fb9190613aee565b60405180910390a2505050565b6112106136c5565b600e60003373ffffffffffffffffffffffffffffffffffffffff1673ffffffffffffffffffffffffffffffffffffffff16815260200190815260200160002060008273ffffffffffffffffffffffffffffffffffffffff1673ffffffffffffffffffffffffffffffffffffffff16815260200190815260200160002060009054906101000a900460ff166112d9576040517f08c379a00000000000000000000000000000000000000000000000000000000081526004016112d090614829565b60405180910390fd5b6000600e60003373ffffffffffffffffffffffffffffffffffffffff1673ffffffffffffffffffffffffffffffffffffffff16815260200190815260200160002060008373ffffffffffffffffffffffffffffffffffffffff1673ffffffffffffffffffffffffffffffffffffffff16815260200190815260200160002060006101000a81548160ff021916908315150217905550600d60008273ffffffffffffffffffffffffffffffffffffffff1673ffffffffffffffffffffffffffffffffffffffff16815260200190815260200160002060020160008154809291906113c1906146dd565b91905055508073ffffffffffffffffffffffffffffffffffffffff163373ffffffffffffffffffffffffffffffffffffffff167f673e2dc2dff10ec8a44c707c34be5b2833e3b75618cb3bf22e1e31c1d6a1066860405160405180910390a361142861370b565b50565b60008061143661209b565b90506000600c60008581526020019081526020016000206004015490506000826c0c9f2c9cd04674edea40000000600a546114719190614849565b61147b91906148ba565b90506000818361148b9190614706565b905080945050505050919050565b80600073ffffffffffffffffffffffffffffffffffffffff16600c600083815260200190815260200160002060000160009054906101000a900473ffffffffffffffffffffffffffffffffffffffff1673ffffffffffffffffffffffffffffffffffffffff160361153f576040517f08c379a000000000000000000000000000000000000000000000000000000000815260040161153690614622565b60405180910390fd5b6115476136c5565b600f600083815260200190815260200160002060003373ffffffffffffffffffffffffffffffffffffffff1673ffffffffffffffffffffffffffffffffffffffff16815260200190815260200160002060009054906101000a900460ff16156115e5576040517f08c379a00000000000000000000000000000000000000000000000000000000081526004016115dc90614937565b60405180910390fd5b600c6000838152602001908152602001600020600501600081548092919061160c90614957565b91905055506001600f600084815260200190815260200160002060003373ffffffffffffffffffffffffffffffffffffffff1673ffffffffffffffffffffffffffffffffffffffff16815260200190815260200160002060006101000a81548160ff0219169083151502179055503373ffffffffffffffffffffffffffffffffffffffff16827f252555045b2bb75bbf4e656932c7fc2d63e8e7d9acc300a6b55d6575a2c8d42860405160405180910390a36116c661370b565b5050565b60075481565b60065481565b600360009054906101000a900473ffffffffffffffffffffffffffffffffffffffff1673ffffffffffffffffffffffffffffffffffffffff163373ffffffffffffffffffffffffffffffffffffffff1614611766576040517f08c379a000000000000000000000000000000000000000000000000000000000815260040161175d9061454a565b60405180910390fd5b6000600360009054906101000a900473ffffffffffffffffffffffffffffffffffffffff1673ffffffffffffffffffffffffffffffffffffffff16476040516117ae906149d0565b60006040518083038185875af1925050503d80600081146117eb576040519150601f19603f3d011682016040523d82523d6000602084013e6117f0565b606091505b5050905080611834576040517f08c379a000000000000000000000000000000000000000000000000000000000815260040161182b90614a31565b60405180910390fd5b50565b60085481565b6000600f600084815260200190815260200160002060008373ffffffffffffffffffffffffffffffffffffffff1673ffffffffffffffffffffffffffffffffffffffff16815260200190815260200160002060009054906101000a900460ff16905092915050565b6118ad6136c5565b8073ffffffffffffffffffffffffffffffffffffffff163373ffffffffffffffffffffffffffffffffffffffff160361191b576040517f08c379a000000000000000000000000000000000000000000000000000000000815260040161191290614a9d565b60405180910390fd5b600e60003373ffffffffffffffffffffffffffffffffffffffff1673ffffffffffffffffffffffffffffffffffffffff16815260200190815260200160002060008273ffffffffffffffffffffffffffffffffffffffff1673ffffffffffffffffffffffffffffffffffffffff16815260200190815260200160002060009054906101000a900460ff16156119e5576040517f08c379a00000000000000000000000000000000000000000000000000000000081526004016119dc90614b09565b60405180910390fd5b6001600e60003373ffffffffffffffffffffffffffffffffffffffff1673ffffffffffffffffffffffffffffffffffffffff16815260200190815260200160002060008373ffffffffffffffffffffffffffffffffffffffff1673ffffffffffffffffffffffffffffffffffffffff16815260200190815260200160002060006101000a81548160ff021916908315150217905550600d60008273ffffffffffffffffffffffffffffffffffffffff1673ffffffffffffffffffffffffffffffffffffffff1681526020019081526020016000206002016000815480929190611acd90614957565b91905055508073ffffffffffffffffffffffffffffffffffffffff163373ffffffffffffffffffffffffffffffffffffffff167f1e4f76f27ac4380b0e6c2d1a24f025857826721375cb34acd4ac2cccd831eead60405160405180910390a3611b3461370b565b50565b60095481565b611b456136c5565b60008211611b88576040517f08c379a0000000000000000000000000000000000000000000000000000000008152600401611b7f90614b75565b60405180910390fd5b600554821115611bcd576040517f08c379a0000000000000000000000000000000000000000000000000000000008152600401611bc490614be1565b60405180910390fd5b60008111611c10576040517f08c379a0000000000000000000000000000000000000000000000000000000008152600401611c0790614c4d565b60405180910390fd5b600654811115611c55576040517f08c379a0000000000000000000000000000000000000000000000000000000008152600401611c4c90614cb9565b60405180910390fd5b82600c60008581526020019081526020016000206001015403611cad576040517f08c379a0000000000000000000000000000000000000000000000000000000008152600401611ca490614d25565b60405180910390fd5b60006040518060c001604052803373ffffffffffffffffffffffffffffffffffffffff168152602001858152602001600081526020018481526020018381526020016000815250905080600c600086815260200190815260200160002060008201518160000160006101000a81548173ffffffffffffffffffffffffffffffffffffffff021916908373ffffffffffffffffffffffffffffffffffffffff1602179055506020820151816001015560408201518160020155606082015181600301556080820151816004015560a082015181600501559050503373ffffffffffffffffffffffffffffffffffffffff16847fee2bb18d8855dfdb5d995a58bfd62de687f23bff5f41f6d2919ebb3bdf2be3a7868686604051611dd1939291906147a6565b60405180910390a360046000815480929190611dec90614957565b919050555050611dfa61370b565b505050565b6000600d60008373ffffffffffffffffffffffffffffffffffffffff1673ffffffffffffffffffffffffffffffffffffffff168152602001908152602001600020600201549050919050565b600060106000838152602001908152602001600020805490509050919050565b611e736136c5565b60003411611eb6576040517f08c379a0000000000000000000000000000000000000000000000000000000008152600401611ead90614d91565b60405180910390fd5b600073ffffffffffffffffffffffffffffffffffffffff168173ffffffffffffffffffffffffffffffffffffffff1603611f25576040517f08c379a0000000000000000000000000000000000000000000000000000000008152600401611f1c90614dfd565b60405180910390fd5b60008173ffffffffffffffffffffffffffffffffffffffff1634604051611f4b906149d0565b60006040518083038185875af1925050503d8060008114611f88576040519150601f19603f3d011682016040523d82523d6000602084013e611f8d565b606091505b5050905080611fd1576040517f08c379a0000000000000000000000000000000000000000000000000000000008152600401611fc890614e69565b60405180910390fd5b34600d60008473ffffffffffffffffffffffffffffffffffffffff1673ffffffffffffffffffffffffffffffffffffffff16815260200190815260200160002060030160008282546120239190614706565b925050819055508173ffffffffffffffffffffffffffffffffffffffff163373ffffffffffffffffffffffffffffffffffffffff167fa32d9d0d87d6c17bab78e0fe62ab9560e6f09ec4a903287bac5dd223e358c186346040516120879190613aee565b60405180910390a35061209861370b565b50565b6000806000600b60009054906101000a900473ffffffffffffffffffffffffffffffffffffffff1673ffffffffffffffffffffffffffffffffffffffff1663feaf968c6040518163ffffffff1660e01b815260040160a060405180830381865afa15801561210d573d6000803e3d6000fd5b505050506040513d601f19601f820116820180604052508101906121319190614f16565b50935050925050610e1081426121479190614f91565b10612187576040517f08c379a000000000000000000000000000000000000000000000000000000000815260040161217e90615011565b60405180910390fd5b600082136121ca576040517f08c379a00000000000000000000000000000000000000000000000000000000081526004016121c19061507d565b60405180910390fd5b6402540be400826121db9190614849565b9250505090565b600360009054906101000a900473ffffffffffffffffffffffffffffffffffffffff1673ffffffffffffffffffffffffffffffffffffffff163373ffffffffffffffffffffffffffffffffffffffff1614612272576040517f08c379a00000000000000000000000000000000000000000000000000000000081526004016122699061454a565b60405180910390fd5b620f42408111156122b8576040517f08c379a00000000000000000000000000000000000000000000000000000000081526004016122af906150e9565b60405180910390fd5b80600a819055507f8c4d35e54a3f2ef1134138fd8ea3daee6a3c89e10d2665996babdf70261e2c76816040516122ee9190613aee565b60405180910390a150565b600260009054906101000a900473ffffffffffffffffffffffffffffffffffffffff1673ffffffffffffffffffffffffffffffffffffffff163373ffffffffffffffffffffffffffffffffffffffff1614612389576040517f08c379a00000000000000000000000000000000000000000000000000000000081526004016123809061454a565b60405180910390fd5b6000600160009054906101000a900473ffffffffffffffffffffffffffffffffffffffff16905033600160006101000a81548173ffffffffffffffffffffffffffffffffffffffff021916908373ffffffffffffffffffffffffffffffffffffffff1602179055506000600260006101000a81548173ffffffffffffffffffffffffffffffffffffffff021916908373ffffffffffffffffffffffffffffffffffffffff1602179055503373ffffffffffffffffffffffffffffffffffffffff168173ffffffffffffffffffffffffffffffffffffffff167f8be0079c531659141344cd1fd0a4f28419497f9722a3daafe3b4186f6b6457e060405160405180910390a350565b80600061249c8261142b565b9050803410156124e1576040517f08c379a00000000000000000000000000000000000000000000000000000000081526004016124d890615155565b60405180910390fd5b82600073ffffffffffffffffffffffffffffffffffffffff16600c600083815260200190815260200160002060000160009054906101000a900473ffffffffffffffffffffffffffffffffffffffff1673ffffffffffffffffffffffffffffffffffffffff1603612587576040517f08c379a000000000000000000000000000000000000000000000000000000000815260040161257e90614622565b60405180910390fd5b61258f6136c5565b6000600c6000868152602001908152602001600020905080600301548160020154106125f0576040517f08c379a00000000000000000000000000000000000000000000000000000000081526004016125e7906151c1565b60405180910390fd5b61261e348260000160009054906101000a900473ffffffffffffffffffffffffffffffffffffffff16613715565b80600201600081548092919061263390614957565b91905055503373ffffffffffffffffffffffffffffffffffffffff16857f6ca565cbe12d6a229e5001591809c6900e82e4dc3d5abc5d7f48e1a9c2073e9d3460405161267f9190613aee565b60405180910390a35061269061370b565b50505050565b600360009054906101000a900473ffffffffffffffffffffffffffffffffffffffff1673ffffffffffffffffffffffffffffffffffffffff163373ffffffffffffffffffffffffffffffffffffffff1614612726576040517f08c379a000000000000000000000000000000000000000000000000000000000815260040161271d9061454a565b60405180910390fd5b600073ffffffffffffffffffffffffffffffffffffffff168173ffffffffffffffffffffffffffffffffffffffff1603612795576040517f08c379a000000000000000000000000000000000000000000000000000000000815260040161278c9061522d565b60405180910390fd5b80600360006101000a81548173ffffffffffffffffffffffffffffffffffffffff021916908373ffffffffffffffffffffffffffffffffffffffff1602179055507fec859decd72bbc1028a5d9cff18865d253e0a9c46133f5de383c3cd73ab89b65816040516128059190613d05565b60405180910390a150565b600160009054906101000a900473ffffffffffffffffffffffffffffffffffffffff1681565b600d6020528060005260406000206000915090508060000180546128599061422d565b80601f01602080910402602001604051908101604052809291908181526020018280546128859061422d565b80156128d25780601f106128a7576101008083540402835291602001916128d2565b820191906000526020600020905b8154815290600101906020018083116128b557829003601f168201915b5050505050908060010154908060020154908060030154905084565b60055481565b6000600e60008473ffffffffffffffffffffffffffffffffffffffff1673ffffffffffffffffffffffffffffffffffffffff16815260200190815260200160002060008373ffffffffffffffffffffffffffffffffffffffff1673ffffffffffffffffffffffffffffffffffffffff16815260200190815260200160002060009054906101000a900460ff16905092915050565b6129906138b1565b600d60008373ffffffffffffffffffffffffffffffffffffffff1673ffffffffffffffffffffffffffffffffffffffff1681526020019081526020016000206040518060800160405290816000820180546129ea9061422d565b80601f0160208091040260200160405190810160405280929190818152602001828054612a169061422d565b8015612a635780601f10612a3857610100808354040283529160200191612a63565b820191906000526020600020905b815481529060010190602001808311612a4657829003601f168201915b5050505050815260200160018201548152602001600282015481526020016003820154815250509050919050565b600360009054906101000a900473ffffffffffffffffffffffffffffffffffffffff1673ffffffffffffffffffffffffffffffffffffffff163373ffffffffffffffffffffffffffffffffffffffff1614612b21576040517f08c379a0000000000000000000000000000000000000000000000000000000008152600401612b189061454a565b60405180910390fd5b600081118015612b3357506006548114155b612b72576040517f08c379a0000000000000000000000000000000000000000000000000000000008152600401612b6990615299565b60405180910390fd5b806006819055507f732603a291622cec912f16c1f255237a3c66fdaaebc8c61e72c21600547f61ee81604051612ba89190613aee565b60405180910390a150565b612bbb6138d9565b604051806060016040528060085481526020016007548152602001600954815250905090565b600360009054906101000a900473ffffffffffffffffffffffffffffffffffffffff1681565b600f6020528160005260406000206020528060005260406000206000915091509054906101000a900460ff1681565b600e6020528160005260406000206020528060005260406000206000915091509054906101000a900460ff1681565b60606000601060008681526020019081526020016000209050600081805490509050808510612de05781805480602002602001604051908101604052809291908181526020016000905b82821015612dd357838290600052602060002090600302016040518060600160405290816000820160009054906101000a900473ffffffffffffffffffffffffffffffffffffffff1673ffffffffffffffffffffffffffffffffffffffff1673ffffffffffffffffffffffffffffffffffffffff168152602001600182018054612d389061422d565b80601f0160208091040260200160405190810160405280929190818152602001828054612d649061422d565b8015612db15780601f10612d8657610100808354040283529160200191612db1565b820191906000526020600020905b815481529060010190602001808311612d9457829003601f168201915b5050505050815260200160028201548152505081526020019060010190612caf565b5050505092505050612fcd565b60008486612dee9190614706565b905081811115612dfc578190505b60008682612e0a9190614f91565b905060008167ffffffffffffffff811115612e2857612e27613961565b5b604051908082528060200260200182016040528015612e6157816020015b612e4e6138fb565b815260200190600190039081612e465790505b50905060005b82811015612fc35785818a612e7c9190614706565b81548110612e8d57612e8c6152b9565b5b90600052602060002090600302016040518060600160405290816000820160009054906101000a900473ffffffffffffffffffffffffffffffffffffffff1673ffffffffffffffffffffffffffffffffffffffff1673ffffffffffffffffffffffffffffffffffffffff168152602001600182018054612f0c9061422d565b80601f0160208091040260200160405190810160405280929190818152602001828054612f389061422d565b8015612f855780601f10612f5a57610100808354040283529160200191612f85565b820191906000526020600020905b815481529060010190602001808311612f6857829003601f168201915b50505050508152602001600282015481525050828281518110612fab57612faa6152b9565b5b60200260200101819052508080600101915050612e67565b5080955050505050505b9392505050565b606060106000838152602001908152602001600020805480602002602001604051908101604052809291908181526020016000905b8282101561312d57838290600052602060002090600302016040518060600160405290816000820160009054906101000a900473ffffffffffffffffffffffffffffffffffffffff1673ffffffffffffffffffffffffffffffffffffffff1673ffffffffffffffffffffffffffffffffffffffff1681526020016001820180546130929061422d565b80601f01602080910402602001604051908101604052809291908181526020018280546130be9061422d565b801561310b5780601f106130e05761010080835404028352916020019161310b565b820191906000526020600020905b8154815290600101906020018083116130ee57829003601f168201915b5050505050815260200160028201548152505081526020019060010190613009565b505050509050919050565b600260009054906101000a900473ffffffffffffffffffffffffffffffffffffffff1681565b600c6020528060005260406000206000915090508060000160009054906101000a900473ffffffffffffffffffffffffffffffffffffffff16908060010154908060020154908060030154908060040154908060050154905086565b81600073ffffffffffffffffffffffffffffffffffffffff16600c600083815260200190815260200160002060000160009054906101000a900473ffffffffffffffffffffffffffffffffffffffff1673ffffffffffffffffffffffffffffffffffffffff1603613260576040517f08c379a000000000000000000000000000000000000000000000000000000000815260040161325790614622565b60405180910390fd5b600060405180606001604052803373ffffffffffffffffffffffffffffffffffffffff1681526020018481526020014281525090506010600085815260200190815260200160002081908060018154018082558091505060019003906000526020600020906003020160009091909190915060008201518160000160006101000a81548173ffffffffffffffffffffffffffffffffffffffff021916908373ffffffffffffffffffffffffffffffffffffffff160217905550602082015181600101908161332e919061440a565b506040820151816002015550503373ffffffffffffffffffffffffffffffffffffffff16847fcc2d7dd2085ae6644799a42c0174adf9afc10a43f26db5eac3ddd1f96d1d64be8560405161338291906144dc565b60405180910390a350505050565b813373ffffffffffffffffffffffffffffffffffffffff16600c600083815260200190815260200160002060000160009054906101000a900473ffffffffffffffffffffffffffffffffffffffff1673ffffffffffffffffffffffffffffffffffffffff1614613435576040517f08c379a000000000000000000000000000000000000000000000000000000000815260040161342c9061454a565b60405180910390fd5b81600c600085815260200190815260200160002060040181905550827f2e1c9e000c6e8dda4d03536adb13b7cb6034ccff90d17f01de381e4d5097b525836040516134809190613aee565b60405180910390a2505050565b60045481565b600360009054906101000a900473ffffffffffffffffffffffffffffffffffffffff1673ffffffffffffffffffffffffffffffffffffffff163373ffffffffffffffffffffffffffffffffffffffff1614613523576040517f08c379a000000000000000000000000000000000000000000000000000000000815260040161351a9061454a565b60405180910390fd5b600073ffffffffffffffffffffffffffffffffffffffff168173ffffffffffffffffffffffffffffffffffffffff1603613592576040517f08c379a00000000000000000000000000000000000000000000000000000000081526004016135899061522d565b60405180910390fd5b80600260006101000a81548173ffffffffffffffffffffffffffffffffffffffff021916908373ffffffffffffffffffffffffffffffffffffffff16021790555050565b601060205281600052604060002081815481106135f257600080fd5b9060005260206000209060030201600091509150508060000160009054906101000a900473ffffffffffffffffffffffffffffffffffffffff169080600101805461363c9061422d565b80601f01602080910402602001604051908101604052809291908181526020018280546136689061422d565b80156136b55780601f1061368a576101008083540402835291602001916136b5565b820191906000526020600020905b81548152906001019060200180831161369857829003601f168201915b5050505050908060020154905083565b600260005403613701576040517f3ee5aeb500000000000000000000000000000000000000000000000000000000815260040160405180910390fd5b6002600081905550565b6001600081905550565b60006064600754846137279190614849565b61373191906148ba565b905060006064600954856137459190614849565b61374f91906148ba565b905060008373ffffffffffffffffffffffffffffffffffffffff1683604051613777906149d0565b60006040518083038185875af1925050503d80600081146137b4576040519150601f19603f3d011682016040523d82523d6000602084013e6137b9565b606091505b50509050806137fd576040517f08c379a00000000000000000000000000000000000000000000000000000000081526004016137f490615334565b60405180910390fd5b60003373ffffffffffffffffffffffffffffffffffffffff1683604051613823906149d0565b60006040518083038185875af1925050503d8060008114613860576040519150601f19603f3d011682016040523d82523d6000602084013e613865565b606091505b50509050806138a9576040517f08c379a00000000000000000000000000000000000000000000000000000000081526004016138a0906153a0565b60405180910390fd5b505050505050565b6040518060800160405280606081526020016000815260200160008152602001600081525090565b6040518060600160405280600390602082028036833780820191505090505090565b6040518060600160405280600073ffffffffffffffffffffffffffffffffffffffff16815260200160608152602001600081525090565b6000604051905090565b600080fd5b600080fd5b600080fd5b600080fd5b6000601f19601f8301169050919050565b7f4e487b7100000000000000000000000000000000000000000000000000000000600052604160045260246000fd5b61399982613950565b810181811067ffffffffffffffff821117156139b8576139b7613961565b5b80604052505050565b60006139cb613932565b90506139d78282613990565b919050565b600067ffffffffffffffff8211156139f7576139f6613961565b5b613a0082613950565b9050602081019050919050565b82818337600083830152505050565b6000613a2f613a2a846139dc565b6139c1565b905082815260208101848484011115613a4b57613a4a61394b565b5b613a56848285613a0d565b509392505050565b600082601f830112613a7357613a72613946565b5b8135613a83848260208601613a1c565b91505092915050565b600060208284031215613aa257613aa161393c565b5b600082013567ffffffffffffffff811115613ac057613abf613941565b5b613acc84828501613a5e565b91505092915050565b6000819050919050565b613ae881613ad5565b82525050565b6000602082019050613b036000830184613adf565b92915050565b613b1281613ad5565b8114613b1d57600080fd5b50565b600081359050613b2f81613b09565b92915050565b600060208284031215613b4b57613b4a61393c565b5b6000613b5984828501613b20565b91505092915050565b600080600060608486031215613b7b57613b7a61393c565b5b6000613b8986828701613b20565b9350506020613b9a86828701613b20565b9250506040613bab86828701613b20565b9150509250925092565b60008060408385031215613bcc57613bcb61393c565b5b6000613bda85828601613b20565b9250506020613beb85828601613b20565b9150509250929050565b600073ffffffffffffffffffffffffffffffffffffffff82169050919050565b6000613c2082613bf5565b9050919050565b613c3081613c15565b8114613c3b57600080fd5b50565b600081359050613c4d81613c27565b92915050565b600060208284031215613c6957613c6861393c565b5b6000613c7784828501613c3e565b91505092915050565b60008060408385031215613c9757613c9661393c565b5b6000613ca585828601613b20565b9250506020613cb685828601613c3e565b9150509250929050565b60008115159050919050565b613cd581613cc0565b82525050565b6000602082019050613cf06000830184613ccc565b92915050565b613cff81613c15565b82525050565b6000602082019050613d1a6000830184613cf6565b92915050565b600081519050919050565b600082825260208201905092915050565b60005b83811015613d5a578082015181840152602081019050613d3f565b60008484015250505050565b6000613d7182613d20565b613d7b8185613d2b565b9350613d8b818560208601613d3c565b613d9481613950565b840191505092915050565b60006080820190508181036000830152613db98187613d66565b9050613dc86020830186613adf565b613dd56040830185613adf565b613de26060830184613adf565b95945050505050565b60008060408385031215613e0257613e0161393c565b5b6000613e1085828601613c3e565b9250506020613e2185828601613c3e565b9150509250929050565b600082825260208201905092915050565b6000613e4782613d20565b613e518185613e2b565b9350613e61818560208601613d3c565b613e6a81613950565b840191505092915050565b613e7e81613ad5565b82525050565b60006080830160008301518482036000860152613ea18282613e3c565b9150506020830151613eb66020860182613e75565b506040830151613ec96040860182613e75565b506060830151613edc6060860182613e75565b508091505092915050565b60006020820190508181036000830152613f018184613e84565b905092915050565b600060039050919050565b600081905092915050565b6000819050919050565b6000613f358383613e75565b60208301905092915050565b6000602082019050919050565b613f5781613f09565b613f618184613f14565b9250613f6c82613f1f565b8060005b83811015613f9d578151613f848782613f29565b9650613f8f83613f41565b925050600181019050613f70565b505050505050565b6000606082019050613fba6000830184613f4e565b92915050565b600081519050919050565b600082825260208201905092915050565b6000819050602082019050919050565b613ff581613c15565b82525050565b60006060830160008301516140136000860182613fec565b506020830151848203602086015261402b8282613e3c565b91505060408301516140406040860182613e75565b508091505092915050565b60006140578383613ffb565b905092915050565b6000602082019050919050565b600061407782613fc0565b6140818185613fcb565b93508360208202850161409385613fdc565b8060005b858110156140cf57848403895281516140b0858261404b565b94506140bb8361405f565b925060208a01995050600181019050614097565b50829750879550505050505092915050565b600060208201905081810360008301526140fb818461406c565b905092915050565b600060c0820190506141186000830189613cf6565b6141256020830188613adf565b6141326040830187613adf565b61413f6060830186613adf565b61414c6080830185613adf565b61415960a0830184613adf565b979650505050505050565b6000806040838503121561417b5761417a61393c565b5b600061418985828601613b20565b925050602083013567ffffffffffffffff8111156141aa576141a9613941565b5b6141b685828601613a5e565b9150509250929050565b60006060820190506141d56000830186613cf6565b81810360208301526141e78185613d66565b90506141f66040830184613adf565b949350505050565b7f4e487b7100000000000000000000000000000000000000000000000000000000600052602260045260246000fd5b6000600282049050600182168061424557607f821691505b602082108103614258576142576141fe565b5b50919050565b60008190508160005260206000209050919050565b60006020601f8301049050919050565b600082821b905092915050565b6000600883026142c07fffffffffffffffffffffffffffffffffffffffffffffffffffffffffffffffff82614283565b6142ca8683614283565b95508019841693508086168417925050509392505050565b6000819050919050565b60006143076143026142fd84613ad5565b6142e2565b613ad5565b9050919050565b6000819050919050565b614321836142ec565b61433561432d8261430e565b848454614290565b825550505050565b600090565b61434a61433d565b614355818484614318565b505050565b5b818110156143795761436e600082614342565b60018101905061435b565b5050565b601f8211156143be5761438f8161425e565b61439884614273565b810160208510156143a7578190505b6143bb6143b385614273565b83018261435a565b50505b505050565b600082821c905092915050565b60006143e1600019846008026143c3565b1980831691505092915050565b60006143fa83836143d0565b9150826002028217905092915050565b61441382613d20565b67ffffffffffffffff81111561442c5761442b613961565b5b614436825461422d565b61444182828561437d565b600060209050601f8311600181146144745760008415614462578287015190505b61446c85826143ee565b8655506144d4565b601f1984166144828661425e565b60005b828110156144aa57848901518255600182019150602085019450602081019050614485565b868310156144c757848901516144c3601f8916826143d0565b8355505b6001600288020188555050505b505050505050565b600060208201905081810360008301526144f68184613d66565b905092915050565b7f4e6f7420617574686f72697a6564000000000000000000000000000000000000600082015250565b6000614534600e83613d2b565b915061453f826144fe565b602082019050919050565b6000602082019050818103600083015261456381614527565b9050919050565b7f496e76616c6964206d696e74206c696d69740000000000000000000000000000600082015250565b60006145a0601283613d2b565b91506145ab8261456a565b602082019050919050565b600060208201905081810360008301526145cf81614593565b9050919050565b7f566964656f20646f65736e277420657869737400000000000000000000000000600082015250565b600061460c601383613d2b565b9150614617826145d6565b602082019050919050565b6000602082019050818103600083015261463b816145ff565b9050919050565b7f43616e6e6f7420756e6c696b6520766964656f00000000000000000000000000600082015250565b6000614678601383613d2b565b915061468382614642565b602082019050919050565b600060208201905081810360008301526146a78161466b565b9050919050565b7f4e487b7100000000000000000000000000000000000000000000000000000000600052601160045260246000fd5b60006146e882613ad5565b9150600082036146fb576146fa6146ae565b5b600182039050919050565b600061471182613ad5565b915061471c83613ad5565b9250828201905080821115614734576147336146ae565b5b92915050565b7f496e76616c69642073706c697420726174696f00000000000000000000000000600082015250565b6000614770601383613d2b565b915061477b8261473a565b602082019050919050565b6000602082019050818103600083015261479f81614763565b9050919050565b60006060820190506147bb6000830186613adf565b6147c86020830185613adf565b6147d56040830184613adf565b949350505050565b7f4e6f7420666f6c6c6f77696e672063726561746f720000000000000000000000600082015250565b6000614813601583613d2b565b915061481e826147dd565b602082019050919050565b6000602082019050818103600083015261484281614806565b9050919050565b600061485482613ad5565b915061485f83613ad5565b925082820261486d81613ad5565b91508282048414831517614884576148836146ae565b5b5092915050565b7f4e487b7100000000000000000000000000000000000000000000000000000000600052601260045260246000fd5b60006148c582613ad5565b91506148d083613ad5565b9250826148e0576148df61488b565b5b828204905092915050565b7f766964656f20616c7265616479206c696b656400000000000000000000000000600082015250565b6000614921601383613d2b565b915061492c826148eb565b602082019050919050565b6000602082019050818103600083015261495081614914565b9050919050565b600061496282613ad5565b91507fffffffffffffffffffffffffffffffffffffffffffffffffffffffffffffffff8203614994576149936146ae565b5b600182019050919050565b600081905092915050565b50565b60006149ba60008361499f565b91506149c5826149aa565b600082019050919050565b60006149db826149ad565b9150819050919050565b7f7769746864726177206661696c65640000000000000000000000000000000000600082015250565b6000614a1b600f83613d2b565b9150614a26826149e5565b602082019050919050565b60006020820190508181036000830152614a4a81614a0e565b9050919050565b7f43616e6e6f7420666f6c6c6f772073656c660000000000000000000000000000600082015250565b6000614a87601283613d2b565b9150614a9282614a51565b602082019050919050565b60006020820190508181036000830152614ab681614a7a565b9050919050565b7f416c726561647920666f6c6c6f77696e67000000000000000000000000000000600082015250565b6000614af3601183613d2b565b9150614afe82614abd565b602082019050919050565b60006020820190508181036000830152614b2281614ae6565b9050919050565b7f496e76616c6964204d696e74204c696d69742100000000000000000000000000600082015250565b6000614b5f601383613d2b565b9150614b6a82614b29565b602082019050919050565b60006020820190508181036000830152614b8e81614b52565b9050919050565b7f4d696e74206c696d697420746f6f206869676800000000000000000000000000600082015250565b6000614bcb601383613d2b565b9150614bd682614b95565b602082019050919050565b60006020820190508181036000830152614bfa81614bbe565b9050919050565b7f4d696e7420707269636520746f6f206c6f772100000000000000000000000000600082015250565b6000614c37601383613d2b565b9150614c4282614c01565b602082019050919050565b60006020820190508181036000830152614c6681614c2a565b9050919050565b7f4d696e7420707269636520746f6f206869676800000000000000000000000000600082015250565b6000614ca3601383613d2b565b9150614cae82614c6d565b602082019050919050565b60006020820190508181036000830152614cd281614c96565b9050919050565b7f566964656f20616c726561647920657869737473210000000000000000000000600082015250565b6000614d0f601583613d2b565b9150614d1a82614cd9565b602082019050919050565b60006020820190508181036000830152614d3e81614d02565b9050919050565b7f496e76616c69642074697020616d6f756e740000000000000000000000000000600082015250565b6000614d7b601283613d2b565b9150614d8682614d45565b602082019050919050565b60006020820190508181036000830152614daa81614d6e565b9050919050565b7f496e76616c69642063726561746f722061646472657373000000000000000000600082015250565b6000614de7601783613d2b565b9150614df282614db1565b602082019050919050565b60006020820190508181036000830152614e1681614dda565b9050919050565b7f4661696c656420746f207469702063726561746f720000000000000000000000600082015250565b6000614e53601583613d2b565b9150614e5e82614e1d565b602082019050919050565b60006020820190508181036000830152614e8281614e46565b9050919050565b600069ffffffffffffffffffff82169050919050565b614ea881614e89565b8114614eb357600080fd5b50565b600081519050614ec581614e9f565b92915050565b6000819050919050565b614ede81614ecb565b8114614ee957600080fd5b50565b600081519050614efb81614ed5565b92915050565b600081519050614f1081613b09565b92915050565b600080600080600060a08688031215614f3257614f3161393c565b5b6000614f4088828901614eb6565b9550506020614f5188828901614eec565b9450506040614f6288828901614f01565b9350506060614f7388828901614f01565b9250506080614f8488828901614eb6565b9150509295509295909350565b6000614f9c82613ad5565b9150614fa783613ad5565b9250828203905081811115614fbf57614fbe6146ae565b5b92915050565b7f4f6c642070726963650000000000000000000000000000000000000000000000600082015250565b6000614ffb600983613d2b565b915061500682614fc5565b602082019050919050565b6000602082019050818103600083015261502a81614fee565b9050919050565b7f496e76616c69642070726963652066726f6d206f7261636c6500000000000000600082015250565b6000615067601983613d2b565b915061507282615031565b602082019050919050565b600060208201905081810360008301526150968161505a565b9050919050565b7f46656520697320746f6f20686967680000000000000000000000000000000000600082015250565b60006150d3600f83613d2b565b91506150de8261509d565b602082019050919050565b60006020820190508181036000830152615102816150c6565b9050919050565b7f496e636f7272656374206d696e74206665650000000000000000000000000000600082015250565b600061513f601283613d2b565b915061514a82615109565b602082019050919050565b6000602082019050818103600083015261516e81615132565b9050919050565b7f4d696e74206c696d697420726561636865640000000000000000000000000000600082015250565b60006151ab601283613d2b565b91506151b682615175565b602082019050919050565b600060208201905081810360008301526151da8161519e565b9050919050565b7f496e76616c696420616464726573730000000000000000000000000000000000600082015250565b6000615217600f83613d2b565b9150615222826151e1565b602082019050919050565b600060208201905081810360008301526152468161520a565b9050919050565b7f496e76616c6964204d696e742066656500000000000000000000000000000000600082015250565b6000615283601083613d2b565b915061528e8261524d565b602082019050919050565b600060208201905081810360008301526152b281615276565b9050919050565b7f4e487b7100000000000000000000000000000000000000000000000000000000600052603260045260246000fd5b7f43726561746f72207061796d656e74206661696c656400000000000000000000600082015250565b600061531e601683613d2b565b9150615329826152e8565b602082019050919050565b6000602082019050818103600083015261534d81615311565b9050919050565b7f4d696e746572207061796d656e74206661696c65640000000000000000000000600082015250565b600061538a601583613d2b565b915061539582615354565b602082019050919050565b600060208201905081810360008301526153b98161537d565b905091905056fea2646970667358221220b747ad5838ae95195fa5ea6496baf764e804e2ded35adf52a962179686cc91c164736f6c634300081c0033",
  "linkReferences": {},
  "deployedLinkReferences": {}
}