{
  "_format": "hh-sol-artifact-1",
  "contractName": "Sessions",
  "sourceName": "contracts/Sessions.sol",
  "abi": [
    {
      "inputs": [],
      "stateMutability": "nonpayable",
      "type": "constructor"
    },
    {
      "inputs": [],
      "name": "ReentrancyGuardReentrantCall",
      "type": "error"
    },
    {
      "anonymous": false,
      "inputs": [
        {
          "indexed": true,
          "internalType": "uint256",
          "name": "videoId",
          "type": "uint256"
        },
        {
          "indexed": true,
          "internalType": "address",
          "name": "user",
          "type": "address"
        },
        {
          "indexed": false,
          "internalType": "string",
          "name": "commentText",
          "type": "string"
        }
      ],
      "name": "CommentAdded",
      "type": "event"
    },
    {
      "anonymous": false,
      "inputs": [
        {
          "indexed": true,
          "internalType": "address",
          "name": "follower",
          "type": "address"
        },
        {
          "indexed": true,
          "internalType": "address",
          "name": "creator",
          "type": "address"
        }
      ],
      "name": "CreatorFollowed",
      "type": "event"
    },
    {
      "anonymous": false,
      "inputs": [
        {
          "indexed": true,
          "internalType": "address",
          "name": "creator",
          "type": "address"
        },
        {
          "indexed": false,
          "internalType": "string",
          "name": "metadataUri",
          "type": "string"
        }
      ],
      "name": "CreatorProfileUpdated",
      "type": "event"
    },
    {
      "anonymous": false,
      "inputs": [
        {
          "indexed": true,
          "internalType": "address",
          "name": "tippedBy",
          "type": "address"
        },
        {
          "indexed": true,
          "internalType": "address",
          "name": "creator",
          "type": "address"
        },
        {
          "indexed": false,
          "internalType": "uint256",
          "name": "amount",
          "type": "uint256"
        }
      ],
      "name": "CreatorTipped",
      "type": "event"
    },
    {
      "anonymous": false,
      "inputs": [
        {
          "indexed": true,
          "internalType": "address",
          "name": "unfollower",
          "type": "address"
        },
        {
          "indexed": true,
          "internalType": "address",
          "name": "creator",
          "type": "address"
        }
      ],
      "name": "CreatorUnfollowed",
      "type": "event"
    },
    {
      "anonymous": false,
      "inputs": [
        {
          "indexed": false,
          "internalType": "uint256",
          "name": "fannitMintLimit",
          "type": "uint256"
        }
      ],
      "name": "FannitMintLimitUpdated",
      "type": "event"
    },
    {
      "anonymous": false,
      "inputs": [
        {
          "indexed": true,
          "internalType": "uint256",
          "name": "fannitVideoId",
          "type": "uint256"
        },
        {
          "indexed": true,
          "internalType": "address",
          "name": "minter",
          "type": "address"
        },
        {
          "indexed": false,
          "internalType": "uint256",
          "name": "price",
          "type": "uint256"
        }
      ],
      "name": "FannitMinted",
      "type": "event"
    },
    {
      "anonymous": false,
      "inputs": [
        {
          "indexed": false,
          "internalType": "uint256",
          "name": "newFee",
          "type": "uint256"
        }
      ],
      "name": "FeeUpdated",
      "type": "event"
    },
    {
      "anonymous": false,
      "inputs": [
        {
          "indexed": false,
          "internalType": "uint256",
          "name": "newMintLimit",
          "type": "uint256"
        }
      ],
      "name": "GlobalMintLimitUpdated",
      "type": "event"
    },
    {
      "anonymous": false,
      "inputs": [
        {
          "indexed": false,
          "internalType": "uint256",
          "name": "newMintPrice",
          "type": "uint256"
        }
      ],
      "name": "MaxMintPriceUpdated",
      "type": "event"
    },
    {
      "anonymous": false,
      "inputs": [
        {
          "indexed": true,
          "internalType": "uint256",
          "name": "videoId",
          "type": "uint256"
        },
        {
          "indexed": false,
          "internalType": "uint256",
          "name": "newMintLimit",
          "type": "uint256"
        }
      ],
      "name": "MintLimitUpdated",
      "type": "event"
    },
    {
      "anonymous": false,
      "inputs": [
        {
          "indexed": true,
          "internalType": "uint256",
          "name": "videoId",
          "type": "uint256"
        },
        {
          "indexed": false,
          "internalType": "uint256",
          "name": "newPrice",
          "type": "uint256"
        }
      ],
      "name": "MintPriceUpdated",
      "type": "event"
    },
    {
      "anonymous": false,
      "inputs": [
        {
          "indexed": true,
          "internalType": "address",
          "name": "prevOwner",
          "type": "address"
        },
        {
          "indexed": true,
          "internalType": "address",
          "name": "newOwner",
          "type": "address"
        }
      ],
      "name": "OwnershipTransferred",
      "type": "event"
    },
    {
      "anonymous": false,
      "inputs": [
        {
          "indexed": false,
          "internalType": "address",
          "name": "newWallet",
          "type": "address"
        }
      ],
      "name": "ProjectWalletUpdated",
      "type": "event"
    },
    {
      "anonymous": false,
      "inputs": [
        {
          "indexed": false,
          "internalType": "uint256",
          "name": "refannitMintLimit",
          "type": "uint256"
        }
      ],
      "name": "RefannitMintLimitUpdated",
      "type": "event"
    },
    {
      "anonymous": false,
      "inputs": [
        {
          "indexed": false,
          "internalType": "uint8",
          "name": "revenueType",
          "type": "uint8"
        },
        {
          "indexed": false,
          "internalType": "uint256",
          "name": "creatorSharePercentage",
          "type": "uint256"
        },
        {
          "indexed": false,
          "internalType": "uint256",
          "name": "platformSharePercentage",
          "type": "uint256"
        },
        {
          "indexed": false,
          "internalType": "uint256",
          "name": "fanSharePercentage",
          "type": "uint256"
        },
        {
          "indexed": false,
          "internalType": "uint256",
          "name": "fan2SharePercentage",
          "type": "uint256"
        },
        {
          "indexed": false,
          "internalType": "uint256",
          "name": "minterSharePercentage",
          "type": "uint256"
        }
      ],
      "name": "RevenueSplitUpdated",
      "type": "event"
    },
    {
      "anonymous": false,
      "inputs": [
        {
          "indexed": true,
          "internalType": "uint256",
          "name": "originalVideoId",
          "type": "uint256"
        },
        {
          "indexed": true,
          "internalType": "uint256",
          "name": "fannitVideoId",
          "type": "uint256"
        },
        {
          "indexed": true,
          "internalType": "address",
          "name": "fan",
          "type": "address"
        }
      ],
      "name": "VideoFannited",
      "type": "event"
    },
    {
      "anonymous": false,
      "inputs": [
        {
          "indexed": true,
          "internalType": "uint256",
          "name": "videoId",
          "type": "uint256"
        },
        {
          "indexed": true,
          "internalType": "address",
          "name": "user",
          "type": "address"
        }
      ],
      "name": "VideoLiked",
      "type": "event"
    },
    {
      "anonymous": false,
      "inputs": [
        {
          "indexed": true,
          "internalType": "uint256",
          "name": "videoId",
          "type": "uint256"
        },
        {
          "indexed": true,
          "internalType": "address",
          "name": "minter",
          "type": "address"
        },
        {
          "indexed": false,
          "internalType": "uint256",
          "name": "price",
          "type": "uint256"
        }
      ],
      "name": "VideoMinted",
      "type": "event"
    },
    {
      "anonymous": false,
      "inputs": [
        {
          "indexed": true,
          "internalType": "uint256",
          "name": "videoId",
          "type": "uint256"
        },
        {
          "indexed": true,
          "internalType": "address",
          "name": "user",
          "type": "address"
        }
      ],
      "name": "VideoUnliked",
      "type": "event"
    },
    {
      "anonymous": false,
      "inputs": [
        {
          "indexed": true,
          "internalType": "uint256",
          "name": "videoId",
          "type": "uint256"
        },
        {
          "indexed": true,
          "internalType": "address",
          "name": "creator",
          "type": "address"
        },
        {
          "indexed": false,
          "internalType": "string",
          "name": "ipfsHash",
          "type": "string"
        },
        {
          "indexed": false,
          "internalType": "uint256",
          "name": "mintLimit",
          "type": "uint256"
        },
        {
          "indexed": false,
          "internalType": "uint256",
          "name": "priceInWei",
          "type": "uint256"
        }
      ],
      "name": "VideoUploaded",
      "type": "event"
    },
    {
      "stateMutability": "payable",
      "type": "fallback"
    },
    {
      "inputs": [],
      "name": "USDC_SCALAR",
      "outputs": [
        {
          "internalType": "uint256",
          "name": "",
          "type": "uint256"
        }
      ],
      "stateMutability": "view",
      "type": "function"
    },
    {
      "inputs": [],
      "name": "acceptOwnership",
      "outputs": [],
      "stateMutability": "nonpayable",
      "type": "function"
    },
    {
      "inputs": [
        {
          "internalType": "address",
          "name": "",
          "type": "address"
        },
        {
          "internalType": "uint256",
          "name": "",
          "type": "uint256"
        }
      ],
      "name": "balances",
      "outputs": [
        {
          "internalType": "uint256",
          "name": "",
          "type": "uint256"
        }
      ],
      "stateMutability": "view",
      "type": "function"
    },
    {
      "inputs": [
        {
          "internalType": "uint256",
          "name": "_videoId",
          "type": "uint256"
        },
        {
          "internalType": "string",
          "name": "_commentText",
          "type": "string"
        }
      ],
      "name": "commentOnVideo",
      "outputs": [],
      "stateMutability": "nonpayable",
      "type": "function"
    },
    {
      "inputs": [
        {
          "internalType": "uint256",
          "name": "",
          "type": "uint256"
        },
        {
          "internalType": "uint256",
          "name": "",
          "type": "uint256"
        }
      ],
      "name": "comments",
      "outputs": [
        {
          "internalType": "address",
          "name": "commenter",
          "type": "address"
        },
        {
          "internalType": "string",
          "name": "text",
          "type": "string"
        },
        {
          "internalType": "uint256",
          "name": "timestamp",
          "type": "uint256"
        }
      ],
      "stateMutability": "view",
      "type": "function"
    },
    {
      "inputs": [
        {
          "internalType": "address",
          "name": "",
          "type": "address"
        }
      ],
      "name": "creators",
      "outputs": [
        {
          "internalType": "string",
          "name": "metadataUri",
          "type": "string"
        },
        {
          "internalType": "uint256",
          "name": "totalVideos",
          "type": "uint256"
        },
        {
          "internalType": "uint256",
          "name": "totalFollowers",
          "type": "uint256"
        },
        {
          "internalType": "uint256",
          "name": "totalTipsReceived",
          "type": "uint256"
        }
      ],
      "stateMutability": "view",
      "type": "function"
    },
    {
      "inputs": [],
      "name": "fannitMintLimit",
      "outputs": [
        {
          "internalType": "uint256",
          "name": "",
          "type": "uint256"
        }
      ],
      "stateMutability": "view",
      "type": "function"
    },
    {
      "inputs": [
        {
          "internalType": "uint256",
          "name": "_originalVideoId",
          "type": "uint256"
        }
      ],
      "name": "fannitVideo",
      "outputs": [],
      "stateMutability": "nonpayable",
      "type": "function"
    },
    {
      "inputs": [
        {
          "internalType": "uint256",
          "name": "",
          "type": "uint256"
        },
        {
          "internalType": "uint256",
          "name": "",
          "type": "uint256"
        }
      ],
      "name": "fannitsOfVideo",
      "outputs": [
        {
          "internalType": "uint256",
          "name": "",
          "type": "uint256"
        }
      ],
      "stateMutability": "view",
      "type": "function"
    },
    {
      "inputs": [
        {
          "internalType": "address",
          "name": "_creator",
          "type": "address"
        }
      ],
      "name": "followCreator",
      "outputs": [],
      "stateMutability": "nonpayable",
      "type": "function"
    },
    {
      "inputs": [
        {
          "internalType": "address",
          "name": "",
          "type": "address"
        },
        {
          "internalType": "address",
          "name": "",
          "type": "address"
        }
      ],
      "name": "following",
      "outputs": [
        {
          "internalType": "bool",
          "name": "",
          "type": "bool"
        }
      ],
      "stateMutability": "view",
      "type": "function"
    },
    {
      "inputs": [],
      "name": "getBalance",
      "outputs": [
        {
          "internalType": "uint256",
          "name": "",
          "type": "uint256"
        }
      ],
      "stateMutability": "view",
      "type": "function"
    },
    {
      "inputs": [
        {
          "internalType": "address",
          "name": "_creator",
          "type": "address"
        }
      ],
      "name": "getCreatorProfile",
      "outputs": [
        {
          "components": [
            {
              "internalType": "string",
              "name": "metadataUri",
              "type": "string"
            },
            {
              "internalType": "uint256",
              "name": "totalVideos",
              "type": "uint256"
            },
            {
              "internalType": "uint256",
              "name": "totalFollowers",
              "type": "uint256"
            },
            {
              "internalType": "uint256",
              "name": "totalTipsReceived",
              "type": "uint256"
            }
          ],
          "internalType": "struct ISessions.Creator",
          "name": "",
          "type": "tuple"
        }
      ],
      "stateMutability": "view",
      "type": "function"
    },
    {
      "inputs": [],
      "name": "getEthPrice",
      "outputs": [
        {
          "internalType": "uint256",
          "name": "",
          "type": "uint256"
        }
      ],
      "stateMutability": "view",
      "type": "function"
    },
    {
      "inputs": [],
      "name": "getFannitMintLimit",
      "outputs": [
        {
          "internalType": "uint256",
          "name": "",
          "type": "uint256"
        }
      ],
      "stateMutability": "view",
      "type": "function"
    },
    {
      "inputs": [
        {
          "internalType": "uint256",
          "name": "_videoId",
          "type": "uint256"
        }
      ],
      "name": "getFannitsOfVideo",
      "outputs": [
        {
          "internalType": "uint256[]",
          "name": "",
          "type": "uint256[]"
        }
      ],
      "stateMutability": "view",
      "type": "function"
    },
    {
      "inputs": [
        {
          "internalType": "uint8",
          "name": "_type",
          "type": "uint8"
        }
      ],
      "name": "getSharedRevenue",
      "outputs": [
        {
          "components": [
            {
              "internalType": "uint256",
              "name": "creator",
              "type": "uint256"
            },
            {
              "internalType": "uint256",
              "name": "platform",
              "type": "uint256"
            },
            {
              "internalType": "uint256",
              "name": "fan",
              "type": "uint256"
            },
            {
              "internalType": "uint256",
              "name": "fan2",
              "type": "uint256"
            },
            {
              "internalType": "uint256",
              "name": "minter",
              "type": "uint256"
            }
          ],
          "internalType": "struct ISessions.RevenueShare",
          "name": "",
          "type": "tuple"
        }
      ],
      "stateMutability": "view",
      "type": "function"
    },
    {
      "inputs": [
        {
          "internalType": "uint256",
          "name": "_videoId",
          "type": "uint256"
        }
      ],
      "name": "getTotalComments",
      "outputs": [
        {
          "internalType": "uint256",
          "name": "",
          "type": "uint256"
        }
      ],
      "stateMutability": "view",
      "type": "function"
    },
    {
      "inputs": [
        {
          "internalType": "address",
          "name": "_creator",
          "type": "address"
        }
      ],
      "name": "getTotalFollowers",
      "outputs": [
        {
          "internalType": "uint256",
          "name": "",
          "type": "uint256"
        }
      ],
      "stateMutability": "view",
      "type": "function"
    },
    {
      "inputs": [],
      "name": "getUsdcFeeInEth",
      "outputs": [
        {
          "internalType": "uint256",
          "name": "",
          "type": "uint256"
        }
      ],
      "stateMutability": "view",
      "type": "function"
    },
    {
      "inputs": [
        {
          "internalType": "uint256",
          "name": "_videoId",
          "type": "uint256"
        }
      ],
      "name": "getVideoComments",
      "outputs": [
        {
          "components": [
            {
              "internalType": "address",
              "name": "commenter",
              "type": "address"
            },
            {
              "internalType": "string",
              "name": "text",
              "type": "string"
            },
            {
              "internalType": "uint256",
              "name": "timestamp",
              "type": "uint256"
            }
          ],
          "internalType": "struct ISessions.Comment[]",
          "name": "",
          "type": "tuple[]"
        }
      ],
      "stateMutability": "view",
      "type": "function"
    },
    {
      "inputs": [
        {
          "internalType": "uint256",
          "name": "_videoId",
          "type": "uint256"
        },
        {
          "internalType": "uint256",
          "name": "offset",
          "type": "uint256"
        },
        {
          "internalType": "uint256",
          "name": "limit",
          "type": "uint256"
        }
      ],
      "name": "getVideoCommentsPaginated",
      "outputs": [
        {
          "components": [
            {
              "internalType": "address",
              "name": "commenter",
              "type": "address"
            },
            {
              "internalType": "string",
              "name": "text",
              "type": "string"
            },
            {
              "internalType": "uint256",
              "name": "timestamp",
              "type": "uint256"
            }
          ],
          "internalType": "struct ISessions.Comment[]",
          "name": "",
          "type": "tuple[]"
        }
      ],
      "stateMutability": "view",
      "type": "function"
    },
    {
      "inputs": [
        {
          "internalType": "uint256",
          "name": "_videoId",
          "type": "uint256"
        },
        {
          "internalType": "address",
          "name": "_user",
          "type": "address"
        }
      ],
      "name": "hasLikedVideo",
      "outputs": [
        {
          "internalType": "bool",
          "name": "",
          "type": "bool"
        }
      ],
      "stateMutability": "view",
      "type": "function"
    },
    {
      "inputs": [
        {
          "internalType": "address",
          "name": "",
          "type": "address"
        },
        {
          "internalType": "uint256",
          "name": "",
          "type": "uint256"
        }
      ],
      "name": "hasfannited",
      "outputs": [
        {
          "internalType": "bool",
          "name": "",
          "type": "bool"
        }
      ],
      "stateMutability": "view",
      "type": "function"
    },
    {
      "inputs": [
        {
          "internalType": "address",
          "name": "_follower",
          "type": "address"
        },
        {
          "internalType": "address",
          "name": "_creator",
          "type": "address"
        }
      ],
      "name": "isFollowing",
      "outputs": [
        {
          "internalType": "bool",
          "name": "",
          "type": "bool"
        }
      ],
      "stateMutability": "view",
      "type": "function"
    },
    {
      "inputs": [
        {
          "internalType": "uint256",
          "name": "_videoId",
          "type": "uint256"
        }
      ],
      "name": "likeVideo",
      "outputs": [],
      "stateMutability": "nonpayable",
      "type": "function"
    },
    {
      "inputs": [
        {
          "internalType": "uint256",
          "name": "",
          "type": "uint256"
        },
        {
          "internalType": "address",
          "name": "",
          "type": "address"
        }
      ],
      "name": "likedBy",
      "outputs": [
        {
          "internalType": "bool",
          "name": "",
          "type": "bool"
        }
      ],
      "stateMutability": "view",
      "type": "function"
    },
    {
      "inputs": [],
      "name": "maxMintPrice",
      "outputs": [
        {
          "internalType": "uint256",
          "name": "",
          "type": "uint256"
        }
      ],
      "stateMutability": "view",
      "type": "function"
    },
    {
      "inputs": [
        {
          "internalType": "uint256",
          "name": "_videoId",
          "type": "uint256"
        }
      ],
      "name": "mintFannit",
      "outputs": [],
      "stateMutability": "payable",
      "type": "function"
    },
    {
      "inputs": [],
      "name": "mintLimit",
      "outputs": [
        {
          "internalType": "uint256",
          "name": "",
          "type": "uint256"
        }
      ],
      "stateMutability": "view",
      "type": "function"
    },
    {
      "inputs": [
        {
          "internalType": "uint256",
          "name": "_videoId",
          "type": "uint256"
        }
      ],
      "name": "mintVideo",
      "outputs": [],
      "stateMutability": "payable",
      "type": "function"
    },
    {
      "inputs": [],
      "name": "owner",
      "outputs": [
        {
          "internalType": "address",
          "name": "",
          "type": "address"
        }
      ],
      "stateMutability": "view",
      "type": "function"
    },
    {
      "inputs": [],
      "name": "pendingOwner",
      "outputs": [
        {
          "internalType": "address",
          "name": "",
          "type": "address"
        }
      ],
      "stateMutability": "view",
      "type": "function"
    },
    {
      "inputs": [],
      "name": "projectWallet",
      "outputs": [
        {
          "internalType": "address",
          "name": "",
          "type": "address"
        }
      ],
      "stateMutability": "view",
      "type": "function"
    },
    {
      "inputs": [],
      "name": "refannitMintLimit",
      "outputs": [
        {
          "internalType": "uint256",
          "name": "",
          "type": "uint256"
        }
      ],
      "stateMutability": "view",
      "type": "function"
    },
    {
      "inputs": [
        {
          "internalType": "uint256",
          "name": "_limit",
          "type": "uint256"
        }
      ],
      "name": "setFannitMintLimit",
      "outputs": [],
      "stateMutability": "nonpayable",
      "type": "function"
    },
    {
      "inputs": [
        {
          "internalType": "uint256",
          "name": "_newFee",
          "type": "uint256"
        }
      ],
      "name": "setFee",
      "outputs": [],
      "stateMutability": "nonpayable",
      "type": "function"
    },
    {
      "inputs": [
        {
          "internalType": "address",
          "name": "_projectWallet",
          "type": "address"
        }
      ],
      "name": "setProjectWallet",
      "outputs": [],
      "stateMutability": "nonpayable",
      "type": "function"
    },
    {
      "inputs": [
        {
          "internalType": "uint256",
          "name": "_limit",
          "type": "uint256"
        }
      ],
      "name": "setRefannitMintLimit",
      "outputs": [],
      "stateMutability": "nonpayable",
      "type": "function"
    },
    {
      "inputs": [
        {
          "internalType": "uint8",
          "name": "_type",
          "type": "uint8"
        },
        {
          "internalType": "uint256",
          "name": "_creator",
          "type": "uint256"
        },
        {
          "internalType": "uint256",
          "name": "_platform",
          "type": "uint256"
        },
        {
          "internalType": "uint256",
          "name": "_fan",
          "type": "uint256"
        },
        {
          "internalType": "uint256",
          "name": "_fan2",
          "type": "uint256"
        },
        {
          "internalType": "uint256",
          "name": "_minter",
          "type": "uint256"
        }
      ],
      "name": "setRevenueSplit",
      "outputs": [],
      "stateMutability": "nonpayable",
      "type": "function"
    },
    {
      "inputs": [
        {
          "internalType": "address",
          "name": "_creator",
          "type": "address"
        }
      ],
      "name": "tipCreator",
      "outputs": [],
      "stateMutability": "payable",
      "type": "function"
    },
    {
      "inputs": [
        {
          "internalType": "address",
          "name": "_newOwner",
          "type": "address"
        }
      ],
      "name": "transferOwnership",
      "outputs": [],
      "stateMutability": "nonpayable",
      "type": "function"
    },
    {
      "inputs": [
        {
          "internalType": "address",
          "name": "_creator",
          "type": "address"
        }
      ],
      "name": "unfollowCreator",
      "outputs": [],
      "stateMutability": "nonpayable",
      "type": "function"
    },
    {
      "inputs": [
        {
          "internalType": "uint256",
          "name": "_videoId",
          "type": "uint256"
        }
      ],
      "name": "unlikeVideo",
      "outputs": [],
      "stateMutability": "nonpayable",
      "type": "function"
    },
    {
      "inputs": [
        {
          "internalType": "uint256",
          "name": "_newMintLimit",
          "type": "uint256"
        }
      ],
      "name": "updateGlobalMintLimit",
      "outputs": [],
      "stateMutability": "nonpayable",
      "type": "function"
    },
    {
      "inputs": [
        {
          "internalType": "uint256",
          "name": "_newMaxMintPrice",
          "type": "uint256"
        }
      ],
      "name": "updateMaximumMintPrice",
      "outputs": [],
      "stateMutability": "nonpayable",
      "type": "function"
    },
    {
      "inputs": [
        {
          "internalType": "uint256",
          "name": "_videoId",
          "type": "uint256"
        },
        {
          "internalType": "uint256",
          "name": "_newMintLimit",
          "type": "uint256"
        }
      ],
      "name": "updateMintLimit",
      "outputs": [],
      "stateMutability": "nonpayable",
      "type": "function"
    },
    {
      "inputs": [
        {
          "internalType": "uint256",
          "name": "_videoId",
          "type": "uint256"
        },
        {
          "internalType": "uint256",
          "name": "_newPrice",
          "type": "uint256"
        }
      ],
      "name": "updateMintPrice",
      "outputs": [],
      "stateMutability": "nonpayable",
      "type": "function"
    },
    {
      "inputs": [
        {
          "internalType": "string",
          "name": "_metadataUri",
          "type": "string"
        }
      ],
      "name": "updateProfile",
      "outputs": [],
      "stateMutability": "nonpayable",
      "type": "function"
    },
    {
      "inputs": [
        {
          "internalType": "string",
          "name": "_ipfsHash",
          "type": "string"
        },
        {
          "internalType": "uint256",
          "name": "_mintLimit",
          "type": "uint256"
        },
        {
          "internalType": "uint256",
          "name": "_priceInWei",
          "type": "uint256"
        }
      ],
      "name": "uploadVideo",
      "outputs": [],
      "stateMutability": "payable",
      "type": "function"
    },
    {
      "inputs": [],
      "name": "usdcFee",
      "outputs": [
        {
          "internalType": "uint256",
          "name": "",
          "type": "uint256"
        }
      ],
      "stateMutability": "view",
      "type": "function"
    },
    {
      "inputs": [
        {
          "internalType": "bytes32",
          "name": "",
          "type": "bytes32"
        }
      ],
      "name": "videoIdByHash",
      "outputs": [
        {
          "internalType": "uint256",
          "name": "",
          "type": "uint256"
        }
      ],
      "stateMutability": "view",
      "type": "function"
    },
    {
      "inputs": [
        {
          "internalType": "uint256",
          "name": "",
          "type": "uint256"
        }
      ],
      "name": "videos",
      "outputs": [
        {
          "internalType": "address",
          "name": "creator",
          "type": "address"
        },
        {
          "internalType": "string",
          "name": "ipfsHash",
          "type": "string"
        },
        {
          "internalType": "uint256",
          "name": "totalMints",
          "type": "uint256"
        },
        {
          "internalType": "uint256",
          "name": "mintLimit",
          "type": "uint256"
        },
        {
          "internalType": "uint256",
          "name": "price",
          "type": "uint256"
        },
        {
          "internalType": "uint256",
          "name": "likes",
          "type": "uint256"
        },
        {
          "internalType": "bool",
          "name": "isFannit",
          "type": "bool"
        },
        {
          "internalType": "uint256",
          "name": "originalVideoId",
          "type": "uint256"
        },
        {
          "internalType": "uint256",
          "name": "parentVideoId",
          "type": "uint256"
        },
        {
          "internalType": "address",
          "name": "fan",
          "type": "address"
        },
        {
          "internalType": "address",
          "name": "fan2",
          "type": "address"
        }
      ],
      "stateMutability": "view",
      "type": "function"
    },
    {
      "inputs": [],
      "name": "videosCount",
      "outputs": [
        {
          "internalType": "uint256",
          "name": "",
          "type": "uint256"
        }
      ],
      "stateMutability": "view",
      "type": "function"
    },
    {
      "inputs": [],
      "name": "withdraw",
      "outputs": [],
      "stateMutability": "nonpayable",
      "type": "function"
    },
    {
      "stateMutability": "payable",
      "type": "receive"
    }
  ],
  "bytecode": "0x60006004819055670de0b6b3a7640000600555620f423f600655600a60078190556008819055603c6080819052601e60a081905260c084905260e084905261010083905260098290558255600b839055600c839055600d82905561012081905260146101408190526101608390526101808490526101a0839052600e91909155600f8190556010829055601192909255601281905561026060405260326101c08190526101e0839052610200829052610220829052610240829052601355908055601581905560168190556017553480156100d957600080fd5b50600160008190558054336001600160a01b03199182168117909255600380549091169091179055610110606463042c1d8061013e565b601855601980546001600160a01b031916734adc67696ba383f43dd60a9e78f2c97fbbfc7cb1179055610160565b60008261015b57634e487b7160e01b600052601260045260246000fd5b500490565b6140748061016f6000396000f3fe6080604052600436106103255760003560e01c80637ce2a824116101ae578063cbf1304d116100eb578063e6f477ef1161008f578063ef08523b1161006c578063ef08523b14610a6b578063f1f2c58d14610a81578063f2fde38b14610a96578063fc6c776f14610ab657005b8063e6f477ef14610a0b578063e8ed165314610a2b578063ec9ca25814610a4b57005b8063d5caafa1116100c8578063d5caafa114610967578063daf6160c14610994578063e30c3978146109b4578063e6821bf5146109d457005b8063cbf1304d146108c7578063ce9ae001146108ff578063d2825af31461093a57005b80639b40e6ec11610152578063beb08ab91161012f578063beb08ab914610839578063c0a1996314610859578063c99fda3414610894578063cbdf753b146108a757005b80639b40e6ec146107b35780639e39e58d146107ec578063a5b6f9411461081957005b8063933166e11161018b578063933166e1146106c2578063958a9b72146106f2578063996517cf1461075457806399ec3a421461076a57005b80637ce2a824146106575780638a7804471461066a5780638da5cb5b1461068a57005b806327260d5c1161027c578063587520fa1161022057806367c9b017116101fd57806367c9b017146105fa5780636976c1921461060f57806369fe0e2d1461062257806379ba50971461064257005b8063587520fa146105a457806364db36d4146105d157806365c4e4aa146105e757005b80633ccfd60b116102595780633ccfd60b1461050657806346a094d21461051b5780634d90bc371461054b57806355e6a8061461056b57005b806327260d5c146104b05780632c8739d6146104d057806332cb9eea146104f057005b806311abd324116102e3578063150f885e116102c0578063150f885e1461042357806318196191146104435780631c0081a31461046357806325d9c71b1461049057005b806311abd324146103da57806312065fe0146103fa578063136f5cdd1461040d57005b80629299e3146103275780630327b6551461034757806308796fda1461037057806308d5c32714610385578063098970971461039a5780630e8437e0146103ba575b005b34801561033357600080fd5b50610325610342366004613860565b610ae5565b34801561035357600080fd5b5061035d60075481565b6040519081526020015b60405180910390f35b34801561037c57600080fd5b5061035d606481565b34801561039157600080fd5b5061035d610bcc565b3480156103a657600080fd5b506103256103b536600461389d565b610bdb565b3480156103c657600080fd5b5061035d6103d53660046138b6565b610c9d565b3480156103e657600080fd5b506103256103f536600461389d565b610cce565b34801561040657600080fd5b504761035d565b34801561041957600080fd5b5061035d60185481565b34801561042f57600080fd5b5061032561043e3660046138b6565b610de6565b34801561044f57600080fd5b5061032561045e3660046138ef565b610eea565b34801561046f57600080fd5b5061048361047e36600461389d565b610fe6565b604051610367919061390a565b34801561049c57600080fd5b506103256104ab36600461389d565b611048565b3480156104bc57600080fd5b506103256104cb36600461389d565b61106e565b3480156104dc57600080fd5b506103256104eb36600461395e565b611186565b3480156104fc57600080fd5b5061035d60055481565b34801561051257600080fd5b5061032561140e565b34801561052757600080fd5b5061053b6105363660046139a8565b61147a565b6040519015158152602001610367565b34801561055757600080fd5b506103256105663660046138ef565b6114a7565b34801561057757600080fd5b5061035d6105863660046138ef565b6001600160a01b03166000908152601b602052604090206002015490565b3480156105b057600080fd5b5061035d6105bf36600461389d565b6000908152601e602052604090205490565b3480156105dd57600080fd5b5061035d60085481565b6103256105f53660046138ef565b6115ed565b34801561060657600080fd5b5061035d611742565b61032561061d3660046139d4565b611873565b34801561062e57600080fd5b5061032561063d36600461389d565b6118fe565b34801561064e57600080fd5b506103256119a2565b61032561066536600461389d565b611a27565b34801561067657600080fd5b506103256106853660046138ef565b611b57565b34801561069657600080fd5b506001546106aa906001600160a01b031681565b6040516001600160a01b039091168152602001610367565b3480156106ce57600080fd5b506106e26106dd3660046138ef565b611c17565b6040516103679493929190613a72565b3480156106fe57600080fd5b5061071261070d366004613aa1565b611cc7565b6040516103679190600060a082019050825182526020830151602083015260408301516040830152606083015160608301526080830151608083015292915050565b34801561076057600080fd5b5061035d60065481565b34801561077657600080fd5b5061053b610785366004613abc565b6001600160a01b039182166000908152601c6020908152604080832093909416825291909152205460ff1690565b3480156107bf57600080fd5b5061053b6107ce366004613ae6565b60208080526000928352604080842090915290825290205460ff1681565b3480156107f857600080fd5b5061080c6108073660046138ef565b611df8565b6040516103679190613b10565b34801561082557600080fd5b5061032561083436600461389d565b611efc565b34801561084557600080fd5b506003546106aa906001600160a01b031681565b34801561086557600080fd5b5061053b6108743660046139a8565b601d60209081526000928352604080842090915290825290205460ff1681565b6103256108a236600461389d565b611fac565b3480156108b357600080fd5b506103256108c236600461389d565b612093565b3480156108d357600080fd5b5061035d6108e2366004613ae6565b602260209081526000928352604080842090915290825290205481565b34801561090b57600080fd5b5061053b61091a366004613abc565b601c60209081526000928352604080842090915290825290205460ff1681565b34801561094657600080fd5b5061095a610955366004613b56565b612112565b6040516103679190613b82565b34801561097357600080fd5b5061035d61098236600461389d565b60216020526000908152604090205481565b3480156109a057600080fd5b5061095a6109af36600461389d565b612408565b3480156109c057600080fd5b506002546106aa906001600160a01b031681565b3480156109e057600080fd5b506109f46109ef36600461389d565b61252c565b6040516103679b9a99989796959493929190613c14565b348015610a1757600080fd5b50610325610a2636600461389d565b612627565b348015610a3757600080fd5b50610325610a46366004613c8c565b6126a6565b348015610a5757600080fd5b50610325610a663660046138b6565b61279f565b348015610a7757600080fd5b5061035d60045481565b348015610a8d57600080fd5b5060075461035d565b348015610aa257600080fd5b50610325610ab13660046138ef565b6128c3565b348015610ac257600080fd5b50610ad6610ad13660046138b6565b612957565b60405161036793929190613cd3565b336000908152601b602052604090208054610aff90613d07565b9050600003610b6b57604080516080810182528281526000602080830182905282840182905260608301829052338252601b90529190912081518190610b459082613d88565b506020820151600182015560408201516002820155606090910151600390910155610b88565b336000908152601b6020526040902080610b858382613d88565b50505b336001600160a01b03167fb07b7c8b0281bfa225d936eb4b081f263727dcaa3a2160038b8a947d75df5cb282604051610bc19190613e47565b60405180910390a250565b6000610bd6612a2d565b905090565b6001546001600160a01b03163314610c0e5760405162461bcd60e51b8152600401610c0590613e5a565b60405180910390fd5b600081118015610c2057506006548114155b610c615760405162461bcd60e51b8152602060048201526012602482015271125b9d985b1a59081b5a5b9d081b1a5b5a5d60721b6044820152606401610c05565b60068190556040518181527ff56cd1c2276dd17bcff78ff95f3dcc99cb9595b770bc12da977b9c095c9bf96b906020015b60405180910390a150565b601f6020528160005260406000208181548110610cb957600080fd5b90600052602060002001600091509150505481565b6000818152601a602052604090205481906001600160a01b0316610d045760405162461bcd60e51b8152600401610c0590613e82565b610d0c612a62565b6000828152601d6020908152604080832033845290915290205460ff16610d6b5760405162461bcd60e51b815260206004820152601360248201527243616e6e6f7420756e6c696b6520766964656f60681b6044820152606401610c05565b6000828152601a60205260408120600501805491610d8883613ec5565b90915550506000828152601d60209081526040808320338085529252808320805460ff1916905551909184917fe1ea13f5a6d14e33425b04b4cd2185c1919991c8b880eecaa279f4906475d6f99190a3610de26001600055565b5050565b6000828152601a602052604090205482906001600160a01b03163314610e1e5760405162461bcd60e51b8152600401610c0590613e5a565b6000838152601a6020526040902060060154839060ff1615610e745760405162461bcd60e51b815260206004820152600f60248201526e139bdd08185b881bdc9a59da5b985b608a1b6044820152606401610c05565b60008311610e945760405162461bcd60e51b8152600401610c0590613edc565b6000848152601a6020526040908190206003018490555184907f864790bdf9878a0378c6fc2b0ce53bf74ca13b901bc97a1cb94aa88f1600e48290610edc9086815260200190565b60405180910390a250505050565b610ef2612a62565b336000908152601c602090815260408083206001600160a01b038516845290915290205460ff16610f5d5760405162461bcd60e51b81526020600482015260156024820152742737ba103337b63637bbb4b7339031b932b0ba37b960591b6044820152606401610c05565b336000908152601c602090815260408083206001600160a01b03851684528252808320805460ff19169055601b9091528120600201805491610f9e83613ec5565b90915550506040516001600160a01b0382169033907f673e2dc2dff10ec8a44c707c34be5b2833e3b75618cb3bf22e1e31c1d6a1066890600090a3610fe36001600055565b50565b6000818152601f602090815260409182902080548351818402810184019094528084526060939283018282801561103c57602002820191906000526020600020905b815481526020019060010190808311611028575b50505050509050919050565b611050612a62565b61105a8133612a8c565b6110648133612c26565b610fe36001600055565b6000818152601a602052604090205481906001600160a01b03166110a45760405162461bcd60e51b8152600401610c0590613e82565b6110ac612a62565b6000828152601d6020908152604080832033845290915290205460ff161561110c5760405162461bcd60e51b81526020600482015260136024820152721d9a59195bc8185b1c9958591e481b1a5ad959606a1b6044820152606401610c05565b6000828152601a6020526040812060050180549161112983613f03565b90915550506000828152601d60209081526040808320338085529252808320805460ff1916600117905551909184917f252555045b2bb75bbf4e656932c7fc2d63e8e7d9acc300a6b55d6575a2c8d4289190a3610de26001600055565b6001546001600160a01b031633146111b05760405162461bcd60e51b8152600401610c0590613e5a565b8082846111bd8789613f1c565b6111c79190613f1c565b6111d19190613f1c565b6111db9190613f1c565b60641461122a5760405162461bcd60e51b815260206004820152601b60248201527f50657263656e7461676573206d7573742073756d20746f2031303000000000006044820152606401610c05565b60038660ff161061126c5760405162461bcd60e51b815260206004820152600c60248201526b496e76616c6964207479706560a01b6044820152606401610c05565b8560ff16600003611311576040805160a0808201835287825260208083018890528284018790526060808401879052608093840186905260098a9055600a899055600b889055600c879055600d869055845160ff8c1681529182018a90528185018990528101879052918201859052810183905290517f99194602f58965f9e0983b85141213934a0d9274814df284574442e175ae43709181900360c00190a16113ad565b8560ff16600103611361576040805160a0810182528681526020810186905290810184905260608101839052608001819052600e859055600f8490556010839055601182905560128190556113ad565b8560ff166002036113ad576040805160a0810182528681526020810186905290810184905260608101839052608001819052601385905560148490556015839055601682905560178190555b6040805160ff8816815260208101869052908101869052606081018490526080810183905260a081018290527f99194602f58965f9e0983b85141213934a0d9274814df284574442e175ae43709060c00160405180910390a1505050505050565b6001546001600160a01b031633146114385760405162461bcd60e51b8152600401610c0590613e5a565b6003546040805180820190915260118152701dda5d1a191c985dd85b0819985a5b1959607a1b6020820152611478916001600160a01b0316904790612ed0565b565b6000828152601d602090815260408083206001600160a01b038516845290915290205460ff165b92915050565b6114af612a62565b6001600160a01b03811633036114fc5760405162461bcd60e51b815260206004820152601260248201527121b0b73737ba103337b63637bb9039b2b63360711b6044820152606401610c05565b336000908152601c602090815260408083206001600160a01b038516845290915290205460ff16156115645760405162461bcd60e51b8152602060048201526011602482015270416c726561647920666f6c6c6f77696e6760781b6044820152606401610c05565b336000908152601c602090815260408083206001600160a01b03851684528252808320805460ff19166001179055601b90915281206002018054916115a883613f03565b90915550506040516001600160a01b0382169033907f1e4f76f27ac4380b0e6c2d1a24f025857826721375cb34acd4ac2cccd831eead90600090a3610fe36001600055565b6115f5612a62565b6000341161163a5760405162461bcd60e51b8152602060048201526012602482015271125b9d985b1a59081d1a5c08185b5bdd5b9d60721b6044820152606401610c05565b6001600160a01b0381166116905760405162461bcd60e51b815260206004820152601760248201527f496e76616c69642063726561746f7220616464726573730000000000000000006044820152606401610c05565b6116c88134604051806040016040528060158152602001742330b4b632b2103a37903a34b81031b932b0ba37b960591b815250612ed0565b6001600160a01b0381166000908152601b6020526040812060030180543492906116f3908490613f1c565b90915550506040513481526001600160a01b0382169033907fa32d9d0d87d6c17bab78e0fe62ab9560e6f09ec4a903287bac5dd223e358c1869060200160405180910390a3610fe36001600055565b6000806000601960009054906101000a90046001600160a01b03166001600160a01b031663feaf968c6040518163ffffffff1660e01b815260040160a060405180830381865afa15801561179a573d6000803e3d6000fd5b505050506040513d601f19601f820116820180604052508101906117be9190613f49565b50935050925050610e1081426117d49190613f9b565b1061180d5760405162461bcd60e51b81526020600482015260096024820152684f6c6420707269636560b81b6044820152606401610c05565b6000821361185d5760405162461bcd60e51b815260206004820152601960248201527f496e76616c69642070726963652066726f6d206f7261636c65000000000000006044820152606401610c05565b61186c826402540be400613fae565b9250505090565b61187b612a62565b6000611885612a2d565b9050803410156118d75760405162461bcd60e51b815260206004820152601760248201527f496e73756666696369656e742075706c6f6164206665650000000000000000006044820152606401610c05565b6118e2848484612f5a565b6118ee848484336130fb565b506118f96001600055565b505050565b6001546001600160a01b031633146119285760405162461bcd60e51b8152600401610c0590613e5a565b620f424081111561196d5760405162461bcd60e51b815260206004820152600f60248201526e08ccaca40d2e640e8dede40d0d2ced608b1b6044820152606401610c05565b60188190556040518181527f8c4d35e54a3f2ef1134138fd8ea3daee6a3c89e10d2665996babdf70261e2c7690602001610c92565b6002546001600160a01b031633146119cc5760405162461bcd60e51b8152600401610c0590613e5a565b600180546001600160a01b0319808216339081179093556002805490911690556040516001600160a01b03909116919082907f8be0079c531659141344cd1fd0a4f28419497f9722a3daafe3b4186f6b6457e090600090a350565b611a2f612a62565b6000818152601a602052604090205481906001600160a01b0316611a655760405162461bcd60e51b8152600401610c0590613e82565b6000828152601a60205260409020600681015460ff1615611ac85760405162461bcd60e51b815260206004820152601a60248201527f557365206d696e7446616e6e697420666f722066616e6e6974730000000000006044820152606401610c05565b6000611ad5846000613327565b905080611b125760405162461bcd60e51b815260206004820152600b60248201526a135a5b9d0819985a5b195960aa1b6044820152606401610c05565b604051348152339085907f6ca565cbe12d6a229e5001591809c6900e82e4dc3d5abc5d7f48e1a9c2073e9d906020015b60405180910390a3505050610fe36001600055565b6001546001600160a01b03163314611b815760405162461bcd60e51b8152600401610c0590613e5a565b6001600160a01b038116611bc95760405162461bcd60e51b815260206004820152600f60248201526e496e76616c6964206164647265737360881b6044820152606401610c05565b600380546001600160a01b0319166001600160a01b0383169081179091556040519081527fec859decd72bbc1028a5d9cff18865d253e0a9c46133f5de383c3cd73ab89b6590602001610c92565b601b60205260009081526040902080548190611c3290613d07565b80601f0160208091040260200160405190810160405280929190818152602001828054611c5e90613d07565b8015611cab5780601f10611c8057610100808354040283529160200191611cab565b820191906000526020600020905b815481529060010190602001808311611c8e57829003601f168201915b5050505050908060010154908060020154908060030154905084565b611cf96040518060a0016040528060008152602001600081526020016000815260200160008152602001600081525090565b60038260ff1610611d3b5760405162461bcd60e51b815260206004820152600c60248201526b496e76616c6964207479706560a01b6044820152606401610c05565b8160ff16600003611d7c5750506040805160a0810182526009548152600a546020820152600b5491810191909152600c546060820152600d54608082015290565b8160ff16600103611dbd5750506040805160a081018252600e548152600f546020820152601054918101919091526011546060820152601254608082015290565b50506040805160a08101825260135481526014546020820152601554918101919091526016546060820152601754608082015290565b919050565b611e236040518060800160405280606081526020016000815260200160008152602001600081525090565b6001600160a01b0382166000908152601b602052604090819020815160808101909252805482908290611e5590613d07565b80601f0160208091040260200160405190810160405280929190818152602001828054611e8190613d07565b8015611ece5780601f10611ea357610100808354040283529160200191611ece565b820191906000526020600020905b815481529060010190602001808311611eb157829003601f168201915b5050505050815260200160018201548152602001600282015481526020016003820154815250509050919050565b6001546001600160a01b03163314611f265760405162461bcd60e51b8152600401610c0590613e5a565b600081118015611f3857506005548114155b611f775760405162461bcd60e51b815260206004820152601060248201526f496e76616c6964204d696e742066656560801b6044820152606401610c05565b60058190556040518181527f732603a291622cec912f16c1f255237a3c66fdaaebc8c61e72c21600547f61ee90602001610c92565b611fb4612a62565b6000818152601a602052604090205481906001600160a01b0316611fea5760405162461bcd60e51b8152600401610c0590613e82565b6000611ff583613608565b905060006120038483613327565b9050806120405760405162461bcd60e51b815260206004820152600b60248201526a135a5b9d0819985a5b195960aa1b6044820152606401610c05565b33600081815260208080526040808320888452825291829020805460ff19166001179055905134815286917f42c41140a2bdff8665cac94de0aeb7ac38e33ad117c48ff3e21a908f0dc8d07d9101611b42565b6001546001600160a01b031633146120bd5760405162461bcd60e51b8152600401610c0590613e5a565b600081116120dd5760405162461bcd60e51b8152600401610c0590613edc565b60078190556040518181527f2798e3e1182686cc8c0b7a83111d6b75177944986ce1ee977b9d8fe6fd8b173090602001610c92565b6000838152601e6020526040902080546060919080851061223f5781805480602002602001604051908101604052809291908181526020016000905b8282101561223257600084815260209081902060408051606081019091526003850290910180546001600160a01b03168252600181018054929391929184019161219790613d07565b80601f01602080910402602001604051908101604052809291908181526020018280546121c390613d07565b80156122105780601f106121e557610100808354040283529160200191612210565b820191906000526020600020905b8154815290600101906020018083116121f357829003601f168201915b505050505081526020016002820154815250508152602001906001019061214e565b5050505092505050612401565b600061224b8587613f1c565b9050818111156122585750805b60006122648783613f9b565b905060008167ffffffffffffffff811115612281576122816137bb565b6040519080825280602002602001820160405280156122df57816020015b6122cc604051806060016040528060006001600160a01b0316815260200160608152602001600081525090565b81526020019060019003908161229f5790505b50905060005b828110156123f957856122f8828b613f1c565b8154811061230857612308613fc5565b6000918252602091829020604080516060810190915260039092020180546001600160a01b03168252600181018054929391929184019161234890613d07565b80601f016020809104026020016040519081016040528092919081815260200182805461237490613d07565b80156123c15780601f10612396576101008083540402835291602001916123c1565b820191906000526020600020905b8154815290600101906020018083116123a457829003601f168201915b505050505081526020016002820154815250508282815181106123e6576123e6613fc5565b60209081029190910101526001016122e5565b509450505050505b9392505050565b6060601e6000838152602001908152602001600020805480602002602001604051908101604052809291908181526020016000905b8282101561252157600084815260209081902060408051606081019091526003850290910180546001600160a01b03168252600181018054929391929184019161248690613d07565b80601f01602080910402602001604051908101604052809291908181526020018280546124b290613d07565b80156124ff5780601f106124d4576101008083540402835291602001916124ff565b820191906000526020600020905b8154815290600101906020018083116124e257829003601f168201915b505050505081526020016002820154815250508152602001906001019061243d565b505050509050919050565b601a60205260009081526040902080546001820180546001600160a01b03909216929161255890613d07565b80601f016020809104026020016040519081016040528092919081815260200182805461258490613d07565b80156125d15780601f106125a6576101008083540402835291602001916125d1565b820191906000526020600020905b8154815290600101906020018083116125b457829003601f168201915b50505060028401546003850154600486015460058701546006880154600789015460088a015460098b0154600a909b0154999a9699959850939650919460ff909116939192916001600160a01b0391821691168b565b6001546001600160a01b031633146126515760405162461bcd60e51b8152600401610c0590613e5a565b600081116126715760405162461bcd60e51b8152600401610c0590613edc565b60088190556040518181527fc505b986f5db5ef526ead4a4af7cc6a60cc9f75b3bdeb19be8ee74fcea14f34990602001610c92565b6000828152601a602052604090205482906001600160a01b03166126dc5760405162461bcd60e51b8152600401610c0590613e82565b60408051606081018252338152602080820185815242838501526000878152601e835293842080546001808201835591865292909420835160039093020180546001600160a01b0319166001600160a01b0390931692909217825551919283929082019061274a9082613d88565b50604082015181600201555050336001600160a01b0316847fcc2d7dd2085ae6644799a42c0174adf9afc10a43f26db5eac3ddd1f96d1d64be856040516127919190613e47565b60405180910390a350505050565b6000828152601a602052604090205482906001600160a01b031633146127d75760405162461bcd60e51b8152600401610c0590613e5a565b6000838152601a6020526040902060060154839060ff161561282d5760405162461bcd60e51b815260206004820152600f60248201526e139bdd08185b881bdc9a59da5b985b608a1b6044820152606401610c05565b60008311801561283f57506005548311155b61287b5760405162461bcd60e51b815260206004820152600d60248201526c496e76616c696420707269636560981b6044820152606401610c05565b6000848152601a6020526040908190206004018490555184907f2e1c9e000c6e8dda4d03536adb13b7cb6034ccff90d17f01de381e4d5097b52590610edc9086815260200190565b6001546001600160a01b031633146128ed5760405162461bcd60e51b8152600401610c0590613e5a565b6001600160a01b0381166129355760405162461bcd60e51b815260206004820152600f60248201526e496e76616c6964206164647265737360881b6044820152606401610c05565b600280546001600160a01b0319166001600160a01b0392909216919091179055565b601e602052816000526040600020818154811061297357600080fd5b6000918252602090912060039091020180546001820180546001600160a01b0390921694509192506129a490613d07565b80601f01602080910402602001604051908101604052809291908181526020018280546129d090613d07565b8015612a1d5780601f106129f257610100808354040283529160200191612a1d565b820191906000526020600020905b815481529060010190602001808311612a0057829003601f168201915b5050505050908060020154905083565b600080612a38611742565b90506000816018546c0c9f2c9cd04674edea40000000612a589190613fae565b6124019190613fdb565b600260005403612a8557604051633ee5aeb560e01b815260040160405180910390fd5b6002600055565b6000828152601a60205260409020546001600160a01b0316612ae95760405162461bcd60e51b815260206004820152601660248201527513dc9a59da5b985b08191bd95cdb89dd08195e1a5cdd60521b6044820152606401610c05565b6000828152601a602052604090206006015460ff1615612b445760405162461bcd60e51b815260206004820152601660248201527510d85b9b9bdd0819985b9b9a5d08184819985b9b9a5d60521b6044820152606401610c05565b6001600160a01b03811660009081526020808052604080832085845290915290205460ff1615612bb65760405162461bcd60e51b815260206004820152601b60248201527f416c72656164792066616e6e69746564207468697320766964656f00000000006044820152606401610c05565b6001600160a01b0381166000908152602260209081526040808320858452909152902054610de25760405162461bcd60e51b815260206004820181905260248201527f4d757374206f776e206f726967696e616c206d696e7420746f2066616e6e69746044820152606401610c05565b6000828152601a60205260408120600454909190612c45906001613f1c565b60408051610160810190915283546001600160a01b031681526001840180549293509091602083019190612c7890613d07565b80601f0160208091040260200160405190810160405280929190818152602001828054612ca490613d07565b8015612cf15780601f10612cc657610100808354040283529160200191612cf1565b820191906000526020600020905b815481529060010190602001808311612cd457829003601f168201915b50505091835250506000602082018190526007546040830152600485015460608301526080820152600160a0820152600684015460c09091019060ff16612d385785612d3e565b83600701545b8152602081018690526001600160a01b0385166040820152600684015460609091019060ff16612d6f576000612d7e565b60098401546001600160a01b03165b6001600160a01b039081169091526000838152601a60209081526040909120835181546001600160a01b03191693169290921782558201516001820190612dc59082613d88565b506040828101516002830155606083015160038301556080830151600483015560a0830151600583015560c083015160068301805491151560ff1992831617905560e0840151600784015561010084015160088401556101208401516009840180546001600160a01b039283166001600160a01b03199182161790915561014090950151600a909401805494821694909516939093179093556000878152601f6020908152828220805460018181018355918452828420018790559388168083528180528383208a84529091528282208054909516909317909355519091839187917f8421731d7369d08928a27f198cd9451536c0fb52a9abcfde821c14c7166af31691a450505050565b81600003612edd57505050565b6000836001600160a01b03168360405160006040518083038185875af1925050503d8060008114612f2a576040519150601f19603f3d011682016040523d82523d6000602084013e612f2f565b606091505b50509050808290612f535760405162461bcd60e51b8152600401610c059190613e47565b5050505050565b60008211612fa05760405162461bcd60e51b8152602060048201526013602482015272496e76616c6964204d696e74204c696d69742160681b6044820152606401610c05565b600654821115612fe85760405162461bcd60e51b815260206004820152601360248201527209ad2dce840d8d2dad2e840e8dede40d0d2ced606b1b6044820152606401610c05565b6000811161302e5760405162461bcd60e51b81526020600482015260136024820152724d696e7420707269636520746f6f206c6f772160681b6044820152606401610c05565b6005548111156130765760405162461bcd60e51b815260206004820152601360248201527209ad2dce840e0e4d2c6ca40e8dede40d0d2ced606b1b6044820152606401610c05565b6000836040516020016130899190613ffd565b60408051601f19818403018152918152815160209283012060008181526021909352912054909150156130f55760405162461bcd60e51b8152602060048201526014602482015273566964656f20616c72656164792065786973747360601b6044820152606401610c05565b50505050565b6004805490600061310b83613f03565b909155505060045460408051610160810182526001600160a01b03848116825260208083018981526000848601819052606085018a90526080850189905260a0850181905260c0850181905260e08501879052610100850187905261012085018190526101408501819052868152601a909252939020825181546001600160a01b0319169216919091178155915190919060018201906131ab9082613d88565b506040828101516002830155606083015160038301556080830151600483015560a0830151600583015560c083015160068301805460ff191691151591909117905560e0830151600783015561010083015160088301556101208301516009830180546001600160a01b03199081166001600160a01b039384161790915561014090940151600a909301805490941692169190911790915551600090613255908790602001613ffd565b60408051601f1981840301815291815281516020928301206000818152602184528281208690556001600160a01b0387168152601b909352912080549192509061329e90613d07565b1590506132d9576001600160a01b0383166000908152601b6020526040812060019081018054919290916132d3908490613f1c565b90915550505b826001600160a01b0316827f9251c0179a4c52974f73725b6306be29cf241f0f6bfd43f3a8d01a79a5ddfa5388888860405161331793929190614019565b60405180910390a3505050505050565b6000828152601a60205260408120600681015460ff848116151591161515146133855760405162461bcd60e51b815260206004820152601060248201526f57726f6e6720766964656f207479706560801b6044820152606401610c05565b80600301548160020154106133c75760405162461bcd60e51b815260206004820152600860248201526714dbdb19081bdd5d60c21b6044820152606401610c05565b6040805160a080820183526009548252600a54602080840191909152600b5483850152600c54606080850191909152600d5460808086019190915285518085018752600e548152600f54818501526010548188015260115481840152601254818301528651948501875260135485526014549385019390935260155495840195909552601654908301526017549382019390935260009283928392839290838060ff8c16810361348e5750835160808501518a5491995097506001600160a01b03166134d9565b8b60ff166001036134b157835160808501516040860151919a50985096506134d9565b8b60ff166002036134d957826000015198508260800151975082604001519650826060015195505b60646134e58984613fae565b6134ef9190613fdb565b6134f99083613f9b565b34101561353e5760405162461bcd60e51b8152602060048201526013602482015272496e73756666696369656e742066756e64732160681b6044820152606401610c05565b8954613554906001600160a01b0316838b613770565b861561357357600a8a0154613573906001600160a01b03168388613770565b86156135925760098a0154613592906001600160a01b03168389613770565b60028a0180549060006135a483613f03565b919050555060226000336001600160a01b03166001600160a01b0316815260200190815260200160002060008e815260200190815260200160002060008154809291906135f090613f03565b9091555060019e9d5050505050505050505050505050565b6000818152601a602090815260408083208151610160810190925280546001600160a01b0316825260018101805485948401919061364590613d07565b80601f016020809104026020016040519081016040528092919081815260200182805461367190613d07565b80156136be5780601f10613693576101008083540402835291602001916136be565b820191906000526020600020905b8154815290600101906020018083116136a157829003601f168201915b505050918352505060028201546020820152600382015460408201526004820154606082015260058201546080820152600682015460ff16151560a0820152600782015460c080830191909152600883015460e083015260098301546001600160a01b03908116610100840152600a909301549092166101209091015281015190915061374e5750600092915050565b8060e00151816101000151036137675750600192915050565b50600292915050565b6000606461377e8385613fae565b6137889190613fdb565b90506130f584826040518060400160405280600e81526020016d14185e5b595b9d0819985a5b195960921b815250612ed0565b634e487b7160e01b600052604160045260246000fd5b600082601f8301126137e257600080fd5b813567ffffffffffffffff8111156137fc576137fc6137bb565b604051601f8201601f19908116603f0116810167ffffffffffffffff8111828210171561382b5761382b6137bb565b60405281815283820160200185101561384357600080fd5b816020850160208301376000918101602001919091529392505050565b60006020828403121561387257600080fd5b813567ffffffffffffffff81111561388957600080fd5b613895848285016137d1565b949350505050565b6000602082840312156138af57600080fd5b5035919050565b600080604083850312156138c957600080fd5b50508035926020909101359150565b80356001600160a01b0381168114611df357600080fd5b60006020828403121561390157600080fd5b612401826138d8565b602080825282518282018190526000918401906040840190835b81811015613942578351835260209384019390920191600101613924565b509095945050505050565b803560ff81168114611df357600080fd5b60008060008060008060c0878903121561397757600080fd5b6139808761394d565b9860208801359850604088013597606081013597506080810135965060a00135945092505050565b600080604083850312156139bb57600080fd5b823591506139cb602084016138d8565b90509250929050565b6000806000606084860312156139e957600080fd5b833567ffffffffffffffff811115613a0057600080fd5b613a0c868287016137d1565b9660208601359650604090950135949350505050565b60005b83811015613a3d578181015183820152602001613a25565b50506000910152565b60008151808452613a5e816020860160208601613a22565b601f01601f19169290920160200192915050565b608081526000613a856080830187613a46565b6020830195909552506040810192909252606090910152919050565b600060208284031215613ab357600080fd5b6124018261394d565b60008060408385031215613acf57600080fd5b613ad8836138d8565b91506139cb602084016138d8565b60008060408385031215613af957600080fd5b613b02836138d8565b946020939093013593505050565b602081526000825160806020840152613b2c60a0840182613a46565b90506020840151604084015260408401516060840152606084015160808401528091505092915050565b600080600060608486031215613b6b57600080fd5b505081359360208301359350604090920135919050565b6000602082016020835280845180835260408501915060408160051b86010192506020860160005b82811015613c0857868503603f19018452815180516001600160a01b03168652602080820151606091880182905290613be590880182613a46565b604092830151979092019690965294506020938401939190910190600101613baa565b50929695505050505050565b6001600160a01b038c16815261016060208201819052600090613c399083018d613a46565b604083019b909b52506060810198909852608088019690965260a087019490945291151560c086015260e08501526101008401526001600160a01b03908116610120840152166101409091015292915050565b60008060408385031215613c9f57600080fd5b82359150602083013567ffffffffffffffff811115613cbd57600080fd5b613cc9858286016137d1565b9150509250929050565b6001600160a01b0384168152606060208201819052600090613cf790830185613a46565b9050826040830152949350505050565b600181811c90821680613d1b57607f821691505b602082108103613d3b57634e487b7160e01b600052602260045260246000fd5b50919050565b601f8211156118f957806000526020600020601f840160051c81016020851015613d685750805b601f840160051c820191505b81811015612f535760008155600101613d74565b815167ffffffffffffffff811115613da257613da26137bb565b613db681613db08454613d07565b84613d41565b6020601f821160018114613dea5760008315613dd25750848201515b600019600385901b1c1916600184901b178455612f53565b600084815260208120601f198516915b82811015613e1a5787850151825560209485019460019092019101613dfa565b5084821015613e385786840151600019600387901b60f8161c191681555b50505050600190811b01905550565b6020815260006124016020830184613a46565b6020808252600e908201526d139bdd08185d5d1a1bdc9a5e995960921b604082015260600190565b602080825260139082015272159a59195bc8191bd95cdb89dd08195e1a5cdd606a1b604082015260600190565b634e487b7160e01b600052601160045260246000fd5b600081613ed457613ed4613eaf565b506000190190565b6020808252600d908201526c125b9d985b1a59081b1a5b5a5d609a1b604082015260600190565b600060018201613f1557613f15613eaf565b5060010190565b808201808211156114a1576114a1613eaf565b805169ffffffffffffffffffff81168114611df357600080fd5b600080600080600060a08688031215613f6157600080fd5b613f6a86613f2f565b60208701516040880151606089015192975090955093509150613f8f60808701613f2f565b90509295509295909350565b818103818111156114a1576114a1613eaf565b80820281158282048414176114a1576114a1613eaf565b634e487b7160e01b600052603260045260246000fd5b600082613ff857634e487b7160e01b600052601260045260246000fd5b500490565b6000825161400f818460208701613a22565b9190910192915050565b60608152600061402c6060830186613a46565b6020830194909452506040015291905056fea2646970667358221220860feb891f23739780445fea7657ccc95d76eaaf5d7a0583eadc1e30455b0c0c64736f6c634300081c0033",
  "linkReferences": {},
  "deployedLinkReferences": {}
}